{
	"contracts/storage.sol": {
		"Vote": {
			"abi": [
				{
					"inputs": [],
					"stateMutability": "nonpayable",
					"type": "constructor"
				},
				{
					"inputs": [],
					"name": "announceVotingResult",
					"outputs": [],
					"stateMutability": "nonpayable",
					"type": "function"
				},
				{
					"inputs": [
						{
							"internalType": "uint256",
							"name": "_voterId",
							"type": "uint256"
						},
						{
							"internalType": "uint256",
							"name": "_id",
							"type": "uint256"
						}
					],
					"name": "castVote",
					"outputs": [],
					"stateMutability": "nonpayable",
					"type": "function"
				},
				{
					"inputs": [],
					"name": "emergencyStopVoting",
					"outputs": [],
					"stateMutability": "nonpayable",
					"type": "function"
				},
				{
					"inputs": [],
					"name": "getCandidateList",
					"outputs": [
						{
							"components": [
								{
									"internalType": "string",
									"name": "name",
									"type": "string"
								},
								{
									"internalType": "string",
									"name": "party",
									"type": "string"
								},
								{
									"internalType": "uint256",
									"name": "age",
									"type": "uint256"
								},
								{
									"internalType": "enum Vote.Gender",
									"name": "gender",
									"type": "uint8"
								},
								{
									"internalType": "uint256",
									"name": "candidateId",
									"type": "uint256"
								},
								{
									"internalType": "address",
									"name": "candidateAddress",
									"type": "address"
								},
								{
									"internalType": "uint256",
									"name": "votes",
									"type": "uint256"
								}
							],
							"internalType": "struct Vote.Candidate[]",
							"name": "",
							"type": "tuple[]"
						}
					],
					"stateMutability": "view",
					"type": "function"
				},
				{
					"inputs": [],
					"name": "getVoterList",
					"outputs": [
						{
							"components": [
								{
									"internalType": "string",
									"name": "name",
									"type": "string"
								},
								{
									"internalType": "uint256",
									"name": "age",
									"type": "uint256"
								},
								{
									"internalType": "uint256",
									"name": "voterId",
									"type": "uint256"
								},
								{
									"internalType": "enum Vote.Gender",
									"name": "gender",
									"type": "uint8"
								},
								{
									"internalType": "uint256",
									"name": "voteCandidateId",
									"type": "uint256"
								},
								{
									"internalType": "address",
									"name": "voterAddress",
									"type": "address"
								}
							],
							"internalType": "struct Vote.Voter[]",
							"name": "",
							"type": "tuple[]"
						}
					],
					"stateMutability": "view",
					"type": "function"
				},
				{
					"inputs": [],
					"name": "getVotingStatus",
					"outputs": [
						{
							"internalType": "enum Vote.VotingStatus",
							"name": "",
							"type": "uint8"
						}
					],
					"stateMutability": "view",
					"type": "function"
				},
				{
					"inputs": [
						{
							"internalType": "string",
							"name": "_name",
							"type": "string"
						},
						{
							"internalType": "string",
							"name": "_party",
							"type": "string"
						},
						{
							"internalType": "uint256",
							"name": "_age",
							"type": "uint256"
						},
						{
							"internalType": "enum Vote.Gender",
							"name": "_gender",
							"type": "uint8"
						}
					],
					"name": "registerCandidate",
					"outputs": [],
					"stateMutability": "nonpayable",
					"type": "function"
				},
				{
					"inputs": [
						{
							"internalType": "string",
							"name": "_name",
							"type": "string"
						},
						{
							"internalType": "uint256",
							"name": "_age",
							"type": "uint256"
						},
						{
							"internalType": "enum Vote.Gender",
							"name": "_gender",
							"type": "uint8"
						}
					],
					"name": "registerVoter",
					"outputs": [],
					"stateMutability": "nonpayable",
					"type": "function"
				},
				{
					"inputs": [
						{
							"internalType": "uint256",
							"name": "_startTime",
							"type": "uint256"
						},
						{
							"internalType": "uint256",
							"name": "_endTime",
							"type": "uint256"
						}
					],
					"name": "setVotingPeriod",
					"outputs": [],
					"stateMutability": "nonpayable",
					"type": "function"
				},
				{
					"inputs": [],
					"name": "winner",
					"outputs": [
						{
							"internalType": "address",
							"name": "",
							"type": "address"
						}
					],
					"stateMutability": "view",
					"type": "function"
				}
			],
			"devdoc": {
				"kind": "dev",
				"methods": {},
				"version": 1
			},
			"evm": {
				"assembly": "    /* \"contracts/storage.sol\":59:3705  contract Vote {... */\n  mstore(0x40, 0x80)\n    /* \"contracts/storage.sol\":698:699  1 */\n  0x01\n    /* \"contracts/storage.sol\":676:699  uint256 nextVoterId = 1 */\n  0x02\n  sstore\n    /* \"contracts/storage.sol\":731:732  1 */\n  0x01\n    /* \"contracts/storage.sol\":705:732  uint256 nextCandidateId = 1 */\n  0x03\n  sstore\n    /* \"contracts/storage.sol\":1097:1222  constructor() {... */\n  callvalue\n  dup1\n  iszero\n  tag_1\n  jumpi\n  0x00\n  dup1\n  revert\ntag_1:\n  pop\n    /* \"contracts/storage.sol\":1142:1152  msg.sender */\n  caller\n    /* \"contracts/storage.sol\":1121:1139  electionCommission */\n  0x00\n  dup1\n    /* \"contracts/storage.sol\":1121:1152  electionCommission = msg.sender */\n  0x0100\n  exp\n  dup2\n  sload\n  dup2\n  0xffffffffffffffffffffffffffffffffffffffff\n  mul\n  not\n  and\n  swap1\n  dup4\n  0xffffffffffffffffffffffffffffffffffffffff\n  and\n  mul\n  or\n  swap1\n  sstore\n  pop\n    /* \"contracts/storage.sol\":59:3705  contract Vote {... */\n  dataSize(sub_0)\n  dup1\n  dataOffset(sub_0)\n  0x00\n  codecopy\n  0x00\n  return\nstop\n\nsub_0: assembly {\n        /* \"contracts/storage.sol\":59:3705  contract Vote {... */\n      mstore(0x40, 0x80)\n      callvalue\n      dup1\n      iszero\n      tag_1\n      jumpi\n      0x00\n      dup1\n      revert\n    tag_1:\n      pop\n      jumpi(tag_2, lt(calldatasize, 0x04))\n      shr(0xe0, calldataload(0x00))\n      dup1\n      0x9fa4e440\n      gt\n      tag_13\n      jumpi\n      dup1\n      0x9fa4e440\n      eq\n      tag_8\n      jumpi\n      dup1\n      0xa15a36c7\n      eq\n      tag_9\n      jumpi\n      dup1\n      0xb28d92ae\n      eq\n      tag_10\n      jumpi\n      dup1\n      0xdfbf53ae\n      eq\n      tag_11\n      jumpi\n      dup1\n      0xfdbc4006\n      eq\n      tag_12\n      jumpi\n      jump(tag_2)\n    tag_13:\n      dup1\n      0x2c0a3f89\n      eq\n      tag_3\n      jumpi\n      dup1\n      0x581c281c\n      eq\n      tag_4\n      jumpi\n      dup1\n      0x6ce2ccc0\n      eq\n      tag_5\n      jumpi\n      dup1\n      0x81ba732f\n      eq\n      tag_6\n      jumpi\n      dup1\n      0x982c777d\n      eq\n      tag_7\n      jumpi\n    tag_2:\n      0x00\n      dup1\n      revert\n        /* \"contracts/storage.sol\":3295:3355  function castVote(uint256 _voterId, uint256 _id) external {} */\n    tag_3:\n      tag_14\n      0x04\n      dup1\n      calldatasize\n      sub\n      dup2\n      add\n      swap1\n      tag_15\n      swap2\n      swap1\n      tag_16\n      jump\t// in\n    tag_15:\n      tag_17\n      jump\t// in\n    tag_14:\n      stop\n        /* \"contracts/storage.sol\":3478:3542  function getVotingStatus() public view returns (VotingStatus) {} */\n    tag_4:\n      tag_18\n      tag_19\n      jump\t// in\n    tag_18:\n      mload(0x40)\n      tag_20\n      swap2\n      swap1\n      tag_21\n      jump\t// in\n    tag_20:\n      mload(0x40)\n      dup1\n      swap2\n      sub\n      swap1\n      return\n        /* \"contracts/storage.sol\":3548:3608  function announceVotingResult() external onlyCommissioner {} */\n    tag_5:\n      tag_22\n      tag_23\n      jump\t// in\n    tag_22:\n      stop\n        /* \"contracts/storage.sol\":2665:3220  function registerVoter(... */\n    tag_6:\n      tag_24\n      0x04\n      dup1\n      calldatasize\n      sub\n      dup2\n      add\n      swap1\n      tag_25\n      swap2\n      swap1\n      tag_26\n      jump\t// in\n    tag_25:\n      tag_27\n      jump\t// in\n    tag_24:\n      stop\n        /* \"contracts/storage.sol\":1523:2354  function registerCandidate(... */\n    tag_7:\n      tag_28\n      0x04\n      dup1\n      calldatasize\n      sub\n      dup2\n      add\n      swap1\n      tag_29\n      swap2\n      swap1\n      tag_30\n      jump\t// in\n    tag_29:\n      tag_31\n      jump\t// in\n    tag_28:\n      stop\n        /* \"contracts/storage.sol\":3614:3703  function emergencyStopVoting() public onlyCommissioner {... */\n    tag_8:\n      tag_32\n      tag_33\n      jump\t// in\n    tag_32:\n      stop\n        /* \"contracts/storage.sol\":3361:3472  function setVotingPeriod(uint256 _startTime, uint256 _endTime)... */\n    tag_9:\n      tag_34\n      0x04\n      dup1\n      calldatasize\n      sub\n      dup2\n      add\n      swap1\n      tag_35\n      swap2\n      swap1\n      tag_16\n      jump\t// in\n    tag_35:\n      tag_36\n      jump\t// in\n    tag_34:\n      stop\n        /* \"contracts/storage.sol\":3226:3289  function getVoterList() public view returns (Voter[] memory) {} */\n    tag_10:\n      tag_37\n      tag_38\n      jump\t// in\n    tag_37:\n      mload(0x40)\n      tag_39\n      swap2\n      swap1\n      tag_40\n      jump\t// in\n    tag_39:\n      mload(0x40)\n      dup1\n      swap2\n      sub\n      swap1\n      return\n        /* \"contracts/storage.sol\":648:669  address public winner */\n    tag_11:\n      tag_41\n      tag_42\n      jump\t// in\n    tag_41:\n      mload(0x40)\n      tag_43\n      swap2\n      swap1\n      tag_44\n      jump\t// in\n    tag_43:\n      mload(0x40)\n      dup1\n      swap2\n      sub\n      swap1\n      return\n        /* \"contracts/storage.sol\":2476:2547  function getCandidateList() public view returns (Candidate[] memory) {} */\n    tag_12:\n      tag_45\n      tag_46\n      jump\t// in\n    tag_45:\n      mload(0x40)\n      tag_47\n      swap2\n      swap1\n      tag_48\n      jump\t// in\n    tag_47:\n      mload(0x40)\n      dup1\n      swap2\n      sub\n      swap1\n      return\n        /* \"contracts/storage.sol\":3295:3355  function castVote(uint256 _voterId, uint256 _id) external {} */\n    tag_17:\n      pop\n      pop\n      jump\t// out\n        /* \"contracts/storage.sol\":3478:3542  function getVotingStatus() public view returns (VotingStatus) {} */\n    tag_19:\n        /* \"contracts/storage.sol\":3526:3538  VotingStatus */\n      0x00\n        /* \"contracts/storage.sol\":3478:3542  function getVotingStatus() public view returns (VotingStatus) {} */\n      swap1\n      jump\t// out\n        /* \"contracts/storage.sol\":3548:3608  function announceVotingResult() external onlyCommissioner {} */\n    tag_23:\n        /* \"contracts/storage.sol\":1461:1479  electionCommission */\n      0x00\n      dup1\n      sload\n      swap1\n      0x0100\n      exp\n      swap1\n      div\n      0xffffffffffffffffffffffffffffffffffffffff\n      and\n        /* \"contracts/storage.sol\":1447:1479  msg.sender == electionCommission */\n      0xffffffffffffffffffffffffffffffffffffffff\n      and\n        /* \"contracts/storage.sol\":1447:1457  msg.sender */\n      caller\n        /* \"contracts/storage.sol\":1447:1479  msg.sender == electionCommission */\n      0xffffffffffffffffffffffffffffffffffffffff\n      and\n      eq\n        /* \"contracts/storage.sol\":1439:1499  require(msg.sender == electionCommission, \"Not authuorized\") */\n      tag_52\n      jumpi\n      mload(0x40)\n      0x08c379a000000000000000000000000000000000000000000000000000000000\n      dup2\n      mstore\n      0x04\n      add\n      tag_53\n      swap1\n      tag_54\n      jump\t// in\n    tag_53:\n      mload(0x40)\n      dup1\n      swap2\n      sub\n      swap1\n      revert\n    tag_52:\n        /* \"contracts/storage.sol\":3548:3608  function announceVotingResult() external onlyCommissioner {} */\n      jump\t// out\n        /* \"contracts/storage.sol\":2665:3220  function registerVoter(... */\n    tag_27:\n        /* \"contracts/storage.sol\":2806:2808  18 */\n      0x12\n        /* \"contracts/storage.sol\":2798:2802  _age */\n      dup3\n        /* \"contracts/storage.sol\":2798:2808  _age >= 18 */\n      lt\n      iszero\n        /* \"contracts/storage.sol\":2790:2829  require(_age >= 18, \"You are below 18\") */\n      tag_57\n      jumpi\n      mload(0x40)\n      0x08c379a000000000000000000000000000000000000000000000000000000000\n      dup2\n      mstore\n      0x04\n      add\n      tag_58\n      swap1\n      tag_59\n      jump\t// in\n    tag_58:\n      mload(0x40)\n      dup1\n      swap2\n      sub\n      swap1\n      revert\n    tag_57:\n        /* \"contracts/storage.sol\":2860:2892  isVoterNotRegistered(msg.sender) */\n      tag_60\n        /* \"contracts/storage.sol\":2881:2891  msg.sender */\n      caller\n        /* \"contracts/storage.sol\":2860:2880  isVoterNotRegistered */\n      tag_61\n        /* \"contracts/storage.sol\":2860:2892  isVoterNotRegistered(msg.sender) */\n      jump\t// in\n    tag_60:\n        /* \"contracts/storage.sol\":2839:2944  require(... */\n      tag_62\n      jumpi\n      mload(0x40)\n      0x08c379a000000000000000000000000000000000000000000000000000000000\n      dup2\n      mstore\n      0x04\n      add\n      tag_63\n      swap1\n      tag_64\n      jump\t// in\n    tag_63:\n      mload(0x40)\n      dup1\n      swap2\n      sub\n      swap1\n      revert\n    tag_62:\n        /* \"contracts/storage.sol\":2992:3190  Voter({... */\n      mload(0x40)\n      dup1\n      0xc0\n      add\n      0x40\n      mstore\n      dup1\n        /* \"contracts/storage.sol\":3018:3023  _name */\n      dup6\n      dup6\n        /* \"contracts/storage.sol\":2992:3190  Voter({... */\n      dup1\n      dup1\n      0x1f\n      add\n      0x20\n      dup1\n      swap2\n      div\n      mul\n      0x20\n      add\n      mload(0x40)\n      swap1\n      dup2\n      add\n      0x40\n      mstore\n      dup1\n      swap4\n      swap3\n      swap2\n      swap1\n      dup2\n      dup2\n      mstore\n      0x20\n      add\n      dup4\n      dup4\n      dup1\n      dup3\n      dup5\n      calldatacopy\n      0x00\n      dup2\n      dup5\n      add\n      mstore\n      not(0x1f)\n      0x1f\n      dup3\n      add\n      and\n      swap1\n      pop\n      dup1\n      dup4\n      add\n      swap3\n      pop\n      pop\n      pop\n      pop\n      pop\n      pop\n      pop\n      dup2\n      mstore\n      0x20\n      add\n        /* \"contracts/storage.sol\":3042:3046  _age */\n      dup4\n        /* \"contracts/storage.sol\":2992:3190  Voter({... */\n      dup2\n      mstore\n      0x20\n      add\n        /* \"contracts/storage.sol\":3069:3080  nextVoterId */\n      sload(0x02)\n        /* \"contracts/storage.sol\":2992:3190  Voter({... */\n      dup2\n      mstore\n      0x20\n      add\n        /* \"contracts/storage.sol\":3102:3109  _gender */\n      dup3\n        /* \"contracts/storage.sol\":2992:3190  Voter({... */\n      0x03\n      dup2\n      gt\n      iszero\n      tag_65\n      jumpi\n      tag_66\n      tag_67\n      jump\t// in\n    tag_66:\n    tag_65:\n      dup2\n      mstore\n      0x20\n      add\n        /* \"contracts/storage.sol\":3140:3141  0 */\n      0x00\n        /* \"contracts/storage.sol\":2992:3190  Voter({... */\n      dup2\n      mstore\n      0x20\n      add\n        /* \"contracts/storage.sol\":3169:3179  msg.sender */\n      caller\n        /* \"contracts/storage.sol\":2992:3190  Voter({... */\n      0xffffffffffffffffffffffffffffffffffffffff\n      and\n      dup2\n      mstore\n      pop\n        /* \"contracts/storage.sol\":2964:2976  voterDetails */\n      0x07\n        /* \"contracts/storage.sol\":2964:2989  voterDetails[nextVoterId] */\n      0x00\n        /* \"contracts/storage.sol\":2977:2988  nextVoterId */\n      sload(0x02)\n        /* \"contracts/storage.sol\":2964:2989  voterDetails[nextVoterId] */\n      dup2\n      mstore\n      0x20\n      add\n      swap1\n      dup2\n      mstore\n      0x20\n      add\n      0x00\n      keccak256\n        /* \"contracts/storage.sol\":2964:3190  voterDetails[nextVoterId] = Voter({... */\n      0x00\n      dup3\n      add\n      mload\n      dup2\n      0x00\n      add\n      swap1\n      dup2\n      tag_68\n      swap2\n      swap1\n      tag_69\n      jump\t// in\n    tag_68:\n      pop\n      0x20\n      dup3\n      add\n      mload\n      dup2\n      0x01\n      add\n      sstore\n      0x40\n      dup3\n      add\n      mload\n      dup2\n      0x02\n      add\n      sstore\n      0x60\n      dup3\n      add\n      mload\n      dup2\n      0x03\n      add\n      exp(0x0100, 0x00)\n      dup2\n      sload\n      dup2\n      0xff\n      mul\n      not\n      and\n      swap1\n      dup4\n      0x03\n      dup2\n      gt\n      iszero\n      tag_70\n      jumpi\n      tag_71\n      tag_67\n      jump\t// in\n    tag_71:\n    tag_70:\n      mul\n      or\n      swap1\n      sstore\n      pop\n      0x80\n      dup3\n      add\n      mload\n      dup2\n      0x04\n      add\n      sstore\n      0xa0\n      dup3\n      add\n      mload\n      dup2\n      0x05\n      add\n      exp(0x0100, 0x00)\n      dup2\n      sload\n      dup2\n      0xffffffffffffffffffffffffffffffffffffffff\n      mul\n      not\n      and\n      swap1\n      dup4\n      0xffffffffffffffffffffffffffffffffffffffff\n      and\n      mul\n      or\n      swap1\n      sstore\n      pop\n      swap1\n      pop\n      pop\n        /* \"contracts/storage.sol\":3200:3211  nextVoterId */\n      0x02\n      0x00\n        /* \"contracts/storage.sol\":3200:3213  nextVoterId++ */\n      dup2\n      sload\n      dup1\n      swap3\n      swap2\n      swap1\n      tag_72\n      swap1\n      tag_73\n      jump\t// in\n    tag_72:\n      swap2\n      swap1\n      pop\n      sstore\n      pop\n        /* \"contracts/storage.sol\":2665:3220  function registerVoter(... */\n      pop\n      pop\n      pop\n      pop\n      jump\t// out\n        /* \"contracts/storage.sol\":1523:2354  function registerCandidate(... */\n    tag_31:\n        /* \"contracts/storage.sol\":1700:1702  18 */\n      0x12\n        /* \"contracts/storage.sol\":1692:1696  _age */\n      dup3\n        /* \"contracts/storage.sol\":1692:1702  _age >= 18 */\n      lt\n      iszero\n        /* \"contracts/storage.sol\":1684:1723  require(_age >= 18, \"You are below 18\") */\n      tag_75\n      jumpi\n      mload(0x40)\n      0x08c379a000000000000000000000000000000000000000000000000000000000\n      dup2\n      mstore\n      0x04\n      add\n      tag_76\n      swap1\n      tag_59\n      jump\t// in\n    tag_76:\n      mload(0x40)\n      dup1\n      swap2\n      sub\n      swap1\n      revert\n    tag_75:\n        /* \"contracts/storage.sol\":1754:1790  isCandidateNotRegistered(msg.sender) */\n      tag_77\n        /* \"contracts/storage.sol\":1779:1789  msg.sender */\n      caller\n        /* \"contracts/storage.sol\":1754:1778  isCandidateNotRegistered */\n      tag_78\n        /* \"contracts/storage.sol\":1754:1790  isCandidateNotRegistered(msg.sender) */\n      jump\t// in\n    tag_77:\n        /* \"contracts/storage.sol\":1733:1842  require(... */\n      tag_79\n      jumpi\n      mload(0x40)\n      0x08c379a000000000000000000000000000000000000000000000000000000000\n      dup2\n      mstore\n      0x04\n      add\n      tag_80\n      swap1\n      tag_64\n      jump\t// in\n    tag_80:\n      mload(0x40)\n      dup1\n      swap2\n      sub\n      swap1\n      revert\n    tag_79:\n        /* \"contracts/storage.sol\":1878:1879  3 */\n      0x03\n        /* \"contracts/storage.sol\":1860:1875  nextCandidateId */\n      dup1\n      sload\n        /* \"contracts/storage.sol\":1860:1879  nextCandidateId < 3 */\n      lt\n        /* \"contracts/storage.sol\":1852:1911  require(nextCandidateId < 3, \"Candidate Registration Full\") */\n      tag_81\n      jumpi\n      mload(0x40)\n      0x08c379a000000000000000000000000000000000000000000000000000000000\n      dup2\n      mstore\n      0x04\n      add\n      tag_82\n      swap1\n      tag_83\n      jump\t// in\n    tag_82:\n      mload(0x40)\n      dup1\n      swap2\n      sub\n      swap1\n      revert\n    tag_81:\n        /* \"contracts/storage.sol\":1956:1974  electionCommission */\n      0x00\n      dup1\n      sload\n      swap1\n      0x0100\n      exp\n      swap1\n      div\n      0xffffffffffffffffffffffffffffffffffffffff\n      and\n        /* \"contracts/storage.sol\":1942:1974  msg.sender != electionCommission */\n      0xffffffffffffffffffffffffffffffffffffffff\n      and\n        /* \"contracts/storage.sol\":1942:1952  msg.sender */\n      caller\n        /* \"contracts/storage.sol\":1942:1974  msg.sender != electionCommission */\n      0xffffffffffffffffffffffffffffffffffffffff\n      and\n      sub\n        /* \"contracts/storage.sol\":1921:2042  require(... */\n      tag_84\n      jumpi\n      mload(0x40)\n      0x08c379a000000000000000000000000000000000000000000000000000000000\n      dup2\n      mstore\n      0x04\n      add\n      tag_85\n      swap1\n      tag_86\n      jump\t// in\n    tag_85:\n      mload(0x40)\n      dup1\n      swap2\n      sub\n      swap1\n      revert\n    tag_84:\n        /* \"contracts/storage.sol\":2089:2320  Candidate({... */\n      mload(0x40)\n      dup1\n      0xe0\n      add\n      0x40\n      mstore\n      dup1\n        /* \"contracts/storage.sol\":2119:2124  _name */\n      dup8\n      dup8\n        /* \"contracts/storage.sol\":2089:2320  Candidate({... */\n      dup1\n      dup1\n      0x1f\n      add\n      0x20\n      dup1\n      swap2\n      div\n      mul\n      0x20\n      add\n      mload(0x40)\n      swap1\n      dup2\n      add\n      0x40\n      mstore\n      dup1\n      swap4\n      swap3\n      swap2\n      swap1\n      dup2\n      dup2\n      mstore\n      0x20\n      add\n      dup4\n      dup4\n      dup1\n      dup3\n      dup5\n      calldatacopy\n      0x00\n      dup2\n      dup5\n      add\n      mstore\n      not(0x1f)\n      0x1f\n      dup3\n      add\n      and\n      swap1\n      pop\n      dup1\n      dup4\n      add\n      swap3\n      pop\n      pop\n      pop\n      pop\n      pop\n      pop\n      pop\n      dup2\n      mstore\n      0x20\n      add\n        /* \"contracts/storage.sol\":2145:2151  _party */\n      dup6\n      dup6\n        /* \"contracts/storage.sol\":2089:2320  Candidate({... */\n      dup1\n      dup1\n      0x1f\n      add\n      0x20\n      dup1\n      swap2\n      div\n      mul\n      0x20\n      add\n      mload(0x40)\n      swap1\n      dup2\n      add\n      0x40\n      mstore\n      dup1\n      swap4\n      swap3\n      swap2\n      swap1\n      dup2\n      dup2\n      mstore\n      0x20\n      add\n      dup4\n      dup4\n      dup1\n      dup3\n      dup5\n      calldatacopy\n      0x00\n      dup2\n      dup5\n      add\n      mstore\n      not(0x1f)\n      0x1f\n      dup3\n      add\n      and\n      swap1\n      pop\n      dup1\n      dup4\n      add\n      swap3\n      pop\n      pop\n      pop\n      pop\n      pop\n      pop\n      pop\n      dup2\n      mstore\n      0x20\n      add\n        /* \"contracts/storage.sol\":2170:2174  _age */\n      dup4\n        /* \"contracts/storage.sol\":2089:2320  Candidate({... */\n      dup2\n      mstore\n      0x20\n      add\n        /* \"contracts/storage.sol\":2196:2203  _gender */\n      dup3\n        /* \"contracts/storage.sol\":2089:2320  Candidate({... */\n      0x03\n      dup2\n      gt\n      iszero\n      tag_87\n      jumpi\n      tag_88\n      tag_67\n      jump\t// in\n    tag_88:\n    tag_87:\n      dup2\n      mstore\n      0x20\n      add\n        /* \"contracts/storage.sol\":2230:2245  nextCandidateId */\n      sload(0x03)\n        /* \"contracts/storage.sol\":2089:2320  Candidate({... */\n      dup2\n      mstore\n      0x20\n      add\n        /* \"contracts/storage.sol\":2277:2287  msg.sender */\n      caller\n        /* \"contracts/storage.sol\":2089:2320  Candidate({... */\n      0xffffffffffffffffffffffffffffffffffffffff\n      and\n      dup2\n      mstore\n      0x20\n      add\n        /* \"contracts/storage.sol\":2308:2309  0 */\n      0x00\n        /* \"contracts/storage.sol\":2089:2320  Candidate({... */\n      dup2\n      mstore\n      pop\n        /* \"contracts/storage.sol\":2053:2069  candidateDetails */\n      0x08\n        /* \"contracts/storage.sol\":2053:2086  candidateDetails[nextCandidateId] */\n      0x00\n        /* \"contracts/storage.sol\":2070:2085  nextCandidateId */\n      sload(0x03)\n        /* \"contracts/storage.sol\":2053:2086  candidateDetails[nextCandidateId] */\n      dup2\n      mstore\n      0x20\n      add\n      swap1\n      dup2\n      mstore\n      0x20\n      add\n      0x00\n      keccak256\n        /* \"contracts/storage.sol\":2053:2320  candidateDetails[nextCandidateId] = Candidate({... */\n      0x00\n      dup3\n      add\n      mload\n      dup2\n      0x00\n      add\n      swap1\n      dup2\n      tag_89\n      swap2\n      swap1\n      tag_69\n      jump\t// in\n    tag_89:\n      pop\n      0x20\n      dup3\n      add\n      mload\n      dup2\n      0x01\n      add\n      swap1\n      dup2\n      tag_90\n      swap2\n      swap1\n      tag_69\n      jump\t// in\n    tag_90:\n      pop\n      0x40\n      dup3\n      add\n      mload\n      dup2\n      0x02\n      add\n      sstore\n      0x60\n      dup3\n      add\n      mload\n      dup2\n      0x03\n      add\n      exp(0x0100, 0x00)\n      dup2\n      sload\n      dup2\n      0xff\n      mul\n      not\n      and\n      swap1\n      dup4\n      0x03\n      dup2\n      gt\n      iszero\n      tag_91\n      jumpi\n      tag_92\n      tag_67\n      jump\t// in\n    tag_92:\n    tag_91:\n      mul\n      or\n      swap1\n      sstore\n      pop\n      0x80\n      dup3\n      add\n      mload\n      dup2\n      0x04\n      add\n      sstore\n      0xa0\n      dup3\n      add\n      mload\n      dup2\n      0x05\n      add\n      exp(0x0100, 0x00)\n      dup2\n      sload\n      dup2\n      0xffffffffffffffffffffffffffffffffffffffff\n      mul\n      not\n      and\n      swap1\n      dup4\n      0xffffffffffffffffffffffffffffffffffffffff\n      and\n      mul\n      or\n      swap1\n      sstore\n      pop\n      0xc0\n      dup3\n      add\n      mload\n      dup2\n      0x06\n      add\n      sstore\n      swap1\n      pop\n      pop\n        /* \"contracts/storage.sol\":2330:2345  nextCandidateId */\n      0x03\n      0x00\n        /* \"contracts/storage.sol\":2330:2347  nextCandidateId++ */\n      dup2\n      sload\n      dup1\n      swap3\n      swap2\n      swap1\n      tag_93\n      swap1\n      tag_73\n      jump\t// in\n    tag_93:\n      swap2\n      swap1\n      pop\n      sstore\n      pop\n        /* \"contracts/storage.sol\":1523:2354  function registerCandidate(... */\n      pop\n      pop\n      pop\n      pop\n      pop\n      pop\n      jump\t// out\n        /* \"contracts/storage.sol\":3614:3703  function emergencyStopVoting() public onlyCommissioner {... */\n    tag_33:\n        /* \"contracts/storage.sol\":1461:1479  electionCommission */\n      0x00\n      dup1\n      sload\n      swap1\n      0x0100\n      exp\n      swap1\n      div\n      0xffffffffffffffffffffffffffffffffffffffff\n      and\n        /* \"contracts/storage.sol\":1447:1479  msg.sender == electionCommission */\n      0xffffffffffffffffffffffffffffffffffffffff\n      and\n        /* \"contracts/storage.sol\":1447:1457  msg.sender */\n      caller\n        /* \"contracts/storage.sol\":1447:1479  msg.sender == electionCommission */\n      0xffffffffffffffffffffffffffffffffffffffff\n      and\n      eq\n        /* \"contracts/storage.sol\":1439:1499  require(msg.sender == electionCommission, \"Not authuorized\") */\n      tag_95\n      jumpi\n      mload(0x40)\n      0x08c379a000000000000000000000000000000000000000000000000000000000\n      dup2\n      mstore\n      0x04\n      add\n      tag_96\n      swap1\n      tag_54\n      jump\t// in\n    tag_96:\n      mload(0x40)\n      dup1\n      swap2\n      sub\n      swap1\n      revert\n    tag_95:\n        /* \"contracts/storage.sol\":3692:3696  true */\n      0x01\n        /* \"contracts/storage.sol\":3679:3689  stopVoting */\n      0x06\n      0x00\n        /* \"contracts/storage.sol\":3679:3696  stopVoting = true */\n      0x0100\n      exp\n      dup2\n      sload\n      dup2\n      0xff\n      mul\n      not\n      and\n      swap1\n      dup4\n      iszero\n      iszero\n      mul\n      or\n      swap1\n      sstore\n      pop\n        /* \"contracts/storage.sol\":3614:3703  function emergencyStopVoting() public onlyCommissioner {... */\n      jump\t// out\n        /* \"contracts/storage.sol\":3361:3472  function setVotingPeriod(uint256 _startTime, uint256 _endTime)... */\n    tag_36:\n        /* \"contracts/storage.sol\":1461:1479  electionCommission */\n      0x00\n      dup1\n      sload\n      swap1\n      0x0100\n      exp\n      swap1\n      div\n      0xffffffffffffffffffffffffffffffffffffffff\n      and\n        /* \"contracts/storage.sol\":1447:1479  msg.sender == electionCommission */\n      0xffffffffffffffffffffffffffffffffffffffff\n      and\n        /* \"contracts/storage.sol\":1447:1457  msg.sender */\n      caller\n        /* \"contracts/storage.sol\":1447:1479  msg.sender == electionCommission */\n      0xffffffffffffffffffffffffffffffffffffffff\n      and\n      eq\n        /* \"contracts/storage.sol\":1439:1499  require(msg.sender == electionCommission, \"Not authuorized\") */\n      tag_99\n      jumpi\n      mload(0x40)\n      0x08c379a000000000000000000000000000000000000000000000000000000000\n      dup2\n      mstore\n      0x04\n      add\n      tag_100\n      swap1\n      tag_54\n      jump\t// in\n    tag_100:\n      mload(0x40)\n      dup1\n      swap2\n      sub\n      swap1\n      revert\n    tag_99:\n        /* \"contracts/storage.sol\":3361:3472  function setVotingPeriod(uint256 _startTime, uint256 _endTime)... */\n      pop\n      pop\n      jump\t// out\n        /* \"contracts/storage.sol\":3226:3289  function getVoterList() public view returns (Voter[] memory) {} */\n    tag_38:\n        /* \"contracts/storage.sol\":3271:3285  Voter[] memory */\n      0x60\n        /* \"contracts/storage.sol\":3226:3289  function getVoterList() public view returns (Voter[] memory) {} */\n      swap1\n      jump\t// out\n        /* \"contracts/storage.sol\":648:669  address public winner */\n    tag_42:\n      0x01\n      0x00\n      swap1\n      sload\n      swap1\n      0x0100\n      exp\n      swap1\n      div\n      0xffffffffffffffffffffffffffffffffffffffff\n      and\n      dup2\n      jump\t// out\n        /* \"contracts/storage.sol\":2476:2547  function getCandidateList() public view returns (Candidate[] memory) {} */\n    tag_46:\n        /* \"contracts/storage.sol\":2525:2543  Candidate[] memory */\n      0x60\n        /* \"contracts/storage.sol\":2476:2547  function getCandidateList() public view returns (Candidate[] memory) {} */\n      swap1\n      jump\t// out\n        /* \"contracts/storage.sol\":2553:2659  function isVoterNotRegistered(address _person)... */\n    tag_61:\n        /* \"contracts/storage.sol\":2647:2651  bool */\n      0x00\n        /* \"contracts/storage.sol\":2553:2659  function isVoterNotRegistered(address _person)... */\n      swap2\n      swap1\n      pop\n      jump\t// out\n        /* \"contracts/storage.sol\":2360:2470  function isCandidateNotRegistered(address _person)... */\n    tag_78:\n        /* \"contracts/storage.sol\":2458:2462  bool */\n      0x00\n        /* \"contracts/storage.sol\":2360:2470  function isCandidateNotRegistered(address _person)... */\n      swap2\n      swap1\n      pop\n      jump\t// out\n        /* \"#utility.yul\":88:205   */\n    tag_107:\n        /* \"#utility.yul\":197:198   */\n      0x00\n        /* \"#utility.yul\":194:195   */\n      dup1\n        /* \"#utility.yul\":187:199   */\n      revert\n        /* \"#utility.yul\":211:328   */\n    tag_108:\n        /* \"#utility.yul\":320:321   */\n      0x00\n        /* \"#utility.yul\":317:318   */\n      dup1\n        /* \"#utility.yul\":310:322   */\n      revert\n        /* \"#utility.yul\":334:411   */\n    tag_109:\n        /* \"#utility.yul\":371:378   */\n      0x00\n        /* \"#utility.yul\":400:405   */\n      dup2\n        /* \"#utility.yul\":389:405   */\n      swap1\n      pop\n        /* \"#utility.yul\":334:411   */\n      swap2\n      swap1\n      pop\n      jump\t// out\n        /* \"#utility.yul\":417:539   */\n    tag_110:\n        /* \"#utility.yul\":490:514   */\n      tag_186\n        /* \"#utility.yul\":508:513   */\n      dup2\n        /* \"#utility.yul\":490:514   */\n      tag_109\n      jump\t// in\n    tag_186:\n        /* \"#utility.yul\":483:488   */\n      dup2\n        /* \"#utility.yul\":480:515   */\n      eq\n        /* \"#utility.yul\":470:533   */\n      tag_187\n      jumpi\n        /* \"#utility.yul\":529:530   */\n      0x00\n        /* \"#utility.yul\":526:527   */\n      dup1\n        /* \"#utility.yul\":519:531   */\n      revert\n        /* \"#utility.yul\":470:533   */\n    tag_187:\n        /* \"#utility.yul\":417:539   */\n      pop\n      jump\t// out\n        /* \"#utility.yul\":545:684   */\n    tag_111:\n        /* \"#utility.yul\":591:596   */\n      0x00\n        /* \"#utility.yul\":629:635   */\n      dup2\n        /* \"#utility.yul\":616:636   */\n      calldataload\n        /* \"#utility.yul\":607:636   */\n      swap1\n      pop\n        /* \"#utility.yul\":645:678   */\n      tag_189\n        /* \"#utility.yul\":672:677   */\n      dup2\n        /* \"#utility.yul\":645:678   */\n      tag_110\n      jump\t// in\n    tag_189:\n        /* \"#utility.yul\":545:684   */\n      swap3\n      swap2\n      pop\n      pop\n      jump\t// out\n        /* \"#utility.yul\":690:1164   */\n    tag_16:\n        /* \"#utility.yul\":758:764   */\n      0x00\n        /* \"#utility.yul\":766:772   */\n      dup1\n        /* \"#utility.yul\":815:817   */\n      0x40\n        /* \"#utility.yul\":803:812   */\n      dup4\n        /* \"#utility.yul\":794:801   */\n      dup6\n        /* \"#utility.yul\":790:813   */\n      sub\n        /* \"#utility.yul\":786:818   */\n      slt\n        /* \"#utility.yul\":783:902   */\n      iszero\n      tag_191\n      jumpi\n        /* \"#utility.yul\":821:900   */\n      tag_192\n      tag_107\n      jump\t// in\n    tag_192:\n        /* \"#utility.yul\":783:902   */\n    tag_191:\n        /* \"#utility.yul\":941:942   */\n      0x00\n        /* \"#utility.yul\":966:1019   */\n      tag_193\n        /* \"#utility.yul\":1011:1018   */\n      dup6\n        /* \"#utility.yul\":1002:1008   */\n      dup3\n        /* \"#utility.yul\":991:1000   */\n      dup7\n        /* \"#utility.yul\":987:1009   */\n      add\n        /* \"#utility.yul\":966:1019   */\n      tag_111\n      jump\t// in\n    tag_193:\n        /* \"#utility.yul\":956:1019   */\n      swap3\n      pop\n        /* \"#utility.yul\":912:1029   */\n      pop\n        /* \"#utility.yul\":1068:1070   */\n      0x20\n        /* \"#utility.yul\":1094:1147   */\n      tag_194\n        /* \"#utility.yul\":1139:1146   */\n      dup6\n        /* \"#utility.yul\":1130:1136   */\n      dup3\n        /* \"#utility.yul\":1119:1128   */\n      dup7\n        /* \"#utility.yul\":1115:1137   */\n      add\n        /* \"#utility.yul\":1094:1147   */\n      tag_111\n      jump\t// in\n    tag_194:\n        /* \"#utility.yul\":1084:1147   */\n      swap2\n      pop\n        /* \"#utility.yul\":1039:1157   */\n      pop\n        /* \"#utility.yul\":690:1164   */\n      swap3\n      pop\n      swap3\n      swap1\n      pop\n      jump\t// out\n        /* \"#utility.yul\":1170:1350   */\n    tag_67:\n        /* \"#utility.yul\":1218:1295   */\n      0x4e487b7100000000000000000000000000000000000000000000000000000000\n        /* \"#utility.yul\":1215:1216   */\n      0x00\n        /* \"#utility.yul\":1208:1296   */\n      mstore\n        /* \"#utility.yul\":1315:1319   */\n      0x21\n        /* \"#utility.yul\":1312:1313   */\n      0x04\n        /* \"#utility.yul\":1305:1320   */\n      mstore\n        /* \"#utility.yul\":1339:1343   */\n      0x24\n        /* \"#utility.yul\":1336:1337   */\n      0x00\n        /* \"#utility.yul\":1329:1344   */\n      revert\n        /* \"#utility.yul\":1356:1476   */\n    tag_112:\n        /* \"#utility.yul\":1444:1445   */\n      0x03\n        /* \"#utility.yul\":1437:1442   */\n      dup2\n        /* \"#utility.yul\":1434:1446   */\n      lt\n        /* \"#utility.yul\":1424:1470   */\n      tag_197\n      jumpi\n        /* \"#utility.yul\":1450:1468   */\n      tag_198\n      tag_67\n      jump\t// in\n    tag_198:\n        /* \"#utility.yul\":1424:1470   */\n    tag_197:\n        /* \"#utility.yul\":1356:1476   */\n      pop\n      jump\t// out\n        /* \"#utility.yul\":1482:1623   */\n    tag_113:\n        /* \"#utility.yul\":1534:1541   */\n      0x00\n        /* \"#utility.yul\":1563:1568   */\n      dup2\n        /* \"#utility.yul\":1552:1568   */\n      swap1\n      pop\n        /* \"#utility.yul\":1569:1617   */\n      tag_200\n        /* \"#utility.yul\":1611:1616   */\n      dup3\n        /* \"#utility.yul\":1569:1617   */\n      tag_112\n      jump\t// in\n    tag_200:\n        /* \"#utility.yul\":1482:1623   */\n      swap2\n      swap1\n      pop\n      jump\t// out\n        /* \"#utility.yul\":1629:1770   */\n    tag_114:\n        /* \"#utility.yul\":1692:1701   */\n      0x00\n        /* \"#utility.yul\":1725:1764   */\n      tag_202\n        /* \"#utility.yul\":1758:1763   */\n      dup3\n        /* \"#utility.yul\":1725:1764   */\n      tag_113\n      jump\t// in\n    tag_202:\n        /* \"#utility.yul\":1712:1764   */\n      swap1\n      pop\n        /* \"#utility.yul\":1629:1770   */\n      swap2\n      swap1\n      pop\n      jump\t// out\n        /* \"#utility.yul\":1776:1933   */\n    tag_115:\n        /* \"#utility.yul\":1876:1926   */\n      tag_204\n        /* \"#utility.yul\":1920:1925   */\n      dup2\n        /* \"#utility.yul\":1876:1926   */\n      tag_114\n      jump\t// in\n    tag_204:\n        /* \"#utility.yul\":1871:1874   */\n      dup3\n        /* \"#utility.yul\":1864:1927   */\n      mstore\n        /* \"#utility.yul\":1776:1933   */\n      pop\n      pop\n      jump\t// out\n        /* \"#utility.yul\":1939:2187   */\n    tag_21:\n        /* \"#utility.yul\":2045:2049   */\n      0x00\n        /* \"#utility.yul\":2083:2085   */\n      0x20\n        /* \"#utility.yul\":2072:2081   */\n      dup3\n        /* \"#utility.yul\":2068:2086   */\n      add\n        /* \"#utility.yul\":2060:2086   */\n      swap1\n      pop\n        /* \"#utility.yul\":2096:2180   */\n      tag_206\n        /* \"#utility.yul\":2177:2178   */\n      0x00\n        /* \"#utility.yul\":2166:2175   */\n      dup4\n        /* \"#utility.yul\":2162:2179   */\n      add\n        /* \"#utility.yul\":2153:2159   */\n      dup5\n        /* \"#utility.yul\":2096:2180   */\n      tag_115\n      jump\t// in\n    tag_206:\n        /* \"#utility.yul\":1939:2187   */\n      swap3\n      swap2\n      pop\n      pop\n      jump\t// out\n        /* \"#utility.yul\":2193:2310   */\n    tag_116:\n        /* \"#utility.yul\":2302:2303   */\n      0x00\n        /* \"#utility.yul\":2299:2300   */\n      dup1\n        /* \"#utility.yul\":2292:2304   */\n      revert\n        /* \"#utility.yul\":2316:2433   */\n    tag_117:\n        /* \"#utility.yul\":2425:2426   */\n      0x00\n        /* \"#utility.yul\":2422:2423   */\n      dup1\n        /* \"#utility.yul\":2415:2427   */\n      revert\n        /* \"#utility.yul\":2439:2556   */\n    tag_118:\n        /* \"#utility.yul\":2548:2549   */\n      0x00\n        /* \"#utility.yul\":2545:2546   */\n      dup1\n        /* \"#utility.yul\":2538:2550   */\n      revert\n        /* \"#utility.yul\":2576:3129   */\n    tag_119:\n        /* \"#utility.yul\":2634:2642   */\n      0x00\n        /* \"#utility.yul\":2644:2650   */\n      dup1\n        /* \"#utility.yul\":2694:2697   */\n      dup4\n        /* \"#utility.yul\":2687:2691   */\n      0x1f\n        /* \"#utility.yul\":2679:2685   */\n      dup5\n        /* \"#utility.yul\":2675:2692   */\n      add\n        /* \"#utility.yul\":2671:2698   */\n      slt\n        /* \"#utility.yul\":2661:2783   */\n      tag_211\n      jumpi\n        /* \"#utility.yul\":2702:2781   */\n      tag_212\n      tag_116\n      jump\t// in\n    tag_212:\n        /* \"#utility.yul\":2661:2783   */\n    tag_211:\n        /* \"#utility.yul\":2815:2821   */\n      dup3\n        /* \"#utility.yul\":2802:2822   */\n      calldataload\n        /* \"#utility.yul\":2792:2822   */\n      swap1\n      pop\n        /* \"#utility.yul\":2845:2863   */\n      0xffffffffffffffff\n        /* \"#utility.yul\":2837:2843   */\n      dup2\n        /* \"#utility.yul\":2834:2864   */\n      gt\n        /* \"#utility.yul\":2831:2948   */\n      iszero\n      tag_213\n      jumpi\n        /* \"#utility.yul\":2867:2946   */\n      tag_214\n      tag_117\n      jump\t// in\n    tag_214:\n        /* \"#utility.yul\":2831:2948   */\n    tag_213:\n        /* \"#utility.yul\":2981:2985   */\n      0x20\n        /* \"#utility.yul\":2973:2979   */\n      dup4\n        /* \"#utility.yul\":2969:2986   */\n      add\n        /* \"#utility.yul\":2957:2986   */\n      swap2\n      pop\n        /* \"#utility.yul\":3035:3038   */\n      dup4\n        /* \"#utility.yul\":3027:3031   */\n      0x01\n        /* \"#utility.yul\":3019:3025   */\n      dup3\n        /* \"#utility.yul\":3015:3032   */\n      mul\n        /* \"#utility.yul\":3005:3013   */\n      dup4\n        /* \"#utility.yul\":3001:3033   */\n      add\n        /* \"#utility.yul\":2998:3039   */\n      gt\n        /* \"#utility.yul\":2995:3123   */\n      iszero\n      tag_215\n      jumpi\n        /* \"#utility.yul\":3042:3121   */\n      tag_216\n      tag_118\n      jump\t// in\n    tag_216:\n        /* \"#utility.yul\":2995:3123   */\n    tag_215:\n        /* \"#utility.yul\":2576:3129   */\n      swap3\n      pop\n      swap3\n      swap1\n      pop\n      jump\t// out\n        /* \"#utility.yul\":3135:3243   */\n    tag_120:\n        /* \"#utility.yul\":3217:3218   */\n      0x04\n        /* \"#utility.yul\":3210:3215   */\n      dup2\n        /* \"#utility.yul\":3207:3219   */\n      lt\n        /* \"#utility.yul\":3197:3237   */\n      tag_218\n      jumpi\n        /* \"#utility.yul\":3233:3234   */\n      0x00\n        /* \"#utility.yul\":3230:3231   */\n      dup1\n        /* \"#utility.yul\":3223:3235   */\n      revert\n        /* \"#utility.yul\":3197:3237   */\n    tag_218:\n        /* \"#utility.yul\":3135:3243   */\n      pop\n      jump\t// out\n        /* \"#utility.yul\":3249:3406   */\n    tag_121:\n        /* \"#utility.yul\":3304:3309   */\n      0x00\n        /* \"#utility.yul\":3342:3348   */\n      dup2\n        /* \"#utility.yul\":3329:3349   */\n      calldataload\n        /* \"#utility.yul\":3320:3349   */\n      swap1\n      pop\n        /* \"#utility.yul\":3358:3400   */\n      tag_220\n        /* \"#utility.yul\":3394:3399   */\n      dup2\n        /* \"#utility.yul\":3358:3400   */\n      tag_120\n      jump\t// in\n    tag_220:\n        /* \"#utility.yul\":3249:3406   */\n      swap3\n      swap2\n      pop\n      pop\n      jump\t// out\n        /* \"#utility.yul\":3412:4249   */\n    tag_26:\n        /* \"#utility.yul\":3510:3516   */\n      0x00\n        /* \"#utility.yul\":3518:3524   */\n      dup1\n        /* \"#utility.yul\":3526:3532   */\n      0x00\n        /* \"#utility.yul\":3534:3540   */\n      dup1\n        /* \"#utility.yul\":3583:3585   */\n      0x60\n        /* \"#utility.yul\":3571:3580   */\n      dup6\n        /* \"#utility.yul\":3562:3569   */\n      dup8\n        /* \"#utility.yul\":3558:3581   */\n      sub\n        /* \"#utility.yul\":3554:3586   */\n      slt\n        /* \"#utility.yul\":3551:3670   */\n      iszero\n      tag_222\n      jumpi\n        /* \"#utility.yul\":3589:3668   */\n      tag_223\n      tag_107\n      jump\t// in\n    tag_223:\n        /* \"#utility.yul\":3551:3670   */\n    tag_222:\n        /* \"#utility.yul\":3737:3738   */\n      0x00\n        /* \"#utility.yul\":3726:3735   */\n      dup6\n        /* \"#utility.yul\":3722:3739   */\n      add\n        /* \"#utility.yul\":3709:3740   */\n      calldataload\n        /* \"#utility.yul\":3767:3785   */\n      0xffffffffffffffff\n        /* \"#utility.yul\":3759:3765   */\n      dup2\n        /* \"#utility.yul\":3756:3786   */\n      gt\n        /* \"#utility.yul\":3753:3870   */\n      iszero\n      tag_224\n      jumpi\n        /* \"#utility.yul\":3789:3868   */\n      tag_225\n      tag_108\n      jump\t// in\n    tag_225:\n        /* \"#utility.yul\":3753:3870   */\n    tag_224:\n        /* \"#utility.yul\":3902:3967   */\n      tag_226\n        /* \"#utility.yul\":3959:3966   */\n      dup8\n        /* \"#utility.yul\":3950:3956   */\n      dup3\n        /* \"#utility.yul\":3939:3948   */\n      dup9\n        /* \"#utility.yul\":3935:3957   */\n      add\n        /* \"#utility.yul\":3902:3967   */\n      tag_119\n      jump\t// in\n    tag_226:\n        /* \"#utility.yul\":3884:3967   */\n      swap5\n      pop\n      swap5\n      pop\n        /* \"#utility.yul\":3680:3977   */\n      pop\n        /* \"#utility.yul\":4016:4018   */\n      0x20\n        /* \"#utility.yul\":4042:4095   */\n      tag_227\n        /* \"#utility.yul\":4087:4094   */\n      dup8\n        /* \"#utility.yul\":4078:4084   */\n      dup3\n        /* \"#utility.yul\":4067:4076   */\n      dup9\n        /* \"#utility.yul\":4063:4085   */\n      add\n        /* \"#utility.yul\":4042:4095   */\n      tag_111\n      jump\t// in\n    tag_227:\n        /* \"#utility.yul\":4032:4095   */\n      swap3\n      pop\n        /* \"#utility.yul\":3987:4105   */\n      pop\n        /* \"#utility.yul\":4144:4146   */\n      0x40\n        /* \"#utility.yul\":4170:4232   */\n      tag_228\n        /* \"#utility.yul\":4224:4231   */\n      dup8\n        /* \"#utility.yul\":4215:4221   */\n      dup3\n        /* \"#utility.yul\":4204:4213   */\n      dup9\n        /* \"#utility.yul\":4200:4222   */\n      add\n        /* \"#utility.yul\":4170:4232   */\n      tag_121\n      jump\t// in\n    tag_228:\n        /* \"#utility.yul\":4160:4232   */\n      swap2\n      pop\n        /* \"#utility.yul\":4115:4242   */\n      pop\n        /* \"#utility.yul\":3412:4249   */\n      swap3\n      swap6\n      swap2\n      swap5\n      pop\n      swap3\n      pop\n      jump\t// out\n        /* \"#utility.yul\":4255:5438   */\n    tag_30:\n        /* \"#utility.yul\":4374:4380   */\n      0x00\n        /* \"#utility.yul\":4382:4388   */\n      dup1\n        /* \"#utility.yul\":4390:4396   */\n      0x00\n        /* \"#utility.yul\":4398:4404   */\n      dup1\n        /* \"#utility.yul\":4406:4412   */\n      0x00\n        /* \"#utility.yul\":4414:4420   */\n      dup1\n        /* \"#utility.yul\":4463:4466   */\n      0x80\n        /* \"#utility.yul\":4451:4460   */\n      dup8\n        /* \"#utility.yul\":4442:4449   */\n      dup10\n        /* \"#utility.yul\":4438:4461   */\n      sub\n        /* \"#utility.yul\":4434:4467   */\n      slt\n        /* \"#utility.yul\":4431:4551   */\n      iszero\n      tag_230\n      jumpi\n        /* \"#utility.yul\":4470:4549   */\n      tag_231\n      tag_107\n      jump\t// in\n    tag_231:\n        /* \"#utility.yul\":4431:4551   */\n    tag_230:\n        /* \"#utility.yul\":4618:4619   */\n      0x00\n        /* \"#utility.yul\":4607:4616   */\n      dup8\n        /* \"#utility.yul\":4603:4620   */\n      add\n        /* \"#utility.yul\":4590:4621   */\n      calldataload\n        /* \"#utility.yul\":4648:4666   */\n      0xffffffffffffffff\n        /* \"#utility.yul\":4640:4646   */\n      dup2\n        /* \"#utility.yul\":4637:4667   */\n      gt\n        /* \"#utility.yul\":4634:4751   */\n      iszero\n      tag_232\n      jumpi\n        /* \"#utility.yul\":4670:4749   */\n      tag_233\n      tag_108\n      jump\t// in\n    tag_233:\n        /* \"#utility.yul\":4634:4751   */\n    tag_232:\n        /* \"#utility.yul\":4783:4848   */\n      tag_234\n        /* \"#utility.yul\":4840:4847   */\n      dup10\n        /* \"#utility.yul\":4831:4837   */\n      dup3\n        /* \"#utility.yul\":4820:4829   */\n      dup11\n        /* \"#utility.yul\":4816:4838   */\n      add\n        /* \"#utility.yul\":4783:4848   */\n      tag_119\n      jump\t// in\n    tag_234:\n        /* \"#utility.yul\":4765:4848   */\n      swap7\n      pop\n      swap7\n      pop\n        /* \"#utility.yul\":4561:4858   */\n      pop\n        /* \"#utility.yul\":4925:4927   */\n      0x20\n        /* \"#utility.yul\":4914:4923   */\n      dup8\n        /* \"#utility.yul\":4910:4928   */\n      add\n        /* \"#utility.yul\":4897:4929   */\n      calldataload\n        /* \"#utility.yul\":4956:4974   */\n      0xffffffffffffffff\n        /* \"#utility.yul\":4948:4954   */\n      dup2\n        /* \"#utility.yul\":4945:4975   */\n      gt\n        /* \"#utility.yul\":4942:5059   */\n      iszero\n      tag_235\n      jumpi\n        /* \"#utility.yul\":4978:5057   */\n      tag_236\n      tag_108\n      jump\t// in\n    tag_236:\n        /* \"#utility.yul\":4942:5059   */\n    tag_235:\n        /* \"#utility.yul\":5091:5156   */\n      tag_237\n        /* \"#utility.yul\":5148:5155   */\n      dup10\n        /* \"#utility.yul\":5139:5145   */\n      dup3\n        /* \"#utility.yul\":5128:5137   */\n      dup11\n        /* \"#utility.yul\":5124:5146   */\n      add\n        /* \"#utility.yul\":5091:5156   */\n      tag_119\n      jump\t// in\n    tag_237:\n        /* \"#utility.yul\":5073:5156   */\n      swap5\n      pop\n      swap5\n      pop\n        /* \"#utility.yul\":4868:5166   */\n      pop\n        /* \"#utility.yul\":5205:5207   */\n      0x40\n        /* \"#utility.yul\":5231:5284   */\n      tag_238\n        /* \"#utility.yul\":5276:5283   */\n      dup10\n        /* \"#utility.yul\":5267:5273   */\n      dup3\n        /* \"#utility.yul\":5256:5265   */\n      dup11\n        /* \"#utility.yul\":5252:5274   */\n      add\n        /* \"#utility.yul\":5231:5284   */\n      tag_111\n      jump\t// in\n    tag_238:\n        /* \"#utility.yul\":5221:5284   */\n      swap3\n      pop\n        /* \"#utility.yul\":5176:5294   */\n      pop\n        /* \"#utility.yul\":5333:5335   */\n      0x60\n        /* \"#utility.yul\":5359:5421   */\n      tag_239\n        /* \"#utility.yul\":5413:5420   */\n      dup10\n        /* \"#utility.yul\":5404:5410   */\n      dup3\n        /* \"#utility.yul\":5393:5402   */\n      dup11\n        /* \"#utility.yul\":5389:5411   */\n      add\n        /* \"#utility.yul\":5359:5421   */\n      tag_121\n      jump\t// in\n    tag_239:\n        /* \"#utility.yul\":5349:5421   */\n      swap2\n      pop\n        /* \"#utility.yul\":5304:5431   */\n      pop\n        /* \"#utility.yul\":4255:5438   */\n      swap3\n      swap6\n      pop\n      swap3\n      swap6\n      pop\n      swap3\n      swap6\n      jump\t// out\n        /* \"#utility.yul\":5444:5579   */\n    tag_122:\n        /* \"#utility.yul\":5532:5538   */\n      0x00\n        /* \"#utility.yul\":5566:5571   */\n      dup2\n        /* \"#utility.yul\":5560:5572   */\n      mload\n        /* \"#utility.yul\":5550:5572   */\n      swap1\n      pop\n        /* \"#utility.yul\":5444:5579   */\n      swap2\n      swap1\n      pop\n      jump\t// out\n        /* \"#utility.yul\":5585:5790   */\n    tag_123:\n        /* \"#utility.yul\":5705:5716   */\n      0x00\n        /* \"#utility.yul\":5739:5745   */\n      dup3\n        /* \"#utility.yul\":5734:5737   */\n      dup3\n        /* \"#utility.yul\":5727:5746   */\n      mstore\n        /* \"#utility.yul\":5779:5783   */\n      0x20\n        /* \"#utility.yul\":5774:5777   */\n      dup3\n        /* \"#utility.yul\":5770:5784   */\n      add\n        /* \"#utility.yul\":5755:5784   */\n      swap1\n      pop\n        /* \"#utility.yul\":5585:5790   */\n      swap3\n      swap2\n      pop\n      pop\n      jump\t// out\n        /* \"#utility.yul\":5796:5949   */\n    tag_124:\n        /* \"#utility.yul\":5884:5888   */\n      0x00\n        /* \"#utility.yul\":5907:5910   */\n      dup2\n        /* \"#utility.yul\":5899:5910   */\n      swap1\n      pop\n        /* \"#utility.yul\":5937:5941   */\n      0x20\n        /* \"#utility.yul\":5932:5935   */\n      dup3\n        /* \"#utility.yul\":5928:5942   */\n      add\n        /* \"#utility.yul\":5920:5942   */\n      swap1\n      pop\n        /* \"#utility.yul\":5796:5949   */\n      swap2\n      swap1\n      pop\n      jump\t// out\n        /* \"#utility.yul\":5955:6054   */\n    tag_125:\n        /* \"#utility.yul\":6007:6013   */\n      0x00\n        /* \"#utility.yul\":6041:6046   */\n      dup2\n        /* \"#utility.yul\":6035:6047   */\n      mload\n        /* \"#utility.yul\":6025:6047   */\n      swap1\n      pop\n        /* \"#utility.yul\":5955:6054   */\n      swap2\n      swap1\n      pop\n      jump\t// out\n        /* \"#utility.yul\":6060:6219   */\n    tag_126:\n        /* \"#utility.yul\":6134:6145   */\n      0x00\n        /* \"#utility.yul\":6168:6174   */\n      dup3\n        /* \"#utility.yul\":6163:6166   */\n      dup3\n        /* \"#utility.yul\":6156:6175   */\n      mstore\n        /* \"#utility.yul\":6208:6212   */\n      0x20\n        /* \"#utility.yul\":6203:6206   */\n      dup3\n        /* \"#utility.yul\":6199:6213   */\n      add\n        /* \"#utility.yul\":6184:6213   */\n      swap1\n      pop\n        /* \"#utility.yul\":6060:6219   */\n      swap3\n      swap2\n      pop\n      pop\n      jump\t// out\n        /* \"#utility.yul\":6225:6364   */\n    tag_127:\n        /* \"#utility.yul\":6314:6320   */\n      dup3\n        /* \"#utility.yul\":6309:6312   */\n      dup2\n        /* \"#utility.yul\":6304:6307   */\n      dup4\n        /* \"#utility.yul\":6298:6321   */\n      mcopy\n        /* \"#utility.yul\":6355:6356   */\n      0x00\n        /* \"#utility.yul\":6346:6352   */\n      dup4\n        /* \"#utility.yul\":6341:6344   */\n      dup4\n        /* \"#utility.yul\":6337:6353   */\n      add\n        /* \"#utility.yul\":6330:6357   */\n      mstore\n        /* \"#utility.yul\":6225:6364   */\n      pop\n      pop\n      pop\n      jump\t// out\n        /* \"#utility.yul\":6370:6472   */\n    tag_128:\n        /* \"#utility.yul\":6411:6417   */\n      0x00\n        /* \"#utility.yul\":6462:6464   */\n      0x1f\n        /* \"#utility.yul\":6458:6465   */\n      not\n        /* \"#utility.yul\":6453:6455   */\n      0x1f\n        /* \"#utility.yul\":6446:6451   */\n      dup4\n        /* \"#utility.yul\":6442:6456   */\n      add\n        /* \"#utility.yul\":6438:6466   */\n      and\n        /* \"#utility.yul\":6428:6466   */\n      swap1\n      pop\n        /* \"#utility.yul\":6370:6472   */\n      swap2\n      swap1\n      pop\n      jump\t// out\n        /* \"#utility.yul\":6478:6835   */\n    tag_129:\n        /* \"#utility.yul\":6556:6559   */\n      0x00\n        /* \"#utility.yul\":6584:6623   */\n      tag_248\n        /* \"#utility.yul\":6617:6622   */\n      dup3\n        /* \"#utility.yul\":6584:6623   */\n      tag_125\n      jump\t// in\n    tag_248:\n        /* \"#utility.yul\":6639:6700   */\n      tag_249\n        /* \"#utility.yul\":6693:6699   */\n      dup2\n        /* \"#utility.yul\":6688:6691   */\n      dup6\n        /* \"#utility.yul\":6639:6700   */\n      tag_126\n      jump\t// in\n    tag_249:\n        /* \"#utility.yul\":6632:6700   */\n      swap4\n      pop\n        /* \"#utility.yul\":6709:6774   */\n      tag_250\n        /* \"#utility.yul\":6767:6773   */\n      dup2\n        /* \"#utility.yul\":6762:6765   */\n      dup6\n        /* \"#utility.yul\":6755:6759   */\n      0x20\n        /* \"#utility.yul\":6748:6753   */\n      dup7\n        /* \"#utility.yul\":6744:6760   */\n      add\n        /* \"#utility.yul\":6709:6774   */\n      tag_127\n      jump\t// in\n    tag_250:\n        /* \"#utility.yul\":6799:6828   */\n      tag_251\n        /* \"#utility.yul\":6821:6827   */\n      dup2\n        /* \"#utility.yul\":6799:6828   */\n      tag_128\n      jump\t// in\n    tag_251:\n        /* \"#utility.yul\":6794:6797   */\n      dup5\n        /* \"#utility.yul\":6790:6829   */\n      add\n        /* \"#utility.yul\":6783:6829   */\n      swap2\n      pop\n        /* \"#utility.yul\":6560:6835   */\n      pop\n        /* \"#utility.yul\":6478:6835   */\n      swap3\n      swap2\n      pop\n      pop\n      jump\t// out\n        /* \"#utility.yul\":6841:6949   */\n    tag_130:\n        /* \"#utility.yul\":6918:6942   */\n      tag_253\n        /* \"#utility.yul\":6936:6941   */\n      dup2\n        /* \"#utility.yul\":6918:6942   */\n      tag_109\n      jump\t// in\n    tag_253:\n        /* \"#utility.yul\":6913:6916   */\n      dup3\n        /* \"#utility.yul\":6906:6943   */\n      mstore\n        /* \"#utility.yul\":6841:6949   */\n      pop\n      pop\n      jump\t// out\n        /* \"#utility.yul\":6955:7069   */\n    tag_131:\n        /* \"#utility.yul\":7037:7038   */\n      0x04\n        /* \"#utility.yul\":7030:7035   */\n      dup2\n        /* \"#utility.yul\":7027:7039   */\n      lt\n        /* \"#utility.yul\":7017:7063   */\n      tag_255\n      jumpi\n        /* \"#utility.yul\":7043:7061   */\n      tag_256\n      tag_67\n      jump\t// in\n    tag_256:\n        /* \"#utility.yul\":7017:7063   */\n    tag_255:\n        /* \"#utility.yul\":6955:7069   */\n      pop\n      jump\t// out\n        /* \"#utility.yul\":7075:7204   */\n    tag_132:\n        /* \"#utility.yul\":7121:7128   */\n      0x00\n        /* \"#utility.yul\":7150:7155   */\n      dup2\n        /* \"#utility.yul\":7139:7155   */\n      swap1\n      pop\n        /* \"#utility.yul\":7156:7198   */\n      tag_258\n        /* \"#utility.yul\":7192:7197   */\n      dup3\n        /* \"#utility.yul\":7156:7198   */\n      tag_131\n      jump\t// in\n    tag_258:\n        /* \"#utility.yul\":7075:7204   */\n      swap2\n      swap1\n      pop\n      jump\t// out\n        /* \"#utility.yul\":7210:7339   */\n    tag_133:\n        /* \"#utility.yul\":7267:7276   */\n      0x00\n        /* \"#utility.yul\":7300:7333   */\n      tag_260\n        /* \"#utility.yul\":7327:7332   */\n      dup3\n        /* \"#utility.yul\":7300:7333   */\n      tag_132\n      jump\t// in\n    tag_260:\n        /* \"#utility.yul\":7287:7333   */\n      swap1\n      pop\n        /* \"#utility.yul\":7210:7339   */\n      swap2\n      swap1\n      pop\n      jump\t// out\n        /* \"#utility.yul\":7345:7480   */\n    tag_134:\n        /* \"#utility.yul\":7429:7473   */\n      tag_262\n        /* \"#utility.yul\":7467:7472   */\n      dup2\n        /* \"#utility.yul\":7429:7473   */\n      tag_133\n      jump\t// in\n    tag_262:\n        /* \"#utility.yul\":7424:7427   */\n      dup3\n        /* \"#utility.yul\":7417:7474   */\n      mstore\n        /* \"#utility.yul\":7345:7480   */\n      pop\n      pop\n      jump\t// out\n        /* \"#utility.yul\":7486:7612   */\n    tag_135:\n        /* \"#utility.yul\":7523:7530   */\n      0x00\n        /* \"#utility.yul\":7563:7605   */\n      0xffffffffffffffffffffffffffffffffffffffff\n        /* \"#utility.yul\":7556:7561   */\n      dup3\n        /* \"#utility.yul\":7552:7606   */\n      and\n        /* \"#utility.yul\":7541:7606   */\n      swap1\n      pop\n        /* \"#utility.yul\":7486:7612   */\n      swap2\n      swap1\n      pop\n      jump\t// out\n        /* \"#utility.yul\":7618:7714   */\n    tag_136:\n        /* \"#utility.yul\":7655:7662   */\n      0x00\n        /* \"#utility.yul\":7684:7708   */\n      tag_265\n        /* \"#utility.yul\":7702:7707   */\n      dup3\n        /* \"#utility.yul\":7684:7708   */\n      tag_135\n      jump\t// in\n    tag_265:\n        /* \"#utility.yul\":7673:7708   */\n      swap1\n      pop\n        /* \"#utility.yul\":7618:7714   */\n      swap2\n      swap1\n      pop\n      jump\t// out\n        /* \"#utility.yul\":7720:7828   */\n    tag_137:\n        /* \"#utility.yul\":7797:7821   */\n      tag_267\n        /* \"#utility.yul\":7815:7820   */\n      dup2\n        /* \"#utility.yul\":7797:7821   */\n      tag_136\n      jump\t// in\n    tag_267:\n        /* \"#utility.yul\":7792:7795   */\n      dup3\n        /* \"#utility.yul\":7785:7822   */\n      mstore\n        /* \"#utility.yul\":7720:7828   */\n      pop\n      pop\n      jump\t// out\n        /* \"#utility.yul\":7880:9194   */\n    tag_138:\n        /* \"#utility.yul\":7981:7984   */\n      0x00\n        /* \"#utility.yul\":8017:8021   */\n      0xc0\n        /* \"#utility.yul\":8012:8015   */\n      dup4\n        /* \"#utility.yul\":8008:8022   */\n      add\n        /* \"#utility.yul\":8104:8108   */\n      0x00\n        /* \"#utility.yul\":8097:8102   */\n      dup4\n        /* \"#utility.yul\":8093:8109   */\n      add\n        /* \"#utility.yul\":8087:8110   */\n      mload\n        /* \"#utility.yul\":8157:8160   */\n      dup5\n        /* \"#utility.yul\":8151:8155   */\n      dup3\n        /* \"#utility.yul\":8147:8161   */\n      sub\n        /* \"#utility.yul\":8140:8144   */\n      0x00\n        /* \"#utility.yul\":8135:8138   */\n      dup7\n        /* \"#utility.yul\":8131:8145   */\n      add\n        /* \"#utility.yul\":8124:8162   */\n      mstore\n        /* \"#utility.yul\":8183:8256   */\n      tag_269\n        /* \"#utility.yul\":8251:8255   */\n      dup3\n        /* \"#utility.yul\":8237:8249   */\n      dup3\n        /* \"#utility.yul\":8183:8256   */\n      tag_129\n      jump\t// in\n    tag_269:\n        /* \"#utility.yul\":8175:8256   */\n      swap2\n      pop\n        /* \"#utility.yul\":8032:8267   */\n      pop\n        /* \"#utility.yul\":8348:8352   */\n      0x20\n        /* \"#utility.yul\":8341:8346   */\n      dup4\n        /* \"#utility.yul\":8337:8353   */\n      add\n        /* \"#utility.yul\":8331:8354   */\n      mload\n        /* \"#utility.yul\":8367:8430   */\n      tag_270\n        /* \"#utility.yul\":8424:8428   */\n      0x20\n        /* \"#utility.yul\":8419:8422   */\n      dup7\n        /* \"#utility.yul\":8415:8429   */\n      add\n        /* \"#utility.yul\":8401:8413   */\n      dup3\n        /* \"#utility.yul\":8367:8430   */\n      tag_130\n      jump\t// in\n    tag_270:\n        /* \"#utility.yul\":8277:8440   */\n      pop\n        /* \"#utility.yul\":8525:8529   */\n      0x40\n        /* \"#utility.yul\":8518:8523   */\n      dup4\n        /* \"#utility.yul\":8514:8530   */\n      add\n        /* \"#utility.yul\":8508:8531   */\n      mload\n        /* \"#utility.yul\":8544:8607   */\n      tag_271\n        /* \"#utility.yul\":8601:8605   */\n      0x40\n        /* \"#utility.yul\":8596:8599   */\n      dup7\n        /* \"#utility.yul\":8592:8606   */\n      add\n        /* \"#utility.yul\":8578:8590   */\n      dup3\n        /* \"#utility.yul\":8544:8607   */\n      tag_130\n      jump\t// in\n    tag_271:\n        /* \"#utility.yul\":8450:8617   */\n      pop\n        /* \"#utility.yul\":8701:8705   */\n      0x60\n        /* \"#utility.yul\":8694:8699   */\n      dup4\n        /* \"#utility.yul\":8690:8706   */\n      add\n        /* \"#utility.yul\":8684:8707   */\n      mload\n        /* \"#utility.yul\":8720:8790   */\n      tag_272\n        /* \"#utility.yul\":8784:8788   */\n      0x60\n        /* \"#utility.yul\":8779:8782   */\n      dup7\n        /* \"#utility.yul\":8775:8789   */\n      add\n        /* \"#utility.yul\":8761:8773   */\n      dup3\n        /* \"#utility.yul\":8720:8790   */\n      tag_134\n      jump\t// in\n    tag_272:\n        /* \"#utility.yul\":8627:8800   */\n      pop\n        /* \"#utility.yul\":8893:8897   */\n      0x80\n        /* \"#utility.yul\":8886:8891   */\n      dup4\n        /* \"#utility.yul\":8882:8898   */\n      add\n        /* \"#utility.yul\":8876:8899   */\n      mload\n        /* \"#utility.yul\":8912:8975   */\n      tag_273\n        /* \"#utility.yul\":8969:8973   */\n      0x80\n        /* \"#utility.yul\":8964:8967   */\n      dup7\n        /* \"#utility.yul\":8960:8974   */\n      add\n        /* \"#utility.yul\":8946:8958   */\n      dup3\n        /* \"#utility.yul\":8912:8975   */\n      tag_130\n      jump\t// in\n    tag_273:\n        /* \"#utility.yul\":8810:8985   */\n      pop\n        /* \"#utility.yul\":9075:9079   */\n      0xa0\n        /* \"#utility.yul\":9068:9073   */\n      dup4\n        /* \"#utility.yul\":9064:9080   */\n      add\n        /* \"#utility.yul\":9058:9081   */\n      mload\n        /* \"#utility.yul\":9094:9157   */\n      tag_274\n        /* \"#utility.yul\":9151:9155   */\n      0xa0\n        /* \"#utility.yul\":9146:9149   */\n      dup7\n        /* \"#utility.yul\":9142:9156   */\n      add\n        /* \"#utility.yul\":9128:9140   */\n      dup3\n        /* \"#utility.yul\":9094:9157   */\n      tag_137\n      jump\t// in\n    tag_274:\n        /* \"#utility.yul\":8995:9167   */\n      pop\n        /* \"#utility.yul\":9184:9188   */\n      dup1\n        /* \"#utility.yul\":9177:9188   */\n      swap2\n      pop\n        /* \"#utility.yul\":7986:9194   */\n      pop\n        /* \"#utility.yul\":7880:9194   */\n      swap3\n      swap2\n      pop\n      pop\n      jump\t// out\n        /* \"#utility.yul\":9200:9440   */\n    tag_139:\n        /* \"#utility.yul\":9311:9321   */\n      0x00\n        /* \"#utility.yul\":9346:9434   */\n      tag_276\n        /* \"#utility.yul\":9430:9433   */\n      dup4\n        /* \"#utility.yul\":9422:9428   */\n      dup4\n        /* \"#utility.yul\":9346:9434   */\n      tag_138\n      jump\t// in\n    tag_276:\n        /* \"#utility.yul\":9332:9434   */\n      swap1\n      pop\n        /* \"#utility.yul\":9200:9440   */\n      swap3\n      swap2\n      pop\n      pop\n      jump\t// out\n        /* \"#utility.yul\":9446:9580   */\n    tag_140:\n        /* \"#utility.yul\":9537:9541   */\n      0x00\n        /* \"#utility.yul\":9569:9573   */\n      0x20\n        /* \"#utility.yul\":9564:9567   */\n      dup3\n        /* \"#utility.yul\":9560:9574   */\n      add\n        /* \"#utility.yul\":9552:9574   */\n      swap1\n      pop\n        /* \"#utility.yul\":9446:9580   */\n      swap2\n      swap1\n      pop\n      jump\t// out\n        /* \"#utility.yul\":9636:10715   */\n    tag_141:\n        /* \"#utility.yul\":9797:9800   */\n      0x00\n        /* \"#utility.yul\":9826:9901   */\n      tag_279\n        /* \"#utility.yul\":9895:9900   */\n      dup3\n        /* \"#utility.yul\":9826:9901   */\n      tag_122\n      jump\t// in\n    tag_279:\n        /* \"#utility.yul\":9917:10024   */\n      tag_280\n        /* \"#utility.yul\":10017:10023   */\n      dup2\n        /* \"#utility.yul\":10012:10015   */\n      dup6\n        /* \"#utility.yul\":9917:10024   */\n      tag_123\n      jump\t// in\n    tag_280:\n        /* \"#utility.yul\":9910:10024   */\n      swap4\n      pop\n        /* \"#utility.yul\":10050:10053   */\n      dup4\n        /* \"#utility.yul\":10095:10099   */\n      0x20\n        /* \"#utility.yul\":10087:10093   */\n      dup3\n        /* \"#utility.yul\":10083:10100   */\n      mul\n        /* \"#utility.yul\":10078:10081   */\n      dup6\n        /* \"#utility.yul\":10074:10101   */\n      add\n        /* \"#utility.yul\":10125:10202   */\n      tag_281\n        /* \"#utility.yul\":10196:10201   */\n      dup6\n        /* \"#utility.yul\":10125:10202   */\n      tag_124\n      jump\t// in\n    tag_281:\n        /* \"#utility.yul\":10225:10232   */\n      dup1\n        /* \"#utility.yul\":10256:10257   */\n      0x00\n        /* \"#utility.yul\":10241:10670   */\n    tag_282:\n        /* \"#utility.yul\":10266:10272   */\n      dup6\n        /* \"#utility.yul\":10263:10264   */\n      dup2\n        /* \"#utility.yul\":10260:10273   */\n      lt\n        /* \"#utility.yul\":10241:10670   */\n      iszero\n      tag_284\n      jumpi\n        /* \"#utility.yul\":10337:10346   */\n      dup5\n        /* \"#utility.yul\":10331:10335   */\n      dup5\n        /* \"#utility.yul\":10327:10347   */\n      sub\n        /* \"#utility.yul\":10322:10325   */\n      dup10\n        /* \"#utility.yul\":10315:10348   */\n      mstore\n        /* \"#utility.yul\":10388:10394   */\n      dup2\n        /* \"#utility.yul\":10382:10395   */\n      mload\n        /* \"#utility.yul\":10416:10522   */\n      tag_285\n        /* \"#utility.yul\":10517:10521   */\n      dup6\n        /* \"#utility.yul\":10502:10515   */\n      dup3\n        /* \"#utility.yul\":10416:10522   */\n      tag_139\n      jump\t// in\n    tag_285:\n        /* \"#utility.yul\":10408:10522   */\n      swap5\n      pop\n        /* \"#utility.yul\":10545:10626   */\n      tag_286\n        /* \"#utility.yul\":10619:10625   */\n      dup4\n        /* \"#utility.yul\":10545:10626   */\n      tag_140\n      jump\t// in\n    tag_286:\n        /* \"#utility.yul\":10535:10626   */\n      swap3\n      pop\n        /* \"#utility.yul\":10655:10659   */\n      0x20\n        /* \"#utility.yul\":10650:10653   */\n      dup11\n        /* \"#utility.yul\":10646:10660   */\n      add\n        /* \"#utility.yul\":10639:10660   */\n      swap10\n      pop\n        /* \"#utility.yul\":10301:10670   */\n      pop\n        /* \"#utility.yul\":10288:10289   */\n      0x01\n        /* \"#utility.yul\":10285:10286   */\n      dup2\n        /* \"#utility.yul\":10281:10290   */\n      add\n        /* \"#utility.yul\":10276:10290   */\n      swap1\n      pop\n        /* \"#utility.yul\":10241:10670   */\n      jump(tag_282)\n    tag_284:\n        /* \"#utility.yul\":10245:10259   */\n      pop\n        /* \"#utility.yul\":10686:10690   */\n      dup3\n        /* \"#utility.yul\":10679:10690   */\n      swap8\n      pop\n        /* \"#utility.yul\":10706:10709   */\n      dup8\n        /* \"#utility.yul\":10699:10709   */\n      swap6\n      pop\n        /* \"#utility.yul\":9802:10715   */\n      pop\n      pop\n      pop\n      pop\n      pop\n        /* \"#utility.yul\":9636:10715   */\n      swap3\n      swap2\n      pop\n      pop\n      jump\t// out\n        /* \"#utility.yul\":10721:11178   */\n    tag_40:\n        /* \"#utility.yul\":10906:10910   */\n      0x00\n        /* \"#utility.yul\":10944:10946   */\n      0x20\n        /* \"#utility.yul\":10933:10942   */\n      dup3\n        /* \"#utility.yul\":10929:10947   */\n      add\n        /* \"#utility.yul\":10921:10947   */\n      swap1\n      pop\n        /* \"#utility.yul\":10993:11002   */\n      dup2\n        /* \"#utility.yul\":10987:10991   */\n      dup2\n        /* \"#utility.yul\":10983:11003   */\n      sub\n        /* \"#utility.yul\":10979:10980   */\n      0x00\n        /* \"#utility.yul\":10968:10977   */\n      dup4\n        /* \"#utility.yul\":10964:10981   */\n      add\n        /* \"#utility.yul\":10957:11004   */\n      mstore\n        /* \"#utility.yul\":11021:11171   */\n      tag_288\n        /* \"#utility.yul\":11166:11170   */\n      dup2\n        /* \"#utility.yul\":11157:11163   */\n      dup5\n        /* \"#utility.yul\":11021:11171   */\n      tag_141\n      jump\t// in\n    tag_288:\n        /* \"#utility.yul\":11013:11171   */\n      swap1\n      pop\n        /* \"#utility.yul\":10721:11178   */\n      swap3\n      swap2\n      pop\n      pop\n      jump\t// out\n        /* \"#utility.yul\":11184:11302   */\n    tag_142:\n        /* \"#utility.yul\":11271:11295   */\n      tag_290\n        /* \"#utility.yul\":11289:11294   */\n      dup2\n        /* \"#utility.yul\":11271:11295   */\n      tag_136\n      jump\t// in\n    tag_290:\n        /* \"#utility.yul\":11266:11269   */\n      dup3\n        /* \"#utility.yul\":11259:11296   */\n      mstore\n        /* \"#utility.yul\":11184:11302   */\n      pop\n      pop\n      jump\t// out\n        /* \"#utility.yul\":11308:11530   */\n    tag_44:\n        /* \"#utility.yul\":11401:11405   */\n      0x00\n        /* \"#utility.yul\":11439:11441   */\n      0x20\n        /* \"#utility.yul\":11428:11437   */\n      dup3\n        /* \"#utility.yul\":11424:11442   */\n      add\n        /* \"#utility.yul\":11416:11442   */\n      swap1\n      pop\n        /* \"#utility.yul\":11452:11523   */\n      tag_292\n        /* \"#utility.yul\":11520:11521   */\n      0x00\n        /* \"#utility.yul\":11509:11518   */\n      dup4\n        /* \"#utility.yul\":11505:11522   */\n      add\n        /* \"#utility.yul\":11496:11502   */\n      dup5\n        /* \"#utility.yul\":11452:11523   */\n      tag_142\n      jump\t// in\n    tag_292:\n        /* \"#utility.yul\":11308:11530   */\n      swap3\n      swap2\n      pop\n      pop\n      jump\t// out\n        /* \"#utility.yul\":11536:11675   */\n    tag_143:\n        /* \"#utility.yul\":11628:11634   */\n      0x00\n        /* \"#utility.yul\":11662:11667   */\n      dup2\n        /* \"#utility.yul\":11656:11668   */\n      mload\n        /* \"#utility.yul\":11646:11668   */\n      swap1\n      pop\n        /* \"#utility.yul\":11536:11675   */\n      swap2\n      swap1\n      pop\n      jump\t// out\n        /* \"#utility.yul\":11681:11890   */\n    tag_144:\n        /* \"#utility.yul\":11805:11816   */\n      0x00\n        /* \"#utility.yul\":11839:11845   */\n      dup3\n        /* \"#utility.yul\":11834:11837   */\n      dup3\n        /* \"#utility.yul\":11827:11846   */\n      mstore\n        /* \"#utility.yul\":11879:11883   */\n      0x20\n        /* \"#utility.yul\":11874:11877   */\n      dup3\n        /* \"#utility.yul\":11870:11884   */\n      add\n        /* \"#utility.yul\":11855:11884   */\n      swap1\n      pop\n        /* \"#utility.yul\":11681:11890   */\n      swap3\n      swap2\n      pop\n      pop\n      jump\t// out\n        /* \"#utility.yul\":11896:12053   */\n    tag_145:\n        /* \"#utility.yul\":11988:11992   */\n      0x00\n        /* \"#utility.yul\":12011:12014   */\n      dup2\n        /* \"#utility.yul\":12003:12014   */\n      swap1\n      pop\n        /* \"#utility.yul\":12041:12045   */\n      0x20\n        /* \"#utility.yul\":12036:12039   */\n      dup3\n        /* \"#utility.yul\":12032:12046   */\n      add\n        /* \"#utility.yul\":12024:12046   */\n      swap1\n      pop\n        /* \"#utility.yul\":11896:12053   */\n      swap2\n      swap1\n      pop\n      jump\t// out\n        /* \"#utility.yul\":12113:13679   */\n    tag_146:\n        /* \"#utility.yul\":12222:12225   */\n      0x00\n        /* \"#utility.yul\":12258:12262   */\n      0xe0\n        /* \"#utility.yul\":12253:12256   */\n      dup4\n        /* \"#utility.yul\":12249:12263   */\n      add\n        /* \"#utility.yul\":12345:12349   */\n      0x00\n        /* \"#utility.yul\":12338:12343   */\n      dup4\n        /* \"#utility.yul\":12334:12350   */\n      add\n        /* \"#utility.yul\":12328:12351   */\n      mload\n        /* \"#utility.yul\":12398:12401   */\n      dup5\n        /* \"#utility.yul\":12392:12396   */\n      dup3\n        /* \"#utility.yul\":12388:12402   */\n      sub\n        /* \"#utility.yul\":12381:12385   */\n      0x00\n        /* \"#utility.yul\":12376:12379   */\n      dup7\n        /* \"#utility.yul\":12372:12386   */\n      add\n        /* \"#utility.yul\":12365:12403   */\n      mstore\n        /* \"#utility.yul\":12424:12497   */\n      tag_297\n        /* \"#utility.yul\":12492:12496   */\n      dup3\n        /* \"#utility.yul\":12478:12490   */\n      dup3\n        /* \"#utility.yul\":12424:12497   */\n      tag_129\n      jump\t// in\n    tag_297:\n        /* \"#utility.yul\":12416:12497   */\n      swap2\n      pop\n        /* \"#utility.yul\":12273:12508   */\n      pop\n        /* \"#utility.yul\":12591:12595   */\n      0x20\n        /* \"#utility.yul\":12584:12589   */\n      dup4\n        /* \"#utility.yul\":12580:12596   */\n      add\n        /* \"#utility.yul\":12574:12597   */\n      mload\n        /* \"#utility.yul\":12644:12647   */\n      dup5\n        /* \"#utility.yul\":12638:12642   */\n      dup3\n        /* \"#utility.yul\":12634:12648   */\n      sub\n        /* \"#utility.yul\":12627:12631   */\n      0x20\n        /* \"#utility.yul\":12622:12625   */\n      dup7\n        /* \"#utility.yul\":12618:12632   */\n      add\n        /* \"#utility.yul\":12611:12649   */\n      mstore\n        /* \"#utility.yul\":12670:12743   */\n      tag_298\n        /* \"#utility.yul\":12738:12742   */\n      dup3\n        /* \"#utility.yul\":12724:12736   */\n      dup3\n        /* \"#utility.yul\":12670:12743   */\n      tag_129\n      jump\t// in\n    tag_298:\n        /* \"#utility.yul\":12662:12743   */\n      swap2\n      pop\n        /* \"#utility.yul\":12518:12754   */\n      pop\n        /* \"#utility.yul\":12835:12839   */\n      0x40\n        /* \"#utility.yul\":12828:12833   */\n      dup4\n        /* \"#utility.yul\":12824:12840   */\n      add\n        /* \"#utility.yul\":12818:12841   */\n      mload\n        /* \"#utility.yul\":12854:12917   */\n      tag_299\n        /* \"#utility.yul\":12911:12915   */\n      0x40\n        /* \"#utility.yul\":12906:12909   */\n      dup7\n        /* \"#utility.yul\":12902:12916   */\n      add\n        /* \"#utility.yul\":12888:12900   */\n      dup3\n        /* \"#utility.yul\":12854:12917   */\n      tag_130\n      jump\t// in\n    tag_299:\n        /* \"#utility.yul\":12764:12927   */\n      pop\n        /* \"#utility.yul\":13011:13015   */\n      0x60\n        /* \"#utility.yul\":13004:13009   */\n      dup4\n        /* \"#utility.yul\":13000:13016   */\n      add\n        /* \"#utility.yul\":12994:13017   */\n      mload\n        /* \"#utility.yul\":13030:13100   */\n      tag_300\n        /* \"#utility.yul\":13094:13098   */\n      0x60\n        /* \"#utility.yul\":13089:13092   */\n      dup7\n        /* \"#utility.yul\":13085:13099   */\n      add\n        /* \"#utility.yul\":13071:13083   */\n      dup3\n        /* \"#utility.yul\":13030:13100   */\n      tag_134\n      jump\t// in\n    tag_300:\n        /* \"#utility.yul\":12937:13110   */\n      pop\n        /* \"#utility.yul\":13199:13203   */\n      0x80\n        /* \"#utility.yul\":13192:13197   */\n      dup4\n        /* \"#utility.yul\":13188:13204   */\n      add\n        /* \"#utility.yul\":13182:13205   */\n      mload\n        /* \"#utility.yul\":13218:13281   */\n      tag_301\n        /* \"#utility.yul\":13275:13279   */\n      0x80\n        /* \"#utility.yul\":13270:13273   */\n      dup7\n        /* \"#utility.yul\":13266:13280   */\n      add\n        /* \"#utility.yul\":13252:13264   */\n      dup3\n        /* \"#utility.yul\":13218:13281   */\n      tag_130\n      jump\t// in\n    tag_301:\n        /* \"#utility.yul\":13120:13291   */\n      pop\n        /* \"#utility.yul\":13385:13389   */\n      0xa0\n        /* \"#utility.yul\":13378:13383   */\n      dup4\n        /* \"#utility.yul\":13374:13390   */\n      add\n        /* \"#utility.yul\":13368:13391   */\n      mload\n        /* \"#utility.yul\":13404:13467   */\n      tag_302\n        /* \"#utility.yul\":13461:13465   */\n      0xa0\n        /* \"#utility.yul\":13456:13459   */\n      dup7\n        /* \"#utility.yul\":13452:13466   */\n      add\n        /* \"#utility.yul\":13438:13450   */\n      dup3\n        /* \"#utility.yul\":13404:13467   */\n      tag_137\n      jump\t// in\n    tag_302:\n        /* \"#utility.yul\":13301:13477   */\n      pop\n        /* \"#utility.yul\":13560:13564   */\n      0xc0\n        /* \"#utility.yul\":13553:13558   */\n      dup4\n        /* \"#utility.yul\":13549:13565   */\n      add\n        /* \"#utility.yul\":13543:13566   */\n      mload\n        /* \"#utility.yul\":13579:13642   */\n      tag_303\n        /* \"#utility.yul\":13636:13640   */\n      0xc0\n        /* \"#utility.yul\":13631:13634   */\n      dup7\n        /* \"#utility.yul\":13627:13641   */\n      add\n        /* \"#utility.yul\":13613:13625   */\n      dup3\n        /* \"#utility.yul\":13579:13642   */\n      tag_130\n      jump\t// in\n    tag_303:\n        /* \"#utility.yul\":13487:13652   */\n      pop\n        /* \"#utility.yul\":13669:13673   */\n      dup1\n        /* \"#utility.yul\":13662:13673   */\n      swap2\n      pop\n        /* \"#utility.yul\":12227:13679   */\n      pop\n        /* \"#utility.yul\":12113:13679   */\n      swap3\n      swap2\n      pop\n      pop\n      jump\t// out\n        /* \"#utility.yul\":13685:13941   */\n    tag_147:\n        /* \"#utility.yul\":13804:13814   */\n      0x00\n        /* \"#utility.yul\":13839:13935   */\n      tag_305\n        /* \"#utility.yul\":13931:13934   */\n      dup4\n        /* \"#utility.yul\":13923:13929   */\n      dup4\n        /* \"#utility.yul\":13839:13935   */\n      tag_146\n      jump\t// in\n    tag_305:\n        /* \"#utility.yul\":13825:13935   */\n      swap1\n      pop\n        /* \"#utility.yul\":13685:13941   */\n      swap3\n      swap2\n      pop\n      pop\n      jump\t// out\n        /* \"#utility.yul\":13947:14085   */\n    tag_148:\n        /* \"#utility.yul\":14042:14046   */\n      0x00\n        /* \"#utility.yul\":14074:14078   */\n      0x20\n        /* \"#utility.yul\":14069:14072   */\n      dup3\n        /* \"#utility.yul\":14065:14079   */\n      add\n        /* \"#utility.yul\":14057:14079   */\n      swap1\n      pop\n        /* \"#utility.yul\":13947:14085   */\n      swap2\n      swap1\n      pop\n      jump\t// out\n        /* \"#utility.yul\":14149:15260   */\n    tag_149:\n        /* \"#utility.yul\":14318:14321   */\n      0x00\n        /* \"#utility.yul\":14347:14426   */\n      tag_308\n        /* \"#utility.yul\":14420:14425   */\n      dup3\n        /* \"#utility.yul\":14347:14426   */\n      tag_143\n      jump\t// in\n    tag_308:\n        /* \"#utility.yul\":14442:14553   */\n      tag_309\n        /* \"#utility.yul\":14546:14552   */\n      dup2\n        /* \"#utility.yul\":14541:14544   */\n      dup6\n        /* \"#utility.yul\":14442:14553   */\n      tag_144\n      jump\t// in\n    tag_309:\n        /* \"#utility.yul\":14435:14553   */\n      swap4\n      pop\n        /* \"#utility.yul\":14579:14582   */\n      dup4\n        /* \"#utility.yul\":14624:14628   */\n      0x20\n        /* \"#utility.yul\":14616:14622   */\n      dup3\n        /* \"#utility.yul\":14612:14629   */\n      mul\n        /* \"#utility.yul\":14607:14610   */\n      dup6\n        /* \"#utility.yul\":14603:14630   */\n      add\n        /* \"#utility.yul\":14654:14735   */\n      tag_310\n        /* \"#utility.yul\":14729:14734   */\n      dup6\n        /* \"#utility.yul\":14654:14735   */\n      tag_145\n      jump\t// in\n    tag_310:\n        /* \"#utility.yul\":14758:14765   */\n      dup1\n        /* \"#utility.yul\":14789:14790   */\n      0x00\n        /* \"#utility.yul\":14774:15215   */\n    tag_311:\n        /* \"#utility.yul\":14799:14805   */\n      dup6\n        /* \"#utility.yul\":14796:14797   */\n      dup2\n        /* \"#utility.yul\":14793:14806   */\n      lt\n        /* \"#utility.yul\":14774:15215   */\n      iszero\n      tag_313\n      jumpi\n        /* \"#utility.yul\":14870:14879   */\n      dup5\n        /* \"#utility.yul\":14864:14868   */\n      dup5\n        /* \"#utility.yul\":14860:14880   */\n      sub\n        /* \"#utility.yul\":14855:14858   */\n      dup10\n        /* \"#utility.yul\":14848:14881   */\n      mstore\n        /* \"#utility.yul\":14921:14927   */\n      dup2\n        /* \"#utility.yul\":14915:14928   */\n      mload\n        /* \"#utility.yul\":14949:15063   */\n      tag_314\n        /* \"#utility.yul\":15058:15062   */\n      dup6\n        /* \"#utility.yul\":15043:15056   */\n      dup3\n        /* \"#utility.yul\":14949:15063   */\n      tag_147\n      jump\t// in\n    tag_314:\n        /* \"#utility.yul\":14941:15063   */\n      swap5\n      pop\n        /* \"#utility.yul\":15086:15171   */\n      tag_315\n        /* \"#utility.yul\":15164:15170   */\n      dup4\n        /* \"#utility.yul\":15086:15171   */\n      tag_148\n      jump\t// in\n    tag_315:\n        /* \"#utility.yul\":15076:15171   */\n      swap3\n      pop\n        /* \"#utility.yul\":15200:15204   */\n      0x20\n        /* \"#utility.yul\":15195:15198   */\n      dup11\n        /* \"#utility.yul\":15191:15205   */\n      add\n        /* \"#utility.yul\":15184:15205   */\n      swap10\n      pop\n        /* \"#utility.yul\":14834:15215   */\n      pop\n        /* \"#utility.yul\":14821:14822   */\n      0x01\n        /* \"#utility.yul\":14818:14819   */\n      dup2\n        /* \"#utility.yul\":14814:14823   */\n      add\n        /* \"#utility.yul\":14809:14823   */\n      swap1\n      pop\n        /* \"#utility.yul\":14774:15215   */\n      jump(tag_311)\n    tag_313:\n        /* \"#utility.yul\":14778:14792   */\n      pop\n        /* \"#utility.yul\":15231:15235   */\n      dup3\n        /* \"#utility.yul\":15224:15235   */\n      swap8\n      pop\n        /* \"#utility.yul\":15251:15254   */\n      dup8\n        /* \"#utility.yul\":15244:15254   */\n      swap6\n      pop\n        /* \"#utility.yul\":14323:15260   */\n      pop\n      pop\n      pop\n      pop\n      pop\n        /* \"#utility.yul\":14149:15260   */\n      swap3\n      swap2\n      pop\n      pop\n      jump\t// out\n        /* \"#utility.yul\":15266:15739   */\n    tag_48:\n        /* \"#utility.yul\":15459:15463   */\n      0x00\n        /* \"#utility.yul\":15497:15499   */\n      0x20\n        /* \"#utility.yul\":15486:15495   */\n      dup3\n        /* \"#utility.yul\":15482:15500   */\n      add\n        /* \"#utility.yul\":15474:15500   */\n      swap1\n      pop\n        /* \"#utility.yul\":15546:15555   */\n      dup2\n        /* \"#utility.yul\":15540:15544   */\n      dup2\n        /* \"#utility.yul\":15536:15556   */\n      sub\n        /* \"#utility.yul\":15532:15533   */\n      0x00\n        /* \"#utility.yul\":15521:15530   */\n      dup4\n        /* \"#utility.yul\":15517:15534   */\n      add\n        /* \"#utility.yul\":15510:15557   */\n      mstore\n        /* \"#utility.yul\":15574:15732   */\n      tag_317\n        /* \"#utility.yul\":15727:15731   */\n      dup2\n        /* \"#utility.yul\":15718:15724   */\n      dup5\n        /* \"#utility.yul\":15574:15732   */\n      tag_149\n      jump\t// in\n    tag_317:\n        /* \"#utility.yul\":15566:15732   */\n      swap1\n      pop\n        /* \"#utility.yul\":15266:15739   */\n      swap3\n      swap2\n      pop\n      pop\n      jump\t// out\n        /* \"#utility.yul\":15745:15914   */\n    tag_150:\n        /* \"#utility.yul\":15829:15840   */\n      0x00\n        /* \"#utility.yul\":15863:15869   */\n      dup3\n        /* \"#utility.yul\":15858:15861   */\n      dup3\n        /* \"#utility.yul\":15851:15870   */\n      mstore\n        /* \"#utility.yul\":15903:15907   */\n      0x20\n        /* \"#utility.yul\":15898:15901   */\n      dup3\n        /* \"#utility.yul\":15894:15908   */\n      add\n        /* \"#utility.yul\":15879:15908   */\n      swap1\n      pop\n        /* \"#utility.yul\":15745:15914   */\n      swap3\n      swap2\n      pop\n      pop\n      jump\t// out\n        /* \"#utility.yul\":15920:16085   */\n    tag_151:\n        /* \"#utility.yul\":16060:16077   */\n      0x4e6f742061757468756f72697a65640000000000000000000000000000000000\n        /* \"#utility.yul\":16056:16057   */\n      0x00\n        /* \"#utility.yul\":16048:16054   */\n      dup3\n        /* \"#utility.yul\":16044:16058   */\n      add\n        /* \"#utility.yul\":16037:16078   */\n      mstore\n        /* \"#utility.yul\":15920:16085   */\n      pop\n      jump\t// out\n        /* \"#utility.yul\":16091:16457   */\n    tag_152:\n        /* \"#utility.yul\":16233:16236   */\n      0x00\n        /* \"#utility.yul\":16254:16321   */\n      tag_321\n        /* \"#utility.yul\":16318:16320   */\n      0x0f\n        /* \"#utility.yul\":16313:16316   */\n      dup4\n        /* \"#utility.yul\":16254:16321   */\n      tag_150\n      jump\t// in\n    tag_321:\n        /* \"#utility.yul\":16247:16321   */\n      swap2\n      pop\n        /* \"#utility.yul\":16330:16423   */\n      tag_322\n        /* \"#utility.yul\":16419:16422   */\n      dup3\n        /* \"#utility.yul\":16330:16423   */\n      tag_151\n      jump\t// in\n    tag_322:\n        /* \"#utility.yul\":16448:16450   */\n      0x20\n        /* \"#utility.yul\":16443:16446   */\n      dup3\n        /* \"#utility.yul\":16439:16451   */\n      add\n        /* \"#utility.yul\":16432:16451   */\n      swap1\n      pop\n        /* \"#utility.yul\":16091:16457   */\n      swap2\n      swap1\n      pop\n      jump\t// out\n        /* \"#utility.yul\":16463:16882   */\n    tag_54:\n        /* \"#utility.yul\":16629:16633   */\n      0x00\n        /* \"#utility.yul\":16667:16669   */\n      0x20\n        /* \"#utility.yul\":16656:16665   */\n      dup3\n        /* \"#utility.yul\":16652:16670   */\n      add\n        /* \"#utility.yul\":16644:16670   */\n      swap1\n      pop\n        /* \"#utility.yul\":16716:16725   */\n      dup2\n        /* \"#utility.yul\":16710:16714   */\n      dup2\n        /* \"#utility.yul\":16706:16726   */\n      sub\n        /* \"#utility.yul\":16702:16703   */\n      0x00\n        /* \"#utility.yul\":16691:16700   */\n      dup4\n        /* \"#utility.yul\":16687:16704   */\n      add\n        /* \"#utility.yul\":16680:16727   */\n      mstore\n        /* \"#utility.yul\":16744:16875   */\n      tag_324\n        /* \"#utility.yul\":16870:16874   */\n      dup2\n        /* \"#utility.yul\":16744:16875   */\n      tag_152\n      jump\t// in\n    tag_324:\n        /* \"#utility.yul\":16736:16875   */\n      swap1\n      pop\n        /* \"#utility.yul\":16463:16882   */\n      swap2\n      swap1\n      pop\n      jump\t// out\n        /* \"#utility.yul\":16888:17054   */\n    tag_153:\n        /* \"#utility.yul\":17028:17046   */\n      0x596f75206172652062656c6f7720313800000000000000000000000000000000\n        /* \"#utility.yul\":17024:17025   */\n      0x00\n        /* \"#utility.yul\":17016:17022   */\n      dup3\n        /* \"#utility.yul\":17012:17026   */\n      add\n        /* \"#utility.yul\":17005:17047   */\n      mstore\n        /* \"#utility.yul\":16888:17054   */\n      pop\n      jump\t// out\n        /* \"#utility.yul\":17060:17426   */\n    tag_154:\n        /* \"#utility.yul\":17202:17205   */\n      0x00\n        /* \"#utility.yul\":17223:17290   */\n      tag_327\n        /* \"#utility.yul\":17287:17289   */\n      0x10\n        /* \"#utility.yul\":17282:17285   */\n      dup4\n        /* \"#utility.yul\":17223:17290   */\n      tag_150\n      jump\t// in\n    tag_327:\n        /* \"#utility.yul\":17216:17290   */\n      swap2\n      pop\n        /* \"#utility.yul\":17299:17392   */\n      tag_328\n        /* \"#utility.yul\":17388:17391   */\n      dup3\n        /* \"#utility.yul\":17299:17392   */\n      tag_153\n      jump\t// in\n    tag_328:\n        /* \"#utility.yul\":17417:17419   */\n      0x20\n        /* \"#utility.yul\":17412:17415   */\n      dup3\n        /* \"#utility.yul\":17408:17420   */\n      add\n        /* \"#utility.yul\":17401:17420   */\n      swap1\n      pop\n        /* \"#utility.yul\":17060:17426   */\n      swap2\n      swap1\n      pop\n      jump\t// out\n        /* \"#utility.yul\":17432:17851   */\n    tag_59:\n        /* \"#utility.yul\":17598:17602   */\n      0x00\n        /* \"#utility.yul\":17636:17638   */\n      0x20\n        /* \"#utility.yul\":17625:17634   */\n      dup3\n        /* \"#utility.yul\":17621:17639   */\n      add\n        /* \"#utility.yul\":17613:17639   */\n      swap1\n      pop\n        /* \"#utility.yul\":17685:17694   */\n      dup2\n        /* \"#utility.yul\":17679:17683   */\n      dup2\n        /* \"#utility.yul\":17675:17695   */\n      sub\n        /* \"#utility.yul\":17671:17672   */\n      0x00\n        /* \"#utility.yul\":17660:17669   */\n      dup4\n        /* \"#utility.yul\":17656:17673   */\n      add\n        /* \"#utility.yul\":17649:17696   */\n      mstore\n        /* \"#utility.yul\":17713:17844   */\n      tag_330\n        /* \"#utility.yul\":17839:17843   */\n      dup2\n        /* \"#utility.yul\":17713:17844   */\n      tag_154\n      jump\t// in\n    tag_330:\n        /* \"#utility.yul\":17705:17844   */\n      swap1\n      pop\n        /* \"#utility.yul\":17432:17851   */\n      swap2\n      swap1\n      pop\n      jump\t// out\n        /* \"#utility.yul\":17857:18033   */\n    tag_155:\n        /* \"#utility.yul\":17997:18025   */\n      0x596f752061726520616c72656164792072656769737465726564000000000000\n        /* \"#utility.yul\":17993:17994   */\n      0x00\n        /* \"#utility.yul\":17985:17991   */\n      dup3\n        /* \"#utility.yul\":17981:17995   */\n      add\n        /* \"#utility.yul\":17974:18026   */\n      mstore\n        /* \"#utility.yul\":17857:18033   */\n      pop\n      jump\t// out\n        /* \"#utility.yul\":18039:18405   */\n    tag_156:\n        /* \"#utility.yul\":18181:18184   */\n      0x00\n        /* \"#utility.yul\":18202:18269   */\n      tag_333\n        /* \"#utility.yul\":18266:18268   */\n      0x1a\n        /* \"#utility.yul\":18261:18264   */\n      dup4\n        /* \"#utility.yul\":18202:18269   */\n      tag_150\n      jump\t// in\n    tag_333:\n        /* \"#utility.yul\":18195:18269   */\n      swap2\n      pop\n        /* \"#utility.yul\":18278:18371   */\n      tag_334\n        /* \"#utility.yul\":18367:18370   */\n      dup3\n        /* \"#utility.yul\":18278:18371   */\n      tag_155\n      jump\t// in\n    tag_334:\n        /* \"#utility.yul\":18396:18398   */\n      0x20\n        /* \"#utility.yul\":18391:18394   */\n      dup3\n        /* \"#utility.yul\":18387:18399   */\n      add\n        /* \"#utility.yul\":18380:18399   */\n      swap1\n      pop\n        /* \"#utility.yul\":18039:18405   */\n      swap2\n      swap1\n      pop\n      jump\t// out\n        /* \"#utility.yul\":18411:18830   */\n    tag_64:\n        /* \"#utility.yul\":18577:18581   */\n      0x00\n        /* \"#utility.yul\":18615:18617   */\n      0x20\n        /* \"#utility.yul\":18604:18613   */\n      dup3\n        /* \"#utility.yul\":18600:18618   */\n      add\n        /* \"#utility.yul\":18592:18618   */\n      swap1\n      pop\n        /* \"#utility.yul\":18664:18673   */\n      dup2\n        /* \"#utility.yul\":18658:18662   */\n      dup2\n        /* \"#utility.yul\":18654:18674   */\n      sub\n        /* \"#utility.yul\":18650:18651   */\n      0x00\n        /* \"#utility.yul\":18639:18648   */\n      dup4\n        /* \"#utility.yul\":18635:18652   */\n      add\n        /* \"#utility.yul\":18628:18675   */\n      mstore\n        /* \"#utility.yul\":18692:18823   */\n      tag_336\n        /* \"#utility.yul\":18818:18822   */\n      dup2\n        /* \"#utility.yul\":18692:18823   */\n      tag_156\n      jump\t// in\n    tag_336:\n        /* \"#utility.yul\":18684:18823   */\n      swap1\n      pop\n        /* \"#utility.yul\":18411:18830   */\n      swap2\n      swap1\n      pop\n      jump\t// out\n        /* \"#utility.yul\":18836:19016   */\n    tag_157:\n        /* \"#utility.yul\":18884:18961   */\n      0x4e487b7100000000000000000000000000000000000000000000000000000000\n        /* \"#utility.yul\":18881:18882   */\n      0x00\n        /* \"#utility.yul\":18874:18962   */\n      mstore\n        /* \"#utility.yul\":18981:18985   */\n      0x41\n        /* \"#utility.yul\":18978:18979   */\n      0x04\n        /* \"#utility.yul\":18971:18986   */\n      mstore\n        /* \"#utility.yul\":19005:19009   */\n      0x24\n        /* \"#utility.yul\":19002:19003   */\n      0x00\n        /* \"#utility.yul\":18995:19010   */\n      revert\n        /* \"#utility.yul\":19022:19202   */\n    tag_158:\n        /* \"#utility.yul\":19070:19147   */\n      0x4e487b7100000000000000000000000000000000000000000000000000000000\n        /* \"#utility.yul\":19067:19068   */\n      0x00\n        /* \"#utility.yul\":19060:19148   */\n      mstore\n        /* \"#utility.yul\":19167:19171   */\n      0x22\n        /* \"#utility.yul\":19164:19165   */\n      0x04\n        /* \"#utility.yul\":19157:19172   */\n      mstore\n        /* \"#utility.yul\":19191:19195   */\n      0x24\n        /* \"#utility.yul\":19188:19189   */\n      0x00\n        /* \"#utility.yul\":19181:19196   */\n      revert\n        /* \"#utility.yul\":19208:19528   */\n    tag_159:\n        /* \"#utility.yul\":19252:19258   */\n      0x00\n        /* \"#utility.yul\":19289:19290   */\n      0x02\n        /* \"#utility.yul\":19283:19287   */\n      dup3\n        /* \"#utility.yul\":19279:19291   */\n      div\n        /* \"#utility.yul\":19269:19291   */\n      swap1\n      pop\n        /* \"#utility.yul\":19336:19337   */\n      0x01\n        /* \"#utility.yul\":19330:19334   */\n      dup3\n        /* \"#utility.yul\":19326:19338   */\n      and\n        /* \"#utility.yul\":19357:19375   */\n      dup1\n        /* \"#utility.yul\":19347:19428   */\n      tag_340\n      jumpi\n        /* \"#utility.yul\":19413:19417   */\n      0x7f\n        /* \"#utility.yul\":19405:19411   */\n      dup3\n        /* \"#utility.yul\":19401:19418   */\n      and\n        /* \"#utility.yul\":19391:19418   */\n      swap2\n      pop\n        /* \"#utility.yul\":19347:19428   */\n    tag_340:\n        /* \"#utility.yul\":19475:19477   */\n      0x20\n        /* \"#utility.yul\":19467:19473   */\n      dup3\n        /* \"#utility.yul\":19464:19478   */\n      lt\n        /* \"#utility.yul\":19444:19462   */\n      dup2\n        /* \"#utility.yul\":19441:19479   */\n      sub\n        /* \"#utility.yul\":19438:19522   */\n      tag_341\n      jumpi\n        /* \"#utility.yul\":19494:19512   */\n      tag_342\n      tag_158\n      jump\t// in\n    tag_342:\n        /* \"#utility.yul\":19438:19522   */\n    tag_341:\n        /* \"#utility.yul\":19259:19528   */\n      pop\n        /* \"#utility.yul\":19208:19528   */\n      swap2\n      swap1\n      pop\n      jump\t// out\n        /* \"#utility.yul\":19534:19675   */\n    tag_160:\n        /* \"#utility.yul\":19583:19587   */\n      0x00\n        /* \"#utility.yul\":19606:19609   */\n      dup2\n        /* \"#utility.yul\":19598:19609   */\n      swap1\n      pop\n        /* \"#utility.yul\":19629:19632   */\n      dup2\n        /* \"#utility.yul\":19626:19627   */\n      0x00\n        /* \"#utility.yul\":19619:19633   */\n      mstore\n        /* \"#utility.yul\":19663:19667   */\n      0x20\n        /* \"#utility.yul\":19660:19661   */\n      0x00\n        /* \"#utility.yul\":19650:19668   */\n      keccak256\n        /* \"#utility.yul\":19642:19668   */\n      swap1\n      pop\n        /* \"#utility.yul\":19534:19675   */\n      swap2\n      swap1\n      pop\n      jump\t// out\n        /* \"#utility.yul\":19681:19774   */\n    tag_161:\n        /* \"#utility.yul\":19718:19724   */\n      0x00\n        /* \"#utility.yul\":19765:19767   */\n      0x20\n        /* \"#utility.yul\":19760:19762   */\n      0x1f\n        /* \"#utility.yul\":19753:19758   */\n      dup4\n        /* \"#utility.yul\":19749:19763   */\n      add\n        /* \"#utility.yul\":19745:19768   */\n      div\n        /* \"#utility.yul\":19735:19768   */\n      swap1\n      pop\n        /* \"#utility.yul\":19681:19774   */\n      swap2\n      swap1\n      pop\n      jump\t// out\n        /* \"#utility.yul\":19780:19887   */\n    tag_162:\n        /* \"#utility.yul\":19824:19832   */\n      0x00\n        /* \"#utility.yul\":19874:19879   */\n      dup3\n        /* \"#utility.yul\":19868:19872   */\n      dup3\n        /* \"#utility.yul\":19864:19880   */\n      shl\n        /* \"#utility.yul\":19843:19880   */\n      swap1\n      pop\n        /* \"#utility.yul\":19780:19887   */\n      swap3\n      swap2\n      pop\n      pop\n      jump\t// out\n        /* \"#utility.yul\":19893:20286   */\n    tag_163:\n        /* \"#utility.yul\":19962:19968   */\n      0x00\n        /* \"#utility.yul\":20012:20013   */\n      0x08\n        /* \"#utility.yul\":20000:20010   */\n      dup4\n        /* \"#utility.yul\":19996:20014   */\n      mul\n        /* \"#utility.yul\":20035:20132   */\n      tag_347\n        /* \"#utility.yul\":20065:20131   */\n      0xffffffffffffffffffffffffffffffffffffffffffffffffffffffffffffffff\n        /* \"#utility.yul\":20054:20063   */\n      dup3\n        /* \"#utility.yul\":20035:20132   */\n      tag_162\n      jump\t// in\n    tag_347:\n        /* \"#utility.yul\":20153:20192   */\n      tag_348\n        /* \"#utility.yul\":20183:20191   */\n      dup7\n        /* \"#utility.yul\":20172:20181   */\n      dup4\n        /* \"#utility.yul\":20153:20192   */\n      tag_162\n      jump\t// in\n    tag_348:\n        /* \"#utility.yul\":20141:20192   */\n      swap6\n      pop\n        /* \"#utility.yul\":20225:20229   */\n      dup1\n        /* \"#utility.yul\":20221:20230   */\n      not\n        /* \"#utility.yul\":20214:20219   */\n      dup5\n        /* \"#utility.yul\":20210:20231   */\n      and\n        /* \"#utility.yul\":20201:20231   */\n      swap4\n      pop\n        /* \"#utility.yul\":20274:20278   */\n      dup1\n        /* \"#utility.yul\":20264:20272   */\n      dup7\n        /* \"#utility.yul\":20260:20279   */\n      and\n        /* \"#utility.yul\":20253:20258   */\n      dup5\n        /* \"#utility.yul\":20250:20280   */\n      or\n        /* \"#utility.yul\":20240:20280   */\n      swap3\n      pop\n        /* \"#utility.yul\":19969:20286   */\n      pop\n      pop\n        /* \"#utility.yul\":19893:20286   */\n      swap4\n      swap3\n      pop\n      pop\n      pop\n      jump\t// out\n        /* \"#utility.yul\":20292:20352   */\n    tag_164:\n        /* \"#utility.yul\":20320:20323   */\n      0x00\n        /* \"#utility.yul\":20341:20346   */\n      dup2\n        /* \"#utility.yul\":20334:20346   */\n      swap1\n      pop\n        /* \"#utility.yul\":20292:20352   */\n      swap2\n      swap1\n      pop\n      jump\t// out\n        /* \"#utility.yul\":20358:20500   */\n    tag_165:\n        /* \"#utility.yul\":20408:20417   */\n      0x00\n        /* \"#utility.yul\":20441:20494   */\n      tag_351\n        /* \"#utility.yul\":20459:20493   */\n      tag_352\n        /* \"#utility.yul\":20468:20492   */\n      tag_353\n        /* \"#utility.yul\":20486:20491   */\n      dup5\n        /* \"#utility.yul\":20468:20492   */\n      tag_109\n      jump\t// in\n    tag_353:\n        /* \"#utility.yul\":20459:20493   */\n      tag_164\n      jump\t// in\n    tag_352:\n        /* \"#utility.yul\":20441:20494   */\n      tag_109\n      jump\t// in\n    tag_351:\n        /* \"#utility.yul\":20428:20494   */\n      swap1\n      pop\n        /* \"#utility.yul\":20358:20500   */\n      swap2\n      swap1\n      pop\n      jump\t// out\n        /* \"#utility.yul\":20506:20581   */\n    tag_166:\n        /* \"#utility.yul\":20549:20552   */\n      0x00\n        /* \"#utility.yul\":20570:20575   */\n      dup2\n        /* \"#utility.yul\":20563:20575   */\n      swap1\n      pop\n        /* \"#utility.yul\":20506:20581   */\n      swap2\n      swap1\n      pop\n      jump\t// out\n        /* \"#utility.yul\":20587:20856   */\n    tag_167:\n        /* \"#utility.yul\":20697:20736   */\n      tag_356\n        /* \"#utility.yul\":20728:20735   */\n      dup4\n        /* \"#utility.yul\":20697:20736   */\n      tag_165\n      jump\t// in\n    tag_356:\n        /* \"#utility.yul\":20758:20849   */\n      tag_357\n        /* \"#utility.yul\":20807:20848   */\n      tag_358\n        /* \"#utility.yul\":20831:20847   */\n      dup3\n        /* \"#utility.yul\":20807:20848   */\n      tag_166\n      jump\t// in\n    tag_358:\n        /* \"#utility.yul\":20799:20805   */\n      dup5\n        /* \"#utility.yul\":20792:20796   */\n      dup5\n        /* \"#utility.yul\":20786:20797   */\n      sload\n        /* \"#utility.yul\":20758:20849   */\n      tag_163\n      jump\t// in\n    tag_357:\n        /* \"#utility.yul\":20752:20756   */\n      dup3\n        /* \"#utility.yul\":20745:20850   */\n      sstore\n        /* \"#utility.yul\":20663:20856   */\n      pop\n        /* \"#utility.yul\":20587:20856   */\n      pop\n      pop\n      pop\n      jump\t// out\n        /* \"#utility.yul\":20862:20935   */\n    tag_168:\n        /* \"#utility.yul\":20907:20910   */\n      0x00\n        /* \"#utility.yul\":20862:20935   */\n      swap1\n      jump\t// out\n        /* \"#utility.yul\":20941:21130   */\n    tag_169:\n        /* \"#utility.yul\":21018:21050   */\n      tag_361\n      tag_168\n      jump\t// in\n    tag_361:\n        /* \"#utility.yul\":21059:21124   */\n      tag_362\n        /* \"#utility.yul\":21117:21123   */\n      dup2\n        /* \"#utility.yul\":21109:21115   */\n      dup5\n        /* \"#utility.yul\":21103:21107   */\n      dup5\n        /* \"#utility.yul\":21059:21124   */\n      tag_167\n      jump\t// in\n    tag_362:\n        /* \"#utility.yul\":20994:21130   */\n      pop\n        /* \"#utility.yul\":20941:21130   */\n      pop\n      pop\n      jump\t// out\n        /* \"#utility.yul\":21136:21322   */\n    tag_170:\n        /* \"#utility.yul\":21196:21316   */\n    tag_364:\n        /* \"#utility.yul\":21213:21216   */\n      dup2\n        /* \"#utility.yul\":21206:21211   */\n      dup2\n        /* \"#utility.yul\":21203:21217   */\n      lt\n        /* \"#utility.yul\":21196:21316   */\n      iszero\n      tag_366\n      jumpi\n        /* \"#utility.yul\":21267:21306   */\n      tag_367\n        /* \"#utility.yul\":21304:21305   */\n      0x00\n        /* \"#utility.yul\":21297:21302   */\n      dup3\n        /* \"#utility.yul\":21267:21306   */\n      tag_169\n      jump\t// in\n    tag_367:\n        /* \"#utility.yul\":21240:21241   */\n      0x01\n        /* \"#utility.yul\":21233:21238   */\n      dup2\n        /* \"#utility.yul\":21229:21242   */\n      add\n        /* \"#utility.yul\":21220:21242   */\n      swap1\n      pop\n        /* \"#utility.yul\":21196:21316   */\n      jump(tag_364)\n    tag_366:\n        /* \"#utility.yul\":21136:21322   */\n      pop\n      pop\n      jump\t// out\n        /* \"#utility.yul\":21328:21871   */\n    tag_171:\n        /* \"#utility.yul\":21429:21431   */\n      0x1f\n        /* \"#utility.yul\":21424:21427   */\n      dup3\n        /* \"#utility.yul\":21421:21432   */\n      gt\n        /* \"#utility.yul\":21418:21864   */\n      iszero\n      tag_369\n      jumpi\n        /* \"#utility.yul\":21463:21501   */\n      tag_370\n        /* \"#utility.yul\":21495:21500   */\n      dup2\n        /* \"#utility.yul\":21463:21501   */\n      tag_160\n      jump\t// in\n    tag_370:\n        /* \"#utility.yul\":21547:21576   */\n      tag_371\n        /* \"#utility.yul\":21565:21575   */\n      dup5\n        /* \"#utility.yul\":21547:21576   */\n      tag_161\n      jump\t// in\n    tag_371:\n        /* \"#utility.yul\":21537:21545   */\n      dup2\n        /* \"#utility.yul\":21533:21577   */\n      add\n        /* \"#utility.yul\":21730:21732   */\n      0x20\n        /* \"#utility.yul\":21718:21728   */\n      dup6\n        /* \"#utility.yul\":21715:21733   */\n      lt\n        /* \"#utility.yul\":21712:21761   */\n      iszero\n      tag_372\n      jumpi\n        /* \"#utility.yul\":21751:21759   */\n      dup2\n        /* \"#utility.yul\":21736:21759   */\n      swap1\n      pop\n        /* \"#utility.yul\":21712:21761   */\n    tag_372:\n        /* \"#utility.yul\":21774:21854   */\n      tag_373\n        /* \"#utility.yul\":21830:21852   */\n      tag_374\n        /* \"#utility.yul\":21848:21851   */\n      dup6\n        /* \"#utility.yul\":21830:21852   */\n      tag_161\n      jump\t// in\n    tag_374:\n        /* \"#utility.yul\":21820:21828   */\n      dup4\n        /* \"#utility.yul\":21816:21853   */\n      add\n        /* \"#utility.yul\":21803:21814   */\n      dup3\n        /* \"#utility.yul\":21774:21854   */\n      tag_170\n      jump\t// in\n    tag_373:\n        /* \"#utility.yul\":21433:21864   */\n      pop\n      pop\n        /* \"#utility.yul\":21418:21864   */\n    tag_369:\n        /* \"#utility.yul\":21328:21871   */\n      pop\n      pop\n      pop\n      jump\t// out\n        /* \"#utility.yul\":21877:21994   */\n    tag_172:\n        /* \"#utility.yul\":21931:21939   */\n      0x00\n        /* \"#utility.yul\":21981:21986   */\n      dup3\n        /* \"#utility.yul\":21975:21979   */\n      dup3\n        /* \"#utility.yul\":21971:21987   */\n      shr\n        /* \"#utility.yul\":21950:21987   */\n      swap1\n      pop\n        /* \"#utility.yul\":21877:21994   */\n      swap3\n      swap2\n      pop\n      pop\n      jump\t// out\n        /* \"#utility.yul\":22000:22169   */\n    tag_173:\n        /* \"#utility.yul\":22044:22050   */\n      0x00\n        /* \"#utility.yul\":22077:22128   */\n      tag_377\n        /* \"#utility.yul\":22125:22126   */\n      0x00\n        /* \"#utility.yul\":22121:22127   */\n      not\n        /* \"#utility.yul\":22113:22118   */\n      dup5\n        /* \"#utility.yul\":22110:22111   */\n      0x08\n        /* \"#utility.yul\":22106:22119   */\n      mul\n        /* \"#utility.yul\":22077:22128   */\n      tag_172\n      jump\t// in\n    tag_377:\n        /* \"#utility.yul\":22073:22129   */\n      not\n        /* \"#utility.yul\":22158:22162   */\n      dup1\n        /* \"#utility.yul\":22152:22156   */\n      dup4\n        /* \"#utility.yul\":22148:22163   */\n      and\n        /* \"#utility.yul\":22138:22163   */\n      swap2\n      pop\n        /* \"#utility.yul\":22051:22169   */\n      pop\n        /* \"#utility.yul\":22000:22169   */\n      swap3\n      swap2\n      pop\n      pop\n      jump\t// out\n        /* \"#utility.yul\":22174:22469   */\n    tag_174:\n        /* \"#utility.yul\":22250:22254   */\n      0x00\n        /* \"#utility.yul\":22396:22425   */\n      tag_379\n        /* \"#utility.yul\":22421:22424   */\n      dup4\n        /* \"#utility.yul\":22415:22419   */\n      dup4\n        /* \"#utility.yul\":22396:22425   */\n      tag_173\n      jump\t// in\n    tag_379:\n        /* \"#utility.yul\":22388:22425   */\n      swap2\n      pop\n        /* \"#utility.yul\":22458:22461   */\n      dup3\n        /* \"#utility.yul\":22455:22456   */\n      0x02\n        /* \"#utility.yul\":22451:22462   */\n      mul\n        /* \"#utility.yul\":22445:22449   */\n      dup3\n        /* \"#utility.yul\":22442:22463   */\n      or\n        /* \"#utility.yul\":22434:22463   */\n      swap1\n      pop\n        /* \"#utility.yul\":22174:22469   */\n      swap3\n      swap2\n      pop\n      pop\n      jump\t// out\n        /* \"#utility.yul\":22474:23869   */\n    tag_69:\n        /* \"#utility.yul\":22591:22628   */\n      tag_381\n        /* \"#utility.yul\":22624:22627   */\n      dup3\n        /* \"#utility.yul\":22591:22628   */\n      tag_125\n      jump\t// in\n    tag_381:\n        /* \"#utility.yul\":22693:22711   */\n      0xffffffffffffffff\n        /* \"#utility.yul\":22685:22691   */\n      dup2\n        /* \"#utility.yul\":22682:22712   */\n      gt\n        /* \"#utility.yul\":22679:22735   */\n      iszero\n      tag_382\n      jumpi\n        /* \"#utility.yul\":22715:22733   */\n      tag_383\n      tag_157\n      jump\t// in\n    tag_383:\n        /* \"#utility.yul\":22679:22735   */\n    tag_382:\n        /* \"#utility.yul\":22759:22797   */\n      tag_384\n        /* \"#utility.yul\":22791:22795   */\n      dup3\n        /* \"#utility.yul\":22785:22796   */\n      sload\n        /* \"#utility.yul\":22759:22797   */\n      tag_159\n      jump\t// in\n    tag_384:\n        /* \"#utility.yul\":22844:22911   */\n      tag_385\n        /* \"#utility.yul\":22904:22910   */\n      dup3\n        /* \"#utility.yul\":22896:22902   */\n      dup3\n        /* \"#utility.yul\":22890:22894   */\n      dup6\n        /* \"#utility.yul\":22844:22911   */\n      tag_171\n      jump\t// in\n    tag_385:\n        /* \"#utility.yul\":22938:22939   */\n      0x00\n        /* \"#utility.yul\":22962:22966   */\n      0x20\n        /* \"#utility.yul\":22949:22966   */\n      swap1\n      pop\n        /* \"#utility.yul\":22994:22996   */\n      0x1f\n        /* \"#utility.yul\":22986:22992   */\n      dup4\n        /* \"#utility.yul\":22983:22997   */\n      gt\n        /* \"#utility.yul\":23011:23012   */\n      0x01\n        /* \"#utility.yul\":23006:23624   */\n      dup2\n      eq\n      tag_387\n      jumpi\n        /* \"#utility.yul\":23668:23669   */\n      0x00\n        /* \"#utility.yul\":23685:23691   */\n      dup5\n        /* \"#utility.yul\":23682:23759   */\n      iszero\n      tag_388\n      jumpi\n        /* \"#utility.yul\":23734:23743   */\n      dup3\n        /* \"#utility.yul\":23729:23732   */\n      dup8\n        /* \"#utility.yul\":23725:23744   */\n      add\n        /* \"#utility.yul\":23719:23745   */\n      mload\n        /* \"#utility.yul\":23710:23745   */\n      swap1\n      pop\n        /* \"#utility.yul\":23682:23759   */\n    tag_388:\n        /* \"#utility.yul\":23785:23852   */\n      tag_389\n        /* \"#utility.yul\":23845:23851   */\n      dup6\n        /* \"#utility.yul\":23838:23843   */\n      dup3\n        /* \"#utility.yul\":23785:23852   */\n      tag_174\n      jump\t// in\n    tag_389:\n        /* \"#utility.yul\":23779:23783   */\n      dup7\n        /* \"#utility.yul\":23772:23853   */\n      sstore\n        /* \"#utility.yul\":23641:23863   */\n      pop\n        /* \"#utility.yul\":22976:23863   */\n      jump(tag_386)\n        /* \"#utility.yul\":23006:23624   */\n    tag_387:\n        /* \"#utility.yul\":23058:23062   */\n      0x1f\n        /* \"#utility.yul\":23054:23063   */\n      not\n        /* \"#utility.yul\":23046:23052   */\n      dup5\n        /* \"#utility.yul\":23042:23064   */\n      and\n        /* \"#utility.yul\":23092:23129   */\n      tag_390\n        /* \"#utility.yul\":23124:23128   */\n      dup7\n        /* \"#utility.yul\":23092:23129   */\n      tag_160\n      jump\t// in\n    tag_390:\n        /* \"#utility.yul\":23151:23152   */\n      0x00\n        /* \"#utility.yul\":23165:23373   */\n    tag_391:\n        /* \"#utility.yul\":23179:23186   */\n      dup3\n        /* \"#utility.yul\":23176:23177   */\n      dup2\n        /* \"#utility.yul\":23173:23187   */\n      lt\n        /* \"#utility.yul\":23165:23373   */\n      iszero\n      tag_393\n      jumpi\n        /* \"#utility.yul\":23258:23267   */\n      dup5\n        /* \"#utility.yul\":23253:23256   */\n      dup10\n        /* \"#utility.yul\":23249:23268   */\n      add\n        /* \"#utility.yul\":23243:23269   */\n      mload\n        /* \"#utility.yul\":23235:23241   */\n      dup3\n        /* \"#utility.yul\":23228:23270   */\n      sstore\n        /* \"#utility.yul\":23309:23310   */\n      0x01\n        /* \"#utility.yul\":23301:23307   */\n      dup3\n        /* \"#utility.yul\":23297:23311   */\n      add\n        /* \"#utility.yul\":23287:23311   */\n      swap2\n      pop\n        /* \"#utility.yul\":23356:23358   */\n      0x20\n        /* \"#utility.yul\":23345:23354   */\n      dup6\n        /* \"#utility.yul\":23341:23359   */\n      add\n        /* \"#utility.yul\":23328:23359   */\n      swap5\n      pop\n        /* \"#utility.yul\":23202:23206   */\n      0x20\n        /* \"#utility.yul\":23199:23200   */\n      dup2\n        /* \"#utility.yul\":23195:23207   */\n      add\n        /* \"#utility.yul\":23190:23207   */\n      swap1\n      pop\n        /* \"#utility.yul\":23165:23373   */\n      jump(tag_391)\n    tag_393:\n        /* \"#utility.yul\":23401:23407   */\n      dup7\n        /* \"#utility.yul\":23392:23399   */\n      dup4\n        /* \"#utility.yul\":23389:23408   */\n      lt\n        /* \"#utility.yul\":23386:23565   */\n      iszero\n      tag_394\n      jumpi\n        /* \"#utility.yul\":23459:23468   */\n      dup5\n        /* \"#utility.yul\":23454:23457   */\n      dup10\n        /* \"#utility.yul\":23450:23469   */\n      add\n        /* \"#utility.yul\":23444:23470   */\n      mload\n        /* \"#utility.yul\":23502:23550   */\n      tag_395\n        /* \"#utility.yul\":23544:23548   */\n      0x1f\n        /* \"#utility.yul\":23536:23542   */\n      dup10\n        /* \"#utility.yul\":23532:23549   */\n      and\n        /* \"#utility.yul\":23521:23530   */\n      dup3\n        /* \"#utility.yul\":23502:23550   */\n      tag_173\n      jump\t// in\n    tag_395:\n        /* \"#utility.yul\":23494:23500   */\n      dup4\n        /* \"#utility.yul\":23487:23551   */\n      sstore\n        /* \"#utility.yul\":23409:23565   */\n      pop\n        /* \"#utility.yul\":23386:23565   */\n    tag_394:\n        /* \"#utility.yul\":23611:23612   */\n      0x01\n        /* \"#utility.yul\":23607:23608   */\n      0x02\n        /* \"#utility.yul\":23599:23605   */\n      dup9\n        /* \"#utility.yul\":23595:23609   */\n      mul\n        /* \"#utility.yul\":23591:23613   */\n      add\n        /* \"#utility.yul\":23585:23589   */\n      dup9\n        /* \"#utility.yul\":23578:23614   */\n      sstore\n        /* \"#utility.yul\":23013:23624   */\n      pop\n      pop\n      pop\n        /* \"#utility.yul\":22976:23863   */\n    tag_386:\n      pop\n        /* \"#utility.yul\":22566:23869   */\n      pop\n      pop\n      pop\n        /* \"#utility.yul\":22474:23869   */\n      pop\n      pop\n      jump\t// out\n        /* \"#utility.yul\":23875:24055   */\n    tag_175:\n        /* \"#utility.yul\":23923:24000   */\n      0x4e487b7100000000000000000000000000000000000000000000000000000000\n        /* \"#utility.yul\":23920:23921   */\n      0x00\n        /* \"#utility.yul\":23913:24001   */\n      mstore\n        /* \"#utility.yul\":24020:24024   */\n      0x11\n        /* \"#utility.yul\":24017:24018   */\n      0x04\n        /* \"#utility.yul\":24010:24025   */\n      mstore\n        /* \"#utility.yul\":24044:24048   */\n      0x24\n        /* \"#utility.yul\":24041:24042   */\n      0x00\n        /* \"#utility.yul\":24034:24049   */\n      revert\n        /* \"#utility.yul\":24061:24294   */\n    tag_73:\n        /* \"#utility.yul\":24100:24103   */\n      0x00\n        /* \"#utility.yul\":24123:24147   */\n      tag_398\n        /* \"#utility.yul\":24141:24146   */\n      dup3\n        /* \"#utility.yul\":24123:24147   */\n      tag_109\n      jump\t// in\n    tag_398:\n        /* \"#utility.yul\":24114:24147   */\n      swap2\n      pop\n        /* \"#utility.yul\":24169:24235   */\n      0xffffffffffffffffffffffffffffffffffffffffffffffffffffffffffffffff\n        /* \"#utility.yul\":24162:24167   */\n      dup3\n        /* \"#utility.yul\":24159:24236   */\n      sub\n        /* \"#utility.yul\":24156:24259   */\n      tag_399\n      jumpi\n        /* \"#utility.yul\":24239:24257   */\n      tag_400\n      tag_175\n      jump\t// in\n    tag_400:\n        /* \"#utility.yul\":24156:24259   */\n    tag_399:\n        /* \"#utility.yul\":24286:24287   */\n      0x01\n        /* \"#utility.yul\":24279:24284   */\n      dup3\n        /* \"#utility.yul\":24275:24288   */\n      add\n        /* \"#utility.yul\":24268:24288   */\n      swap1\n      pop\n        /* \"#utility.yul\":24061:24294   */\n      swap2\n      swap1\n      pop\n      jump\t// out\n        /* \"#utility.yul\":24300:24477   */\n    tag_176:\n        /* \"#utility.yul\":24440:24469   */\n      0x43616e64696461746520526567697374726174696f6e2046756c6c0000000000\n        /* \"#utility.yul\":24436:24437   */\n      0x00\n        /* \"#utility.yul\":24428:24434   */\n      dup3\n        /* \"#utility.yul\":24424:24438   */\n      add\n        /* \"#utility.yul\":24417:24470   */\n      mstore\n        /* \"#utility.yul\":24300:24477   */\n      pop\n      jump\t// out\n        /* \"#utility.yul\":24483:24849   */\n    tag_177:\n        /* \"#utility.yul\":24625:24628   */\n      0x00\n        /* \"#utility.yul\":24646:24713   */\n      tag_403\n        /* \"#utility.yul\":24710:24712   */\n      0x1b\n        /* \"#utility.yul\":24705:24708   */\n      dup4\n        /* \"#utility.yul\":24646:24713   */\n      tag_150\n      jump\t// in\n    tag_403:\n        /* \"#utility.yul\":24639:24713   */\n      swap2\n      pop\n        /* \"#utility.yul\":24722:24815   */\n      tag_404\n        /* \"#utility.yul\":24811:24814   */\n      dup3\n        /* \"#utility.yul\":24722:24815   */\n      tag_176\n      jump\t// in\n    tag_404:\n        /* \"#utility.yul\":24840:24842   */\n      0x20\n        /* \"#utility.yul\":24835:24838   */\n      dup3\n        /* \"#utility.yul\":24831:24843   */\n      add\n        /* \"#utility.yul\":24824:24843   */\n      swap1\n      pop\n        /* \"#utility.yul\":24483:24849   */\n      swap2\n      swap1\n      pop\n      jump\t// out\n        /* \"#utility.yul\":24855:25274   */\n    tag_83:\n        /* \"#utility.yul\":25021:25025   */\n      0x00\n        /* \"#utility.yul\":25059:25061   */\n      0x20\n        /* \"#utility.yul\":25048:25057   */\n      dup3\n        /* \"#utility.yul\":25044:25062   */\n      add\n        /* \"#utility.yul\":25036:25062   */\n      swap1\n      pop\n        /* \"#utility.yul\":25108:25117   */\n      dup2\n        /* \"#utility.yul\":25102:25106   */\n      dup2\n        /* \"#utility.yul\":25098:25118   */\n      sub\n        /* \"#utility.yul\":25094:25095   */\n      0x00\n        /* \"#utility.yul\":25083:25092   */\n      dup4\n        /* \"#utility.yul\":25079:25096   */\n      add\n        /* \"#utility.yul\":25072:25119   */\n      mstore\n        /* \"#utility.yul\":25136:25267   */\n      tag_406\n        /* \"#utility.yul\":25262:25266   */\n      dup2\n        /* \"#utility.yul\":25136:25267   */\n      tag_177\n      jump\t// in\n    tag_406:\n        /* \"#utility.yul\":25128:25267   */\n      swap1\n      pop\n        /* \"#utility.yul\":24855:25274   */\n      swap2\n      swap1\n      pop\n      jump\t// out\n        /* \"#utility.yul\":25280:25509   */\n    tag_178:\n        /* \"#utility.yul\":25420:25454   */\n      0x456c656374696f6e20436f6d6d6973696f6e206e6f7420616c6c6f7765642074\n        /* \"#utility.yul\":25416:25417   */\n      0x00\n        /* \"#utility.yul\":25408:25414   */\n      dup3\n        /* \"#utility.yul\":25404:25418   */\n      add\n        /* \"#utility.yul\":25397:25455   */\n      mstore\n        /* \"#utility.yul\":25489:25501   */\n      0x6f20726567697374657200000000000000000000000000000000000000000000\n        /* \"#utility.yul\":25484:25486   */\n      0x20\n        /* \"#utility.yul\":25476:25482   */\n      dup3\n        /* \"#utility.yul\":25472:25487   */\n      add\n        /* \"#utility.yul\":25465:25502   */\n      mstore\n        /* \"#utility.yul\":25280:25509   */\n      pop\n      jump\t// out\n        /* \"#utility.yul\":25515:25881   */\n    tag_179:\n        /* \"#utility.yul\":25657:25660   */\n      0x00\n        /* \"#utility.yul\":25678:25745   */\n      tag_409\n        /* \"#utility.yul\":25742:25744   */\n      0x2a\n        /* \"#utility.yul\":25737:25740   */\n      dup4\n        /* \"#utility.yul\":25678:25745   */\n      tag_150\n      jump\t// in\n    tag_409:\n        /* \"#utility.yul\":25671:25745   */\n      swap2\n      pop\n        /* \"#utility.yul\":25754:25847   */\n      tag_410\n        /* \"#utility.yul\":25843:25846   */\n      dup3\n        /* \"#utility.yul\":25754:25847   */\n      tag_178\n      jump\t// in\n    tag_410:\n        /* \"#utility.yul\":25872:25874   */\n      0x40\n        /* \"#utility.yul\":25867:25870   */\n      dup3\n        /* \"#utility.yul\":25863:25875   */\n      add\n        /* \"#utility.yul\":25856:25875   */\n      swap1\n      pop\n        /* \"#utility.yul\":25515:25881   */\n      swap2\n      swap1\n      pop\n      jump\t// out\n        /* \"#utility.yul\":25887:26306   */\n    tag_86:\n        /* \"#utility.yul\":26053:26057   */\n      0x00\n        /* \"#utility.yul\":26091:26093   */\n      0x20\n        /* \"#utility.yul\":26080:26089   */\n      dup3\n        /* \"#utility.yul\":26076:26094   */\n      add\n        /* \"#utility.yul\":26068:26094   */\n      swap1\n      pop\n        /* \"#utility.yul\":26140:26149   */\n      dup2\n        /* \"#utility.yul\":26134:26138   */\n      dup2\n        /* \"#utility.yul\":26130:26150   */\n      sub\n        /* \"#utility.yul\":26126:26127   */\n      0x00\n        /* \"#utility.yul\":26115:26124   */\n      dup4\n        /* \"#utility.yul\":26111:26128   */\n      add\n        /* \"#utility.yul\":26104:26151   */\n      mstore\n        /* \"#utility.yul\":26168:26299   */\n      tag_412\n        /* \"#utility.yul\":26294:26298   */\n      dup2\n        /* \"#utility.yul\":26168:26299   */\n      tag_179\n      jump\t// in\n    tag_412:\n        /* \"#utility.yul\":26160:26299   */\n      swap1\n      pop\n        /* \"#utility.yul\":25887:26306   */\n      swap2\n      swap1\n      pop\n      jump\t// out\n\n    auxdata: 0xa2646970667358221220d27f005de0cafc55a58c50afc98e687862494597029892153a647a8d3713956e64736f6c634300081a0033\n}\n",
				"bytecode": {
					"linkReferences": {},
					"object": "6080604052600160025560016003553480156018575f80fd5b50335f806101000a81548173ffffffffffffffffffffffffffffffffffffffff021916908373ffffffffffffffffffffffffffffffffffffffff16021790555061155d806100655f395ff3fe608060405234801561000f575f80fd5b506004361061009c575f3560e01c80639fa4e440116100645780639fa4e4401461011c578063a15a36c714610126578063b28d92ae14610142578063dfbf53ae14610160578063fdbc40061461017e5761009c565b80632c0a3f89146100a0578063581c281c146100bc5780636ce2ccc0146100da57806381ba732f146100e4578063982c777d14610100575b5f80fd5b6100ba60048036038101906100b59190610915565b61019c565b005b6100c46101a0565b6040516100d191906109c6565b60405180910390f35b6100e26101a4565b005b6100fe60048036038101906100f99190610a63565b610233565b005b61011a60048036038101906101159190610ad4565b610433565b005b610124610765565b005b610140600480360381019061013b9190610915565b61080e565b005b61014a61089f565b6040516101579190610dbc565b60405180910390f35b6101686108a4565b6040516101759190610deb565b60405180910390f35b6101866108c9565b6040516101939190610f5f565b60405180910390f35b5050565b5f90565b5f8054906101000a900473ffffffffffffffffffffffffffffffffffffffff1673ffffffffffffffffffffffffffffffffffffffff163373ffffffffffffffffffffffffffffffffffffffff1614610231576040517f08c379a000000000000000000000000000000000000000000000000000000000815260040161022890610fd9565b60405180910390fd5b565b6012821015610277576040517f08c379a000000000000000000000000000000000000000000000000000000000815260040161026e90611041565b60405180910390fd5b610280336108ce565b6102bf576040517f08c379a00000000000000000000000000000000000000000000000000000000081526004016102b6906110a9565b60405180910390fd5b6040518060c0016040528085858080601f0160208091040260200160405190810160405280939291908181526020018383808284375f81840152601f19601f820116905080830192505050505050508152602001838152602001600254815260200182600381111561033457610333610953565b5b81526020015f81526020013373ffffffffffffffffffffffffffffffffffffffff1681525060075f60025481526020019081526020015f205f820151815f01908161037f91906112ee565b5060208201518160010155604082015181600201556060820151816003015f6101000a81548160ff021916908360038111156103be576103bd610953565b5b02179055506080820151816004015560a0820151816005015f6101000a81548173ffffffffffffffffffffffffffffffffffffffff021916908373ffffffffffffffffffffffffffffffffffffffff16021790555090505060025f815480929190610428906113ea565b919050555050505050565b6012821015610477576040517f08c379a000000000000000000000000000000000000000000000000000000000815260040161046e90611041565b60405180910390fd5b610480336108d4565b6104bf576040517f08c379a00000000000000000000000000000000000000000000000000000000081526004016104b6906110a9565b60405180910390fd5b6003805410610503576040517f08c379a00000000000000000000000000000000000000000000000000000000081526004016104fa9061147b565b60405180910390fd5b5f8054906101000a900473ffffffffffffffffffffffffffffffffffffffff1673ffffffffffffffffffffffffffffffffffffffff163373ffffffffffffffffffffffffffffffffffffffff1603610590576040517f08c379a000000000000000000000000000000000000000000000000000000000815260040161058790611509565b60405180910390fd5b6040518060e0016040528087878080601f0160208091040260200160405190810160405280939291908181526020018383808284375f81840152601f19601f82011690508083019250505050505050815260200185858080601f0160208091040260200160405190810160405280939291908181526020018383808284375f81840152601f19601f82011690508083019250505050505050815260200183815260200182600381111561064657610645610953565b5b815260200160035481526020013373ffffffffffffffffffffffffffffffffffffffff1681526020015f81525060085f60035481526020019081526020015f205f820151815f01908161069991906112ee565b5060208201518160010190816106af91906112ee565b50604082015181600201556060820151816003015f6101000a81548160ff021916908360038111156106e4576106e3610953565b5b02179055506080820151816004015560a0820151816005015f6101000a81548173ffffffffffffffffffffffffffffffffffffffff021916908373ffffffffffffffffffffffffffffffffffffffff16021790555060c0820151816006015590505060035f815480929190610758906113ea565b9190505550505050505050565b5f8054906101000a900473ffffffffffffffffffffffffffffffffffffffff1673ffffffffffffffffffffffffffffffffffffffff163373ffffffffffffffffffffffffffffffffffffffff16146107f2576040517f08c379a00000000000000000000000000000000000000000000000000000000081526004016107e990610fd9565b60405180910390fd5b600160065f6101000a81548160ff021916908315150217905550565b5f8054906101000a900473ffffffffffffffffffffffffffffffffffffffff1673ffffffffffffffffffffffffffffffffffffffff163373ffffffffffffffffffffffffffffffffffffffff161461089b576040517f08c379a000000000000000000000000000000000000000000000000000000000815260040161089290610fd9565b60405180910390fd5b5050565b606090565b60015f9054906101000a900473ffffffffffffffffffffffffffffffffffffffff1681565b606090565b5f919050565b5f919050565b5f80fd5b5f80fd5b5f819050919050565b6108f4816108e2565b81146108fe575f80fd5b50565b5f8135905061090f816108eb565b92915050565b5f806040838503121561092b5761092a6108da565b5b5f61093885828601610901565b925050602061094985828601610901565b9150509250929050565b7f4e487b71000000000000000000000000000000000000000000000000000000005f52602160045260245ffd5b6003811061099157610990610953565b5b50565b5f8190506109a182610980565b919050565b5f6109b082610994565b9050919050565b6109c0816109a6565b82525050565b5f6020820190506109d95f8301846109b7565b92915050565b5f80fd5b5f80fd5b5f80fd5b5f8083601f840112610a00576109ff6109df565b5b8235905067ffffffffffffffff811115610a1d57610a1c6109e3565b5b602083019150836001820283011115610a3957610a386109e7565b5b9250929050565b60048110610a4c575f80fd5b50565b5f81359050610a5d81610a40565b92915050565b5f805f8060608587031215610a7b57610a7a6108da565b5b5f85013567ffffffffffffffff811115610a9857610a976108de565b5b610aa4878288016109eb565b94509450506020610ab787828801610901565b9250506040610ac887828801610a4f565b91505092959194509250565b5f805f805f8060808789031215610aee57610aed6108da565b5b5f87013567ffffffffffffffff811115610b0b57610b0a6108de565b5b610b1789828a016109eb565b9650965050602087013567ffffffffffffffff811115610b3a57610b396108de565b5b610b4689828a016109eb565b94509450506040610b5989828a01610901565b9250506060610b6a89828a01610a4f565b9150509295509295509295565b5f81519050919050565b5f82825260208201905092915050565b5f819050602082019050919050565b5f81519050919050565b5f82825260208201905092915050565b8281835e5f83830152505050565b5f601f19601f8301169050919050565b5f610be282610ba0565b610bec8185610baa565b9350610bfc818560208601610bba565b610c0581610bc8565b840191505092915050565b610c19816108e2565b82525050565b60048110610c3057610c2f610953565b5b50565b5f819050610c4082610c1f565b919050565b5f610c4f82610c33565b9050919050565b610c5f81610c45565b82525050565b5f73ffffffffffffffffffffffffffffffffffffffff82169050919050565b5f610c8e82610c65565b9050919050565b610c9e81610c84565b82525050565b5f60c083015f8301518482035f860152610cbe8282610bd8565b9150506020830151610cd36020860182610c10565b506040830151610ce66040860182610c10565b506060830151610cf96060860182610c56565b506080830151610d0c6080860182610c10565b5060a0830151610d1f60a0860182610c95565b508091505092915050565b5f610d358383610ca4565b905092915050565b5f602082019050919050565b5f610d5382610b77565b610d5d8185610b81565b935083602082028501610d6f85610b91565b805f5b85811015610daa5784840389528151610d8b8582610d2a565b9450610d9683610d3d565b925060208a01995050600181019050610d72565b50829750879550505050505092915050565b5f6020820190508181035f830152610dd48184610d49565b905092915050565b610de581610c84565b82525050565b5f602082019050610dfe5f830184610ddc565b92915050565b5f81519050919050565b5f82825260208201905092915050565b5f819050602082019050919050565b5f60e083015f8301518482035f860152610e478282610bd8565b91505060208301518482036020860152610e618282610bd8565b9150506040830151610e766040860182610c10565b506060830151610e896060860182610c56565b506080830151610e9c6080860182610c10565b5060a0830151610eaf60a0860182610c95565b5060c0830151610ec260c0860182610c10565b508091505092915050565b5f610ed88383610e2d565b905092915050565b5f602082019050919050565b5f610ef682610e04565b610f008185610e0e565b935083602082028501610f1285610e1e565b805f5b85811015610f4d5784840389528151610f2e8582610ecd565b9450610f3983610ee0565b925060208a01995050600181019050610f15565b50829750879550505050505092915050565b5f6020820190508181035f830152610f778184610eec565b905092915050565b5f82825260208201905092915050565b7f4e6f742061757468756f72697a656400000000000000000000000000000000005f82015250565b5f610fc3600f83610f7f565b9150610fce82610f8f565b602082019050919050565b5f6020820190508181035f830152610ff081610fb7565b9050919050565b7f596f75206172652062656c6f77203138000000000000000000000000000000005f82015250565b5f61102b601083610f7f565b915061103682610ff7565b602082019050919050565b5f6020820190508181035f8301526110588161101f565b9050919050565b7f596f752061726520616c726561647920726567697374657265640000000000005f82015250565b5f611093601a83610f7f565b915061109e8261105f565b602082019050919050565b5f6020820190508181035f8301526110c081611087565b9050919050565b7f4e487b71000000000000000000000000000000000000000000000000000000005f52604160045260245ffd5b7f4e487b71000000000000000000000000000000000000000000000000000000005f52602260045260245ffd5b5f600282049050600182168061113857607f821691505b60208210810361114b5761114a6110f4565b5b50919050565b5f819050815f5260205f209050919050565b5f6020601f8301049050919050565b5f82821b905092915050565b5f600883026111ad7fffffffffffffffffffffffffffffffffffffffffffffffffffffffffffffffff82611172565b6111b78683611172565b95508019841693508086168417925050509392505050565b5f819050919050565b5f6111f26111ed6111e8846108e2565b6111cf565b6108e2565b9050919050565b5f819050919050565b61120b836111d8565b61121f611217826111f9565b84845461117e565b825550505050565b5f90565b611233611227565b61123e818484611202565b505050565b5b81811015611261576112565f8261122b565b600181019050611244565b5050565b601f8211156112a65761127781611151565b61128084611163565b8101602085101561128f578190505b6112a361129b85611163565b830182611243565b50505b505050565b5f82821c905092915050565b5f6112c65f19846008026112ab565b1980831691505092915050565b5f6112de83836112b7565b9150826002028217905092915050565b6112f782610ba0565b67ffffffffffffffff8111156113105761130f6110c7565b5b61131a8254611121565b611325828285611265565b5f60209050601f831160018114611356575f8415611344578287015190505b61134e85826112d3565b8655506113b5565b601f19841661136486611151565b5f5b8281101561138b57848901518255600182019150602085019450602081019050611366565b868310156113a857848901516113a4601f8916826112b7565b8355505b6001600288020188555050505b505050505050565b7f4e487b71000000000000000000000000000000000000000000000000000000005f52601160045260245ffd5b5f6113f4826108e2565b91507fffffffffffffffffffffffffffffffffffffffffffffffffffffffffffffffff8203611426576114256113bd565b5b600182019050919050565b7f43616e64696461746520526567697374726174696f6e2046756c6c00000000005f82015250565b5f611465601b83610f7f565b915061147082611431565b602082019050919050565b5f6020820190508181035f83015261149281611459565b9050919050565b7f456c656374696f6e20436f6d6d6973696f6e206e6f7420616c6c6f77656420745f8201527f6f20726567697374657200000000000000000000000000000000000000000000602082015250565b5f6114f3602a83610f7f565b91506114fe82611499565b604082019050919050565b5f6020820190508181035f830152611520816114e7565b905091905056fea2646970667358221220d27f005de0cafc55a58c50afc98e687862494597029892153a647a8d3713956e64736f6c634300081a0033",
					"opcodes": "PUSH1 0x80 PUSH1 0x40 MSTORE PUSH1 0x1 PUSH1 0x2 SSTORE PUSH1 0x1 PUSH1 0x3 SSTORE CALLVALUE DUP1 ISZERO PUSH1 0x18 JUMPI PUSH0 DUP1 REVERT JUMPDEST POP CALLER PUSH0 DUP1 PUSH2 0x100 EXP DUP2 SLOAD DUP2 PUSH20 0xFFFFFFFFFFFFFFFFFFFFFFFFFFFFFFFFFFFFFFFF MUL NOT AND SWAP1 DUP4 PUSH20 0xFFFFFFFFFFFFFFFFFFFFFFFFFFFFFFFFFFFFFFFF AND MUL OR SWAP1 SSTORE POP PUSH2 0x155D DUP1 PUSH2 0x65 PUSH0 CODECOPY PUSH0 RETURN INVALID PUSH1 0x80 PUSH1 0x40 MSTORE CALLVALUE DUP1 ISZERO PUSH2 0xF JUMPI PUSH0 DUP1 REVERT JUMPDEST POP PUSH1 0x4 CALLDATASIZE LT PUSH2 0x9C JUMPI PUSH0 CALLDATALOAD PUSH1 0xE0 SHR DUP1 PUSH4 0x9FA4E440 GT PUSH2 0x64 JUMPI DUP1 PUSH4 0x9FA4E440 EQ PUSH2 0x11C JUMPI DUP1 PUSH4 0xA15A36C7 EQ PUSH2 0x126 JUMPI DUP1 PUSH4 0xB28D92AE EQ PUSH2 0x142 JUMPI DUP1 PUSH4 0xDFBF53AE EQ PUSH2 0x160 JUMPI DUP1 PUSH4 0xFDBC4006 EQ PUSH2 0x17E JUMPI PUSH2 0x9C JUMP JUMPDEST DUP1 PUSH4 0x2C0A3F89 EQ PUSH2 0xA0 JUMPI DUP1 PUSH4 0x581C281C EQ PUSH2 0xBC JUMPI DUP1 PUSH4 0x6CE2CCC0 EQ PUSH2 0xDA JUMPI DUP1 PUSH4 0x81BA732F EQ PUSH2 0xE4 JUMPI DUP1 PUSH4 0x982C777D EQ PUSH2 0x100 JUMPI JUMPDEST PUSH0 DUP1 REVERT JUMPDEST PUSH2 0xBA PUSH1 0x4 DUP1 CALLDATASIZE SUB DUP2 ADD SWAP1 PUSH2 0xB5 SWAP2 SWAP1 PUSH2 0x915 JUMP JUMPDEST PUSH2 0x19C JUMP JUMPDEST STOP JUMPDEST PUSH2 0xC4 PUSH2 0x1A0 JUMP JUMPDEST PUSH1 0x40 MLOAD PUSH2 0xD1 SWAP2 SWAP1 PUSH2 0x9C6 JUMP JUMPDEST PUSH1 0x40 MLOAD DUP1 SWAP2 SUB SWAP1 RETURN JUMPDEST PUSH2 0xE2 PUSH2 0x1A4 JUMP JUMPDEST STOP JUMPDEST PUSH2 0xFE PUSH1 0x4 DUP1 CALLDATASIZE SUB DUP2 ADD SWAP1 PUSH2 0xF9 SWAP2 SWAP1 PUSH2 0xA63 JUMP JUMPDEST PUSH2 0x233 JUMP JUMPDEST STOP JUMPDEST PUSH2 0x11A PUSH1 0x4 DUP1 CALLDATASIZE SUB DUP2 ADD SWAP1 PUSH2 0x115 SWAP2 SWAP1 PUSH2 0xAD4 JUMP JUMPDEST PUSH2 0x433 JUMP JUMPDEST STOP JUMPDEST PUSH2 0x124 PUSH2 0x765 JUMP JUMPDEST STOP JUMPDEST PUSH2 0x140 PUSH1 0x4 DUP1 CALLDATASIZE SUB DUP2 ADD SWAP1 PUSH2 0x13B SWAP2 SWAP1 PUSH2 0x915 JUMP JUMPDEST PUSH2 0x80E JUMP JUMPDEST STOP JUMPDEST PUSH2 0x14A PUSH2 0x89F JUMP JUMPDEST PUSH1 0x40 MLOAD PUSH2 0x157 SWAP2 SWAP1 PUSH2 0xDBC JUMP JUMPDEST PUSH1 0x40 MLOAD DUP1 SWAP2 SUB SWAP1 RETURN JUMPDEST PUSH2 0x168 PUSH2 0x8A4 JUMP JUMPDEST PUSH1 0x40 MLOAD PUSH2 0x175 SWAP2 SWAP1 PUSH2 0xDEB JUMP JUMPDEST PUSH1 0x40 MLOAD DUP1 SWAP2 SUB SWAP1 RETURN JUMPDEST PUSH2 0x186 PUSH2 0x8C9 JUMP JUMPDEST PUSH1 0x40 MLOAD PUSH2 0x193 SWAP2 SWAP1 PUSH2 0xF5F JUMP JUMPDEST PUSH1 0x40 MLOAD DUP1 SWAP2 SUB SWAP1 RETURN JUMPDEST POP POP JUMP JUMPDEST PUSH0 SWAP1 JUMP JUMPDEST PUSH0 DUP1 SLOAD SWAP1 PUSH2 0x100 EXP SWAP1 DIV PUSH20 0xFFFFFFFFFFFFFFFFFFFFFFFFFFFFFFFFFFFFFFFF AND PUSH20 0xFFFFFFFFFFFFFFFFFFFFFFFFFFFFFFFFFFFFFFFF AND CALLER PUSH20 0xFFFFFFFFFFFFFFFFFFFFFFFFFFFFFFFFFFFFFFFF AND EQ PUSH2 0x231 JUMPI PUSH1 0x40 MLOAD PUSH32 0x8C379A000000000000000000000000000000000000000000000000000000000 DUP2 MSTORE PUSH1 0x4 ADD PUSH2 0x228 SWAP1 PUSH2 0xFD9 JUMP JUMPDEST PUSH1 0x40 MLOAD DUP1 SWAP2 SUB SWAP1 REVERT JUMPDEST JUMP JUMPDEST PUSH1 0x12 DUP3 LT ISZERO PUSH2 0x277 JUMPI PUSH1 0x40 MLOAD PUSH32 0x8C379A000000000000000000000000000000000000000000000000000000000 DUP2 MSTORE PUSH1 0x4 ADD PUSH2 0x26E SWAP1 PUSH2 0x1041 JUMP JUMPDEST PUSH1 0x40 MLOAD DUP1 SWAP2 SUB SWAP1 REVERT JUMPDEST PUSH2 0x280 CALLER PUSH2 0x8CE JUMP JUMPDEST PUSH2 0x2BF JUMPI PUSH1 0x40 MLOAD PUSH32 0x8C379A000000000000000000000000000000000000000000000000000000000 DUP2 MSTORE PUSH1 0x4 ADD PUSH2 0x2B6 SWAP1 PUSH2 0x10A9 JUMP JUMPDEST PUSH1 0x40 MLOAD DUP1 SWAP2 SUB SWAP1 REVERT JUMPDEST PUSH1 0x40 MLOAD DUP1 PUSH1 0xC0 ADD PUSH1 0x40 MSTORE DUP1 DUP6 DUP6 DUP1 DUP1 PUSH1 0x1F ADD PUSH1 0x20 DUP1 SWAP2 DIV MUL PUSH1 0x20 ADD PUSH1 0x40 MLOAD SWAP1 DUP2 ADD PUSH1 0x40 MSTORE DUP1 SWAP4 SWAP3 SWAP2 SWAP1 DUP2 DUP2 MSTORE PUSH1 0x20 ADD DUP4 DUP4 DUP1 DUP3 DUP5 CALLDATACOPY PUSH0 DUP2 DUP5 ADD MSTORE PUSH1 0x1F NOT PUSH1 0x1F DUP3 ADD AND SWAP1 POP DUP1 DUP4 ADD SWAP3 POP POP POP POP POP POP POP DUP2 MSTORE PUSH1 0x20 ADD DUP4 DUP2 MSTORE PUSH1 0x20 ADD PUSH1 0x2 SLOAD DUP2 MSTORE PUSH1 0x20 ADD DUP3 PUSH1 0x3 DUP2 GT ISZERO PUSH2 0x334 JUMPI PUSH2 0x333 PUSH2 0x953 JUMP JUMPDEST JUMPDEST DUP2 MSTORE PUSH1 0x20 ADD PUSH0 DUP2 MSTORE PUSH1 0x20 ADD CALLER PUSH20 0xFFFFFFFFFFFFFFFFFFFFFFFFFFFFFFFFFFFFFFFF AND DUP2 MSTORE POP PUSH1 0x7 PUSH0 PUSH1 0x2 SLOAD DUP2 MSTORE PUSH1 0x20 ADD SWAP1 DUP2 MSTORE PUSH1 0x20 ADD PUSH0 KECCAK256 PUSH0 DUP3 ADD MLOAD DUP2 PUSH0 ADD SWAP1 DUP2 PUSH2 0x37F SWAP2 SWAP1 PUSH2 0x12EE JUMP JUMPDEST POP PUSH1 0x20 DUP3 ADD MLOAD DUP2 PUSH1 0x1 ADD SSTORE PUSH1 0x40 DUP3 ADD MLOAD DUP2 PUSH1 0x2 ADD SSTORE PUSH1 0x60 DUP3 ADD MLOAD DUP2 PUSH1 0x3 ADD PUSH0 PUSH2 0x100 EXP DUP2 SLOAD DUP2 PUSH1 0xFF MUL NOT AND SWAP1 DUP4 PUSH1 0x3 DUP2 GT ISZERO PUSH2 0x3BE JUMPI PUSH2 0x3BD PUSH2 0x953 JUMP JUMPDEST JUMPDEST MUL OR SWAP1 SSTORE POP PUSH1 0x80 DUP3 ADD MLOAD DUP2 PUSH1 0x4 ADD SSTORE PUSH1 0xA0 DUP3 ADD MLOAD DUP2 PUSH1 0x5 ADD PUSH0 PUSH2 0x100 EXP DUP2 SLOAD DUP2 PUSH20 0xFFFFFFFFFFFFFFFFFFFFFFFFFFFFFFFFFFFFFFFF MUL NOT AND SWAP1 DUP4 PUSH20 0xFFFFFFFFFFFFFFFFFFFFFFFFFFFFFFFFFFFFFFFF AND MUL OR SWAP1 SSTORE POP SWAP1 POP POP PUSH1 0x2 PUSH0 DUP2 SLOAD DUP1 SWAP3 SWAP2 SWAP1 PUSH2 0x428 SWAP1 PUSH2 0x13EA JUMP JUMPDEST SWAP2 SWAP1 POP SSTORE POP POP POP POP POP JUMP JUMPDEST PUSH1 0x12 DUP3 LT ISZERO PUSH2 0x477 JUMPI PUSH1 0x40 MLOAD PUSH32 0x8C379A000000000000000000000000000000000000000000000000000000000 DUP2 MSTORE PUSH1 0x4 ADD PUSH2 0x46E SWAP1 PUSH2 0x1041 JUMP JUMPDEST PUSH1 0x40 MLOAD DUP1 SWAP2 SUB SWAP1 REVERT JUMPDEST PUSH2 0x480 CALLER PUSH2 0x8D4 JUMP JUMPDEST PUSH2 0x4BF JUMPI PUSH1 0x40 MLOAD PUSH32 0x8C379A000000000000000000000000000000000000000000000000000000000 DUP2 MSTORE PUSH1 0x4 ADD PUSH2 0x4B6 SWAP1 PUSH2 0x10A9 JUMP JUMPDEST PUSH1 0x40 MLOAD DUP1 SWAP2 SUB SWAP1 REVERT JUMPDEST PUSH1 0x3 DUP1 SLOAD LT PUSH2 0x503 JUMPI PUSH1 0x40 MLOAD PUSH32 0x8C379A000000000000000000000000000000000000000000000000000000000 DUP2 MSTORE PUSH1 0x4 ADD PUSH2 0x4FA SWAP1 PUSH2 0x147B JUMP JUMPDEST PUSH1 0x40 MLOAD DUP1 SWAP2 SUB SWAP1 REVERT JUMPDEST PUSH0 DUP1 SLOAD SWAP1 PUSH2 0x100 EXP SWAP1 DIV PUSH20 0xFFFFFFFFFFFFFFFFFFFFFFFFFFFFFFFFFFFFFFFF AND PUSH20 0xFFFFFFFFFFFFFFFFFFFFFFFFFFFFFFFFFFFFFFFF AND CALLER PUSH20 0xFFFFFFFFFFFFFFFFFFFFFFFFFFFFFFFFFFFFFFFF AND SUB PUSH2 0x590 JUMPI PUSH1 0x40 MLOAD PUSH32 0x8C379A000000000000000000000000000000000000000000000000000000000 DUP2 MSTORE PUSH1 0x4 ADD PUSH2 0x587 SWAP1 PUSH2 0x1509 JUMP JUMPDEST PUSH1 0x40 MLOAD DUP1 SWAP2 SUB SWAP1 REVERT JUMPDEST PUSH1 0x40 MLOAD DUP1 PUSH1 0xE0 ADD PUSH1 0x40 MSTORE DUP1 DUP8 DUP8 DUP1 DUP1 PUSH1 0x1F ADD PUSH1 0x20 DUP1 SWAP2 DIV MUL PUSH1 0x20 ADD PUSH1 0x40 MLOAD SWAP1 DUP2 ADD PUSH1 0x40 MSTORE DUP1 SWAP4 SWAP3 SWAP2 SWAP1 DUP2 DUP2 MSTORE PUSH1 0x20 ADD DUP4 DUP4 DUP1 DUP3 DUP5 CALLDATACOPY PUSH0 DUP2 DUP5 ADD MSTORE PUSH1 0x1F NOT PUSH1 0x1F DUP3 ADD AND SWAP1 POP DUP1 DUP4 ADD SWAP3 POP POP POP POP POP POP POP DUP2 MSTORE PUSH1 0x20 ADD DUP6 DUP6 DUP1 DUP1 PUSH1 0x1F ADD PUSH1 0x20 DUP1 SWAP2 DIV MUL PUSH1 0x20 ADD PUSH1 0x40 MLOAD SWAP1 DUP2 ADD PUSH1 0x40 MSTORE DUP1 SWAP4 SWAP3 SWAP2 SWAP1 DUP2 DUP2 MSTORE PUSH1 0x20 ADD DUP4 DUP4 DUP1 DUP3 DUP5 CALLDATACOPY PUSH0 DUP2 DUP5 ADD MSTORE PUSH1 0x1F NOT PUSH1 0x1F DUP3 ADD AND SWAP1 POP DUP1 DUP4 ADD SWAP3 POP POP POP POP POP POP POP DUP2 MSTORE PUSH1 0x20 ADD DUP4 DUP2 MSTORE PUSH1 0x20 ADD DUP3 PUSH1 0x3 DUP2 GT ISZERO PUSH2 0x646 JUMPI PUSH2 0x645 PUSH2 0x953 JUMP JUMPDEST JUMPDEST DUP2 MSTORE PUSH1 0x20 ADD PUSH1 0x3 SLOAD DUP2 MSTORE PUSH1 0x20 ADD CALLER PUSH20 0xFFFFFFFFFFFFFFFFFFFFFFFFFFFFFFFFFFFFFFFF AND DUP2 MSTORE PUSH1 0x20 ADD PUSH0 DUP2 MSTORE POP PUSH1 0x8 PUSH0 PUSH1 0x3 SLOAD DUP2 MSTORE PUSH1 0x20 ADD SWAP1 DUP2 MSTORE PUSH1 0x20 ADD PUSH0 KECCAK256 PUSH0 DUP3 ADD MLOAD DUP2 PUSH0 ADD SWAP1 DUP2 PUSH2 0x699 SWAP2 SWAP1 PUSH2 0x12EE JUMP JUMPDEST POP PUSH1 0x20 DUP3 ADD MLOAD DUP2 PUSH1 0x1 ADD SWAP1 DUP2 PUSH2 0x6AF SWAP2 SWAP1 PUSH2 0x12EE JUMP JUMPDEST POP PUSH1 0x40 DUP3 ADD MLOAD DUP2 PUSH1 0x2 ADD SSTORE PUSH1 0x60 DUP3 ADD MLOAD DUP2 PUSH1 0x3 ADD PUSH0 PUSH2 0x100 EXP DUP2 SLOAD DUP2 PUSH1 0xFF MUL NOT AND SWAP1 DUP4 PUSH1 0x3 DUP2 GT ISZERO PUSH2 0x6E4 JUMPI PUSH2 0x6E3 PUSH2 0x953 JUMP JUMPDEST JUMPDEST MUL OR SWAP1 SSTORE POP PUSH1 0x80 DUP3 ADD MLOAD DUP2 PUSH1 0x4 ADD SSTORE PUSH1 0xA0 DUP3 ADD MLOAD DUP2 PUSH1 0x5 ADD PUSH0 PUSH2 0x100 EXP DUP2 SLOAD DUP2 PUSH20 0xFFFFFFFFFFFFFFFFFFFFFFFFFFFFFFFFFFFFFFFF MUL NOT AND SWAP1 DUP4 PUSH20 0xFFFFFFFFFFFFFFFFFFFFFFFFFFFFFFFFFFFFFFFF AND MUL OR SWAP1 SSTORE POP PUSH1 0xC0 DUP3 ADD MLOAD DUP2 PUSH1 0x6 ADD SSTORE SWAP1 POP POP PUSH1 0x3 PUSH0 DUP2 SLOAD DUP1 SWAP3 SWAP2 SWAP1 PUSH2 0x758 SWAP1 PUSH2 0x13EA JUMP JUMPDEST SWAP2 SWAP1 POP SSTORE POP POP POP POP POP POP POP JUMP JUMPDEST PUSH0 DUP1 SLOAD SWAP1 PUSH2 0x100 EXP SWAP1 DIV PUSH20 0xFFFFFFFFFFFFFFFFFFFFFFFFFFFFFFFFFFFFFFFF AND PUSH20 0xFFFFFFFFFFFFFFFFFFFFFFFFFFFFFFFFFFFFFFFF AND CALLER PUSH20 0xFFFFFFFFFFFFFFFFFFFFFFFFFFFFFFFFFFFFFFFF AND EQ PUSH2 0x7F2 JUMPI PUSH1 0x40 MLOAD PUSH32 0x8C379A000000000000000000000000000000000000000000000000000000000 DUP2 MSTORE PUSH1 0x4 ADD PUSH2 0x7E9 SWAP1 PUSH2 0xFD9 JUMP JUMPDEST PUSH1 0x40 MLOAD DUP1 SWAP2 SUB SWAP1 REVERT JUMPDEST PUSH1 0x1 PUSH1 0x6 PUSH0 PUSH2 0x100 EXP DUP2 SLOAD DUP2 PUSH1 0xFF MUL NOT AND SWAP1 DUP4 ISZERO ISZERO MUL OR SWAP1 SSTORE POP JUMP JUMPDEST PUSH0 DUP1 SLOAD SWAP1 PUSH2 0x100 EXP SWAP1 DIV PUSH20 0xFFFFFFFFFFFFFFFFFFFFFFFFFFFFFFFFFFFFFFFF AND PUSH20 0xFFFFFFFFFFFFFFFFFFFFFFFFFFFFFFFFFFFFFFFF AND CALLER PUSH20 0xFFFFFFFFFFFFFFFFFFFFFFFFFFFFFFFFFFFFFFFF AND EQ PUSH2 0x89B JUMPI PUSH1 0x40 MLOAD PUSH32 0x8C379A000000000000000000000000000000000000000000000000000000000 DUP2 MSTORE PUSH1 0x4 ADD PUSH2 0x892 SWAP1 PUSH2 0xFD9 JUMP JUMPDEST PUSH1 0x40 MLOAD DUP1 SWAP2 SUB SWAP1 REVERT JUMPDEST POP POP JUMP JUMPDEST PUSH1 0x60 SWAP1 JUMP JUMPDEST PUSH1 0x1 PUSH0 SWAP1 SLOAD SWAP1 PUSH2 0x100 EXP SWAP1 DIV PUSH20 0xFFFFFFFFFFFFFFFFFFFFFFFFFFFFFFFFFFFFFFFF AND DUP2 JUMP JUMPDEST PUSH1 0x60 SWAP1 JUMP JUMPDEST PUSH0 SWAP2 SWAP1 POP JUMP JUMPDEST PUSH0 SWAP2 SWAP1 POP JUMP JUMPDEST PUSH0 DUP1 REVERT JUMPDEST PUSH0 DUP1 REVERT JUMPDEST PUSH0 DUP2 SWAP1 POP SWAP2 SWAP1 POP JUMP JUMPDEST PUSH2 0x8F4 DUP2 PUSH2 0x8E2 JUMP JUMPDEST DUP2 EQ PUSH2 0x8FE JUMPI PUSH0 DUP1 REVERT JUMPDEST POP JUMP JUMPDEST PUSH0 DUP2 CALLDATALOAD SWAP1 POP PUSH2 0x90F DUP2 PUSH2 0x8EB JUMP JUMPDEST SWAP3 SWAP2 POP POP JUMP JUMPDEST PUSH0 DUP1 PUSH1 0x40 DUP4 DUP6 SUB SLT ISZERO PUSH2 0x92B JUMPI PUSH2 0x92A PUSH2 0x8DA JUMP JUMPDEST JUMPDEST PUSH0 PUSH2 0x938 DUP6 DUP3 DUP7 ADD PUSH2 0x901 JUMP JUMPDEST SWAP3 POP POP PUSH1 0x20 PUSH2 0x949 DUP6 DUP3 DUP7 ADD PUSH2 0x901 JUMP JUMPDEST SWAP2 POP POP SWAP3 POP SWAP3 SWAP1 POP JUMP JUMPDEST PUSH32 0x4E487B7100000000000000000000000000000000000000000000000000000000 PUSH0 MSTORE PUSH1 0x21 PUSH1 0x4 MSTORE PUSH1 0x24 PUSH0 REVERT JUMPDEST PUSH1 0x3 DUP2 LT PUSH2 0x991 JUMPI PUSH2 0x990 PUSH2 0x953 JUMP JUMPDEST JUMPDEST POP JUMP JUMPDEST PUSH0 DUP2 SWAP1 POP PUSH2 0x9A1 DUP3 PUSH2 0x980 JUMP JUMPDEST SWAP2 SWAP1 POP JUMP JUMPDEST PUSH0 PUSH2 0x9B0 DUP3 PUSH2 0x994 JUMP JUMPDEST SWAP1 POP SWAP2 SWAP1 POP JUMP JUMPDEST PUSH2 0x9C0 DUP2 PUSH2 0x9A6 JUMP JUMPDEST DUP3 MSTORE POP POP JUMP JUMPDEST PUSH0 PUSH1 0x20 DUP3 ADD SWAP1 POP PUSH2 0x9D9 PUSH0 DUP4 ADD DUP5 PUSH2 0x9B7 JUMP JUMPDEST SWAP3 SWAP2 POP POP JUMP JUMPDEST PUSH0 DUP1 REVERT JUMPDEST PUSH0 DUP1 REVERT JUMPDEST PUSH0 DUP1 REVERT JUMPDEST PUSH0 DUP1 DUP4 PUSH1 0x1F DUP5 ADD SLT PUSH2 0xA00 JUMPI PUSH2 0x9FF PUSH2 0x9DF JUMP JUMPDEST JUMPDEST DUP3 CALLDATALOAD SWAP1 POP PUSH8 0xFFFFFFFFFFFFFFFF DUP2 GT ISZERO PUSH2 0xA1D JUMPI PUSH2 0xA1C PUSH2 0x9E3 JUMP JUMPDEST JUMPDEST PUSH1 0x20 DUP4 ADD SWAP2 POP DUP4 PUSH1 0x1 DUP3 MUL DUP4 ADD GT ISZERO PUSH2 0xA39 JUMPI PUSH2 0xA38 PUSH2 0x9E7 JUMP JUMPDEST JUMPDEST SWAP3 POP SWAP3 SWAP1 POP JUMP JUMPDEST PUSH1 0x4 DUP2 LT PUSH2 0xA4C JUMPI PUSH0 DUP1 REVERT JUMPDEST POP JUMP JUMPDEST PUSH0 DUP2 CALLDATALOAD SWAP1 POP PUSH2 0xA5D DUP2 PUSH2 0xA40 JUMP JUMPDEST SWAP3 SWAP2 POP POP JUMP JUMPDEST PUSH0 DUP1 PUSH0 DUP1 PUSH1 0x60 DUP6 DUP8 SUB SLT ISZERO PUSH2 0xA7B JUMPI PUSH2 0xA7A PUSH2 0x8DA JUMP JUMPDEST JUMPDEST PUSH0 DUP6 ADD CALLDATALOAD PUSH8 0xFFFFFFFFFFFFFFFF DUP2 GT ISZERO PUSH2 0xA98 JUMPI PUSH2 0xA97 PUSH2 0x8DE JUMP JUMPDEST JUMPDEST PUSH2 0xAA4 DUP8 DUP3 DUP9 ADD PUSH2 0x9EB JUMP JUMPDEST SWAP5 POP SWAP5 POP POP PUSH1 0x20 PUSH2 0xAB7 DUP8 DUP3 DUP9 ADD PUSH2 0x901 JUMP JUMPDEST SWAP3 POP POP PUSH1 0x40 PUSH2 0xAC8 DUP8 DUP3 DUP9 ADD PUSH2 0xA4F JUMP JUMPDEST SWAP2 POP POP SWAP3 SWAP6 SWAP2 SWAP5 POP SWAP3 POP JUMP JUMPDEST PUSH0 DUP1 PUSH0 DUP1 PUSH0 DUP1 PUSH1 0x80 DUP8 DUP10 SUB SLT ISZERO PUSH2 0xAEE JUMPI PUSH2 0xAED PUSH2 0x8DA JUMP JUMPDEST JUMPDEST PUSH0 DUP8 ADD CALLDATALOAD PUSH8 0xFFFFFFFFFFFFFFFF DUP2 GT ISZERO PUSH2 0xB0B JUMPI PUSH2 0xB0A PUSH2 0x8DE JUMP JUMPDEST JUMPDEST PUSH2 0xB17 DUP10 DUP3 DUP11 ADD PUSH2 0x9EB JUMP JUMPDEST SWAP7 POP SWAP7 POP POP PUSH1 0x20 DUP8 ADD CALLDATALOAD PUSH8 0xFFFFFFFFFFFFFFFF DUP2 GT ISZERO PUSH2 0xB3A JUMPI PUSH2 0xB39 PUSH2 0x8DE JUMP JUMPDEST JUMPDEST PUSH2 0xB46 DUP10 DUP3 DUP11 ADD PUSH2 0x9EB JUMP JUMPDEST SWAP5 POP SWAP5 POP POP PUSH1 0x40 PUSH2 0xB59 DUP10 DUP3 DUP11 ADD PUSH2 0x901 JUMP JUMPDEST SWAP3 POP POP PUSH1 0x60 PUSH2 0xB6A DUP10 DUP3 DUP11 ADD PUSH2 0xA4F JUMP JUMPDEST SWAP2 POP POP SWAP3 SWAP6 POP SWAP3 SWAP6 POP SWAP3 SWAP6 JUMP JUMPDEST PUSH0 DUP2 MLOAD SWAP1 POP SWAP2 SWAP1 POP JUMP JUMPDEST PUSH0 DUP3 DUP3 MSTORE PUSH1 0x20 DUP3 ADD SWAP1 POP SWAP3 SWAP2 POP POP JUMP JUMPDEST PUSH0 DUP2 SWAP1 POP PUSH1 0x20 DUP3 ADD SWAP1 POP SWAP2 SWAP1 POP JUMP JUMPDEST PUSH0 DUP2 MLOAD SWAP1 POP SWAP2 SWAP1 POP JUMP JUMPDEST PUSH0 DUP3 DUP3 MSTORE PUSH1 0x20 DUP3 ADD SWAP1 POP SWAP3 SWAP2 POP POP JUMP JUMPDEST DUP3 DUP2 DUP4 MCOPY PUSH0 DUP4 DUP4 ADD MSTORE POP POP POP JUMP JUMPDEST PUSH0 PUSH1 0x1F NOT PUSH1 0x1F DUP4 ADD AND SWAP1 POP SWAP2 SWAP1 POP JUMP JUMPDEST PUSH0 PUSH2 0xBE2 DUP3 PUSH2 0xBA0 JUMP JUMPDEST PUSH2 0xBEC DUP2 DUP6 PUSH2 0xBAA JUMP JUMPDEST SWAP4 POP PUSH2 0xBFC DUP2 DUP6 PUSH1 0x20 DUP7 ADD PUSH2 0xBBA JUMP JUMPDEST PUSH2 0xC05 DUP2 PUSH2 0xBC8 JUMP JUMPDEST DUP5 ADD SWAP2 POP POP SWAP3 SWAP2 POP POP JUMP JUMPDEST PUSH2 0xC19 DUP2 PUSH2 0x8E2 JUMP JUMPDEST DUP3 MSTORE POP POP JUMP JUMPDEST PUSH1 0x4 DUP2 LT PUSH2 0xC30 JUMPI PUSH2 0xC2F PUSH2 0x953 JUMP JUMPDEST JUMPDEST POP JUMP JUMPDEST PUSH0 DUP2 SWAP1 POP PUSH2 0xC40 DUP3 PUSH2 0xC1F JUMP JUMPDEST SWAP2 SWAP1 POP JUMP JUMPDEST PUSH0 PUSH2 0xC4F DUP3 PUSH2 0xC33 JUMP JUMPDEST SWAP1 POP SWAP2 SWAP1 POP JUMP JUMPDEST PUSH2 0xC5F DUP2 PUSH2 0xC45 JUMP JUMPDEST DUP3 MSTORE POP POP JUMP JUMPDEST PUSH0 PUSH20 0xFFFFFFFFFFFFFFFFFFFFFFFFFFFFFFFFFFFFFFFF DUP3 AND SWAP1 POP SWAP2 SWAP1 POP JUMP JUMPDEST PUSH0 PUSH2 0xC8E DUP3 PUSH2 0xC65 JUMP JUMPDEST SWAP1 POP SWAP2 SWAP1 POP JUMP JUMPDEST PUSH2 0xC9E DUP2 PUSH2 0xC84 JUMP JUMPDEST DUP3 MSTORE POP POP JUMP JUMPDEST PUSH0 PUSH1 0xC0 DUP4 ADD PUSH0 DUP4 ADD MLOAD DUP5 DUP3 SUB PUSH0 DUP7 ADD MSTORE PUSH2 0xCBE DUP3 DUP3 PUSH2 0xBD8 JUMP JUMPDEST SWAP2 POP POP PUSH1 0x20 DUP4 ADD MLOAD PUSH2 0xCD3 PUSH1 0x20 DUP7 ADD DUP3 PUSH2 0xC10 JUMP JUMPDEST POP PUSH1 0x40 DUP4 ADD MLOAD PUSH2 0xCE6 PUSH1 0x40 DUP7 ADD DUP3 PUSH2 0xC10 JUMP JUMPDEST POP PUSH1 0x60 DUP4 ADD MLOAD PUSH2 0xCF9 PUSH1 0x60 DUP7 ADD DUP3 PUSH2 0xC56 JUMP JUMPDEST POP PUSH1 0x80 DUP4 ADD MLOAD PUSH2 0xD0C PUSH1 0x80 DUP7 ADD DUP3 PUSH2 0xC10 JUMP JUMPDEST POP PUSH1 0xA0 DUP4 ADD MLOAD PUSH2 0xD1F PUSH1 0xA0 DUP7 ADD DUP3 PUSH2 0xC95 JUMP JUMPDEST POP DUP1 SWAP2 POP POP SWAP3 SWAP2 POP POP JUMP JUMPDEST PUSH0 PUSH2 0xD35 DUP4 DUP4 PUSH2 0xCA4 JUMP JUMPDEST SWAP1 POP SWAP3 SWAP2 POP POP JUMP JUMPDEST PUSH0 PUSH1 0x20 DUP3 ADD SWAP1 POP SWAP2 SWAP1 POP JUMP JUMPDEST PUSH0 PUSH2 0xD53 DUP3 PUSH2 0xB77 JUMP JUMPDEST PUSH2 0xD5D DUP2 DUP6 PUSH2 0xB81 JUMP JUMPDEST SWAP4 POP DUP4 PUSH1 0x20 DUP3 MUL DUP6 ADD PUSH2 0xD6F DUP6 PUSH2 0xB91 JUMP JUMPDEST DUP1 PUSH0 JUMPDEST DUP6 DUP2 LT ISZERO PUSH2 0xDAA JUMPI DUP5 DUP5 SUB DUP10 MSTORE DUP2 MLOAD PUSH2 0xD8B DUP6 DUP3 PUSH2 0xD2A JUMP JUMPDEST SWAP5 POP PUSH2 0xD96 DUP4 PUSH2 0xD3D JUMP JUMPDEST SWAP3 POP PUSH1 0x20 DUP11 ADD SWAP10 POP POP PUSH1 0x1 DUP2 ADD SWAP1 POP PUSH2 0xD72 JUMP JUMPDEST POP DUP3 SWAP8 POP DUP8 SWAP6 POP POP POP POP POP POP SWAP3 SWAP2 POP POP JUMP JUMPDEST PUSH0 PUSH1 0x20 DUP3 ADD SWAP1 POP DUP2 DUP2 SUB PUSH0 DUP4 ADD MSTORE PUSH2 0xDD4 DUP2 DUP5 PUSH2 0xD49 JUMP JUMPDEST SWAP1 POP SWAP3 SWAP2 POP POP JUMP JUMPDEST PUSH2 0xDE5 DUP2 PUSH2 0xC84 JUMP JUMPDEST DUP3 MSTORE POP POP JUMP JUMPDEST PUSH0 PUSH1 0x20 DUP3 ADD SWAP1 POP PUSH2 0xDFE PUSH0 DUP4 ADD DUP5 PUSH2 0xDDC JUMP JUMPDEST SWAP3 SWAP2 POP POP JUMP JUMPDEST PUSH0 DUP2 MLOAD SWAP1 POP SWAP2 SWAP1 POP JUMP JUMPDEST PUSH0 DUP3 DUP3 MSTORE PUSH1 0x20 DUP3 ADD SWAP1 POP SWAP3 SWAP2 POP POP JUMP JUMPDEST PUSH0 DUP2 SWAP1 POP PUSH1 0x20 DUP3 ADD SWAP1 POP SWAP2 SWAP1 POP JUMP JUMPDEST PUSH0 PUSH1 0xE0 DUP4 ADD PUSH0 DUP4 ADD MLOAD DUP5 DUP3 SUB PUSH0 DUP7 ADD MSTORE PUSH2 0xE47 DUP3 DUP3 PUSH2 0xBD8 JUMP JUMPDEST SWAP2 POP POP PUSH1 0x20 DUP4 ADD MLOAD DUP5 DUP3 SUB PUSH1 0x20 DUP7 ADD MSTORE PUSH2 0xE61 DUP3 DUP3 PUSH2 0xBD8 JUMP JUMPDEST SWAP2 POP POP PUSH1 0x40 DUP4 ADD MLOAD PUSH2 0xE76 PUSH1 0x40 DUP7 ADD DUP3 PUSH2 0xC10 JUMP JUMPDEST POP PUSH1 0x60 DUP4 ADD MLOAD PUSH2 0xE89 PUSH1 0x60 DUP7 ADD DUP3 PUSH2 0xC56 JUMP JUMPDEST POP PUSH1 0x80 DUP4 ADD MLOAD PUSH2 0xE9C PUSH1 0x80 DUP7 ADD DUP3 PUSH2 0xC10 JUMP JUMPDEST POP PUSH1 0xA0 DUP4 ADD MLOAD PUSH2 0xEAF PUSH1 0xA0 DUP7 ADD DUP3 PUSH2 0xC95 JUMP JUMPDEST POP PUSH1 0xC0 DUP4 ADD MLOAD PUSH2 0xEC2 PUSH1 0xC0 DUP7 ADD DUP3 PUSH2 0xC10 JUMP JUMPDEST POP DUP1 SWAP2 POP POP SWAP3 SWAP2 POP POP JUMP JUMPDEST PUSH0 PUSH2 0xED8 DUP4 DUP4 PUSH2 0xE2D JUMP JUMPDEST SWAP1 POP SWAP3 SWAP2 POP POP JUMP JUMPDEST PUSH0 PUSH1 0x20 DUP3 ADD SWAP1 POP SWAP2 SWAP1 POP JUMP JUMPDEST PUSH0 PUSH2 0xEF6 DUP3 PUSH2 0xE04 JUMP JUMPDEST PUSH2 0xF00 DUP2 DUP6 PUSH2 0xE0E JUMP JUMPDEST SWAP4 POP DUP4 PUSH1 0x20 DUP3 MUL DUP6 ADD PUSH2 0xF12 DUP6 PUSH2 0xE1E JUMP JUMPDEST DUP1 PUSH0 JUMPDEST DUP6 DUP2 LT ISZERO PUSH2 0xF4D JUMPI DUP5 DUP5 SUB DUP10 MSTORE DUP2 MLOAD PUSH2 0xF2E DUP6 DUP3 PUSH2 0xECD JUMP JUMPDEST SWAP5 POP PUSH2 0xF39 DUP4 PUSH2 0xEE0 JUMP JUMPDEST SWAP3 POP PUSH1 0x20 DUP11 ADD SWAP10 POP POP PUSH1 0x1 DUP2 ADD SWAP1 POP PUSH2 0xF15 JUMP JUMPDEST POP DUP3 SWAP8 POP DUP8 SWAP6 POP POP POP POP POP POP SWAP3 SWAP2 POP POP JUMP JUMPDEST PUSH0 PUSH1 0x20 DUP3 ADD SWAP1 POP DUP2 DUP2 SUB PUSH0 DUP4 ADD MSTORE PUSH2 0xF77 DUP2 DUP5 PUSH2 0xEEC JUMP JUMPDEST SWAP1 POP SWAP3 SWAP2 POP POP JUMP JUMPDEST PUSH0 DUP3 DUP3 MSTORE PUSH1 0x20 DUP3 ADD SWAP1 POP SWAP3 SWAP2 POP POP JUMP JUMPDEST PUSH32 0x4E6F742061757468756F72697A65640000000000000000000000000000000000 PUSH0 DUP3 ADD MSTORE POP JUMP JUMPDEST PUSH0 PUSH2 0xFC3 PUSH1 0xF DUP4 PUSH2 0xF7F JUMP JUMPDEST SWAP2 POP PUSH2 0xFCE DUP3 PUSH2 0xF8F JUMP JUMPDEST PUSH1 0x20 DUP3 ADD SWAP1 POP SWAP2 SWAP1 POP JUMP JUMPDEST PUSH0 PUSH1 0x20 DUP3 ADD SWAP1 POP DUP2 DUP2 SUB PUSH0 DUP4 ADD MSTORE PUSH2 0xFF0 DUP2 PUSH2 0xFB7 JUMP JUMPDEST SWAP1 POP SWAP2 SWAP1 POP JUMP JUMPDEST PUSH32 0x596F75206172652062656C6F7720313800000000000000000000000000000000 PUSH0 DUP3 ADD MSTORE POP JUMP JUMPDEST PUSH0 PUSH2 0x102B PUSH1 0x10 DUP4 PUSH2 0xF7F JUMP JUMPDEST SWAP2 POP PUSH2 0x1036 DUP3 PUSH2 0xFF7 JUMP JUMPDEST PUSH1 0x20 DUP3 ADD SWAP1 POP SWAP2 SWAP1 POP JUMP JUMPDEST PUSH0 PUSH1 0x20 DUP3 ADD SWAP1 POP DUP2 DUP2 SUB PUSH0 DUP4 ADD MSTORE PUSH2 0x1058 DUP2 PUSH2 0x101F JUMP JUMPDEST SWAP1 POP SWAP2 SWAP1 POP JUMP JUMPDEST PUSH32 0x596F752061726520616C72656164792072656769737465726564000000000000 PUSH0 DUP3 ADD MSTORE POP JUMP JUMPDEST PUSH0 PUSH2 0x1093 PUSH1 0x1A DUP4 PUSH2 0xF7F JUMP JUMPDEST SWAP2 POP PUSH2 0x109E DUP3 PUSH2 0x105F JUMP JUMPDEST PUSH1 0x20 DUP3 ADD SWAP1 POP SWAP2 SWAP1 POP JUMP JUMPDEST PUSH0 PUSH1 0x20 DUP3 ADD SWAP1 POP DUP2 DUP2 SUB PUSH0 DUP4 ADD MSTORE PUSH2 0x10C0 DUP2 PUSH2 0x1087 JUMP JUMPDEST SWAP1 POP SWAP2 SWAP1 POP JUMP JUMPDEST PUSH32 0x4E487B7100000000000000000000000000000000000000000000000000000000 PUSH0 MSTORE PUSH1 0x41 PUSH1 0x4 MSTORE PUSH1 0x24 PUSH0 REVERT JUMPDEST PUSH32 0x4E487B7100000000000000000000000000000000000000000000000000000000 PUSH0 MSTORE PUSH1 0x22 PUSH1 0x4 MSTORE PUSH1 0x24 PUSH0 REVERT JUMPDEST PUSH0 PUSH1 0x2 DUP3 DIV SWAP1 POP PUSH1 0x1 DUP3 AND DUP1 PUSH2 0x1138 JUMPI PUSH1 0x7F DUP3 AND SWAP2 POP JUMPDEST PUSH1 0x20 DUP3 LT DUP2 SUB PUSH2 0x114B JUMPI PUSH2 0x114A PUSH2 0x10F4 JUMP JUMPDEST JUMPDEST POP SWAP2 SWAP1 POP JUMP JUMPDEST PUSH0 DUP2 SWAP1 POP DUP2 PUSH0 MSTORE PUSH1 0x20 PUSH0 KECCAK256 SWAP1 POP SWAP2 SWAP1 POP JUMP JUMPDEST PUSH0 PUSH1 0x20 PUSH1 0x1F DUP4 ADD DIV SWAP1 POP SWAP2 SWAP1 POP JUMP JUMPDEST PUSH0 DUP3 DUP3 SHL SWAP1 POP SWAP3 SWAP2 POP POP JUMP JUMPDEST PUSH0 PUSH1 0x8 DUP4 MUL PUSH2 0x11AD PUSH32 0xFFFFFFFFFFFFFFFFFFFFFFFFFFFFFFFFFFFFFFFFFFFFFFFFFFFFFFFFFFFFFFFF DUP3 PUSH2 0x1172 JUMP JUMPDEST PUSH2 0x11B7 DUP7 DUP4 PUSH2 0x1172 JUMP JUMPDEST SWAP6 POP DUP1 NOT DUP5 AND SWAP4 POP DUP1 DUP7 AND DUP5 OR SWAP3 POP POP POP SWAP4 SWAP3 POP POP POP JUMP JUMPDEST PUSH0 DUP2 SWAP1 POP SWAP2 SWAP1 POP JUMP JUMPDEST PUSH0 PUSH2 0x11F2 PUSH2 0x11ED PUSH2 0x11E8 DUP5 PUSH2 0x8E2 JUMP JUMPDEST PUSH2 0x11CF JUMP JUMPDEST PUSH2 0x8E2 JUMP JUMPDEST SWAP1 POP SWAP2 SWAP1 POP JUMP JUMPDEST PUSH0 DUP2 SWAP1 POP SWAP2 SWAP1 POP JUMP JUMPDEST PUSH2 0x120B DUP4 PUSH2 0x11D8 JUMP JUMPDEST PUSH2 0x121F PUSH2 0x1217 DUP3 PUSH2 0x11F9 JUMP JUMPDEST DUP5 DUP5 SLOAD PUSH2 0x117E JUMP JUMPDEST DUP3 SSTORE POP POP POP POP JUMP JUMPDEST PUSH0 SWAP1 JUMP JUMPDEST PUSH2 0x1233 PUSH2 0x1227 JUMP JUMPDEST PUSH2 0x123E DUP2 DUP5 DUP5 PUSH2 0x1202 JUMP JUMPDEST POP POP POP JUMP JUMPDEST JUMPDEST DUP2 DUP2 LT ISZERO PUSH2 0x1261 JUMPI PUSH2 0x1256 PUSH0 DUP3 PUSH2 0x122B JUMP JUMPDEST PUSH1 0x1 DUP2 ADD SWAP1 POP PUSH2 0x1244 JUMP JUMPDEST POP POP JUMP JUMPDEST PUSH1 0x1F DUP3 GT ISZERO PUSH2 0x12A6 JUMPI PUSH2 0x1277 DUP2 PUSH2 0x1151 JUMP JUMPDEST PUSH2 0x1280 DUP5 PUSH2 0x1163 JUMP JUMPDEST DUP2 ADD PUSH1 0x20 DUP6 LT ISZERO PUSH2 0x128F JUMPI DUP2 SWAP1 POP JUMPDEST PUSH2 0x12A3 PUSH2 0x129B DUP6 PUSH2 0x1163 JUMP JUMPDEST DUP4 ADD DUP3 PUSH2 0x1243 JUMP JUMPDEST POP POP JUMPDEST POP POP POP JUMP JUMPDEST PUSH0 DUP3 DUP3 SHR SWAP1 POP SWAP3 SWAP2 POP POP JUMP JUMPDEST PUSH0 PUSH2 0x12C6 PUSH0 NOT DUP5 PUSH1 0x8 MUL PUSH2 0x12AB JUMP JUMPDEST NOT DUP1 DUP4 AND SWAP2 POP POP SWAP3 SWAP2 POP POP JUMP JUMPDEST PUSH0 PUSH2 0x12DE DUP4 DUP4 PUSH2 0x12B7 JUMP JUMPDEST SWAP2 POP DUP3 PUSH1 0x2 MUL DUP3 OR SWAP1 POP SWAP3 SWAP2 POP POP JUMP JUMPDEST PUSH2 0x12F7 DUP3 PUSH2 0xBA0 JUMP JUMPDEST PUSH8 0xFFFFFFFFFFFFFFFF DUP2 GT ISZERO PUSH2 0x1310 JUMPI PUSH2 0x130F PUSH2 0x10C7 JUMP JUMPDEST JUMPDEST PUSH2 0x131A DUP3 SLOAD PUSH2 0x1121 JUMP JUMPDEST PUSH2 0x1325 DUP3 DUP3 DUP6 PUSH2 0x1265 JUMP JUMPDEST PUSH0 PUSH1 0x20 SWAP1 POP PUSH1 0x1F DUP4 GT PUSH1 0x1 DUP2 EQ PUSH2 0x1356 JUMPI PUSH0 DUP5 ISZERO PUSH2 0x1344 JUMPI DUP3 DUP8 ADD MLOAD SWAP1 POP JUMPDEST PUSH2 0x134E DUP6 DUP3 PUSH2 0x12D3 JUMP JUMPDEST DUP7 SSTORE POP PUSH2 0x13B5 JUMP JUMPDEST PUSH1 0x1F NOT DUP5 AND PUSH2 0x1364 DUP7 PUSH2 0x1151 JUMP JUMPDEST PUSH0 JUMPDEST DUP3 DUP2 LT ISZERO PUSH2 0x138B JUMPI DUP5 DUP10 ADD MLOAD DUP3 SSTORE PUSH1 0x1 DUP3 ADD SWAP2 POP PUSH1 0x20 DUP6 ADD SWAP5 POP PUSH1 0x20 DUP2 ADD SWAP1 POP PUSH2 0x1366 JUMP JUMPDEST DUP7 DUP4 LT ISZERO PUSH2 0x13A8 JUMPI DUP5 DUP10 ADD MLOAD PUSH2 0x13A4 PUSH1 0x1F DUP10 AND DUP3 PUSH2 0x12B7 JUMP JUMPDEST DUP4 SSTORE POP JUMPDEST PUSH1 0x1 PUSH1 0x2 DUP9 MUL ADD DUP9 SSTORE POP POP POP JUMPDEST POP POP POP POP POP POP JUMP JUMPDEST PUSH32 0x4E487B7100000000000000000000000000000000000000000000000000000000 PUSH0 MSTORE PUSH1 0x11 PUSH1 0x4 MSTORE PUSH1 0x24 PUSH0 REVERT JUMPDEST PUSH0 PUSH2 0x13F4 DUP3 PUSH2 0x8E2 JUMP JUMPDEST SWAP2 POP PUSH32 0xFFFFFFFFFFFFFFFFFFFFFFFFFFFFFFFFFFFFFFFFFFFFFFFFFFFFFFFFFFFFFFFF DUP3 SUB PUSH2 0x1426 JUMPI PUSH2 0x1425 PUSH2 0x13BD JUMP JUMPDEST JUMPDEST PUSH1 0x1 DUP3 ADD SWAP1 POP SWAP2 SWAP1 POP JUMP JUMPDEST PUSH32 0x43616E64696461746520526567697374726174696F6E2046756C6C0000000000 PUSH0 DUP3 ADD MSTORE POP JUMP JUMPDEST PUSH0 PUSH2 0x1465 PUSH1 0x1B DUP4 PUSH2 0xF7F JUMP JUMPDEST SWAP2 POP PUSH2 0x1470 DUP3 PUSH2 0x1431 JUMP JUMPDEST PUSH1 0x20 DUP3 ADD SWAP1 POP SWAP2 SWAP1 POP JUMP JUMPDEST PUSH0 PUSH1 0x20 DUP3 ADD SWAP1 POP DUP2 DUP2 SUB PUSH0 DUP4 ADD MSTORE PUSH2 0x1492 DUP2 PUSH2 0x1459 JUMP JUMPDEST SWAP1 POP SWAP2 SWAP1 POP JUMP JUMPDEST PUSH32 0x456C656374696F6E20436F6D6D6973696F6E206E6F7420616C6C6F7765642074 PUSH0 DUP3 ADD MSTORE PUSH32 0x6F20726567697374657200000000000000000000000000000000000000000000 PUSH1 0x20 DUP3 ADD MSTORE POP JUMP JUMPDEST PUSH0 PUSH2 0x14F3 PUSH1 0x2A DUP4 PUSH2 0xF7F JUMP JUMPDEST SWAP2 POP PUSH2 0x14FE DUP3 PUSH2 0x1499 JUMP JUMPDEST PUSH1 0x40 DUP3 ADD SWAP1 POP SWAP2 SWAP1 POP JUMP JUMPDEST PUSH0 PUSH1 0x20 DUP3 ADD SWAP1 POP DUP2 DUP2 SUB PUSH0 DUP4 ADD MSTORE PUSH2 0x1520 DUP2 PUSH2 0x14E7 JUMP JUMPDEST SWAP1 POP SWAP2 SWAP1 POP JUMP INVALID LOG2 PUSH5 0x6970667358 0x22 SLT KECCAK256 0xD2 PUSH32 0x5DE0CAFC55A58C50AFC98E687862494597029892153A647A8D3713956E6473 PUSH16 0x6C634300081A00330000000000000000 "
				},
				"gasEstimates": {
					"creation": {
						"codeDepositCost": "1093800",
						"executionCost": "69609",
						"totalCost": "1163409"
					},
					"external": {
						"announceVotingResult()": "2638",
						"castVote(uint256,uint256)": "infinite",
						"emergencyStopVoting()": "26575",
						"getCandidateList()": "infinite",
						"getVoterList()": "infinite",
						"getVotingStatus()": "441",
						"registerCandidate(string,string,uint256,uint8)": "infinite",
						"registerVoter(string,uint256,uint8)": "1188",
						"setVotingPeriod(uint256,uint256)": "infinite",
						"winner()": "2574"
					},
					"internal": {
						"isCandidateNotRegistered(address)": "19",
						"isVoterNotRegistered(address)": "19"
					}
				},
				"methodIdentifiers": {
					"announceVotingResult()": "6ce2ccc0",
					"castVote(uint256,uint256)": "2c0a3f89",
					"emergencyStopVoting()": "9fa4e440",
					"getCandidateList()": "fdbc4006",
					"getVoterList()": "b28d92ae",
					"getVotingStatus()": "581c281c",
					"registerCandidate(string,string,uint256,uint8)": "982c777d",
					"registerVoter(string,uint256,uint8)": "81ba732f",
					"setVotingPeriod(uint256,uint256)": "a15a36c7",
					"winner()": "dfbf53ae"
				}
			},
			"storageLayout": {
				"storage": [
					{
						"astId": 33,
						"contract": "contracts/storage.sol:Vote",
						"label": "electionCommission",
						"offset": 0,
						"slot": "0",
						"type": "t_address"
					},
					{
						"astId": 35,
						"contract": "contracts/storage.sol:Vote",
						"label": "winner",
						"offset": 0,
						"slot": "1",
						"type": "t_address"
					},
					{
						"astId": 38,
						"contract": "contracts/storage.sol:Vote",
						"label": "nextVoterId",
						"offset": 0,
						"slot": "2",
						"type": "t_uint256"
					},
					{
						"astId": 41,
						"contract": "contracts/storage.sol:Vote",
						"label": "nextCandidateId",
						"offset": 0,
						"slot": "3",
						"type": "t_uint256"
					},
					{
						"astId": 43,
						"contract": "contracts/storage.sol:Vote",
						"label": "startTime",
						"offset": 0,
						"slot": "4",
						"type": "t_uint256"
					},
					{
						"astId": 45,
						"contract": "contracts/storage.sol:Vote",
						"label": "endTime",
						"offset": 0,
						"slot": "5",
						"type": "t_uint256"
					},
					{
						"astId": 47,
						"contract": "contracts/storage.sol:Vote",
						"label": "stopVoting",
						"offset": 0,
						"slot": "6",
						"type": "t_bool"
					},
					{
						"astId": 52,
						"contract": "contracts/storage.sol:Vote",
						"label": "voterDetails",
						"offset": 0,
						"slot": "7",
						"type": "t_mapping(t_uint256,t_struct(Voter)15_storage)"
					},
					{
						"astId": 57,
						"contract": "contracts/storage.sol:Vote",
						"label": "candidateDetails",
						"offset": 0,
						"slot": "8",
						"type": "t_mapping(t_uint256,t_struct(Candidate)31_storage)"
					}
				],
				"types": {
					"t_address": {
						"encoding": "inplace",
						"label": "address",
						"numberOfBytes": "20"
					},
					"t_bool": {
						"encoding": "inplace",
						"label": "bool",
						"numberOfBytes": "1"
					},
					"t_enum(Gender)66": {
						"encoding": "inplace",
						"label": "enum Vote.Gender",
						"numberOfBytes": "1"
					},
					"t_mapping(t_uint256,t_struct(Candidate)31_storage)": {
						"encoding": "mapping",
						"key": "t_uint256",
						"label": "mapping(uint256 => struct Vote.Candidate)",
						"numberOfBytes": "32",
						"value": "t_struct(Candidate)31_storage"
					},
					"t_mapping(t_uint256,t_struct(Voter)15_storage)": {
						"encoding": "mapping",
						"key": "t_uint256",
						"label": "mapping(uint256 => struct Vote.Voter)",
						"numberOfBytes": "32",
						"value": "t_struct(Voter)15_storage"
					},
					"t_string_storage": {
						"encoding": "bytes",
						"label": "string",
						"numberOfBytes": "32"
					},
					"t_struct(Candidate)31_storage": {
						"encoding": "inplace",
						"label": "struct Vote.Candidate",
						"members": [
							{
								"astId": 17,
								"contract": "contracts/storage.sol:Vote",
								"label": "name",
								"offset": 0,
								"slot": "0",
								"type": "t_string_storage"
							},
							{
								"astId": 19,
								"contract": "contracts/storage.sol:Vote",
								"label": "party",
								"offset": 0,
								"slot": "1",
								"type": "t_string_storage"
							},
							{
								"astId": 21,
								"contract": "contracts/storage.sol:Vote",
								"label": "age",
								"offset": 0,
								"slot": "2",
								"type": "t_uint256"
							},
							{
								"astId": 24,
								"contract": "contracts/storage.sol:Vote",
								"label": "gender",
								"offset": 0,
								"slot": "3",
								"type": "t_enum(Gender)66"
							},
							{
								"astId": 26,
								"contract": "contracts/storage.sol:Vote",
								"label": "candidateId",
								"offset": 0,
								"slot": "4",
								"type": "t_uint256"
							},
							{
								"astId": 28,
								"contract": "contracts/storage.sol:Vote",
								"label": "candidateAddress",
								"offset": 0,
								"slot": "5",
								"type": "t_address"
							},
							{
								"astId": 30,
								"contract": "contracts/storage.sol:Vote",
								"label": "votes",
								"offset": 0,
								"slot": "6",
								"type": "t_uint256"
							}
						],
						"numberOfBytes": "224"
					},
					"t_struct(Voter)15_storage": {
						"encoding": "inplace",
						"label": "struct Vote.Voter",
						"members": [
							{
								"astId": 3,
								"contract": "contracts/storage.sol:Vote",
								"label": "name",
								"offset": 0,
								"slot": "0",
								"type": "t_string_storage"
							},
							{
								"astId": 5,
								"contract": "contracts/storage.sol:Vote",
								"label": "age",
								"offset": 0,
								"slot": "1",
								"type": "t_uint256"
							},
							{
								"astId": 7,
								"contract": "contracts/storage.sol:Vote",
								"label": "voterId",
								"offset": 0,
								"slot": "2",
								"type": "t_uint256"
							},
							{
								"astId": 10,
								"contract": "contracts/storage.sol:Vote",
								"label": "gender",
								"offset": 0,
								"slot": "3",
								"type": "t_enum(Gender)66"
							},
							{
								"astId": 12,
								"contract": "contracts/storage.sol:Vote",
								"label": "voteCandidateId",
								"offset": 0,
								"slot": "4",
								"type": "t_uint256"
							},
							{
								"astId": 14,
								"contract": "contracts/storage.sol:Vote",
								"label": "voterAddress",
								"offset": 0,
								"slot": "5",
								"type": "t_address"
							}
						],
						"numberOfBytes": "192"
					},
					"t_uint256": {
						"encoding": "inplace",
						"label": "uint256",
						"numberOfBytes": "32"
					}
				}
			},
			"userdoc": {
				"kind": "user",
				"methods": {},
				"version": 1
			}
		}
	}
}